{
  "contractName": "CertificateStore",
  "abi": [
    {
      "inputs": [],
      "payable": false,
      "stateMutability": "nonpayable",
      "type": "constructor"
    },
    {
      "anonymous": false,
      "inputs": [
        {
          "indexed": false,
          "internalType": "uint256",
          "name": "_id",
          "type": "uint256"
        },
        {
          "indexed": false,
          "internalType": "string",
          "name": "_title",
          "type": "string"
        }
      ],
      "name": "CertificateStored",
      "type": "event"
    },
    {
      "anonymous": false,
      "inputs": [
        {
          "indexed": true,
          "internalType": "address",
          "name": "previousOwner",
          "type": "address"
        },
        {
          "indexed": true,
          "internalType": "address",
          "name": "newOwner",
          "type": "address"
        }
      ],
      "name": "OwnershipTransferred",
      "type": "event"
    },
    {
      "constant": true,
      "inputs": [
        {
          "internalType": "uint256",
          "name": "",
          "type": "uint256"
        }
      ],
      "name": "certificates",
      "outputs": [
        {
          "internalType": "address",
          "name": "issuer",
          "type": "address"
        },
        {
          "internalType": "address",
          "name": "owner",
          "type": "address"
        },
        {
          "internalType": "string",
          "name": "title",
          "type": "string"
        },
        {
          "internalType": "string",
          "name": "certificateHash",
          "type": "string"
        },
        {
          "internalType": "uint256",
          "name": "issuedAt",
          "type": "uint256"
        },
        {
          "internalType": "bool",
          "name": "exist",
          "type": "bool"
        }
      ],
      "payable": false,
      "stateMutability": "view",
      "type": "function"
    },
    {
      "constant": true,
      "inputs": [],
      "name": "isOwner",
      "outputs": [
        {
          "internalType": "bool",
          "name": "",
          "type": "bool"
        }
      ],
      "payable": false,
      "stateMutability": "view",
      "type": "function"
    },
    {
      "constant": true,
      "inputs": [],
      "name": "owner",
      "outputs": [
        {
          "internalType": "address",
          "name": "",
          "type": "address"
        }
      ],
      "payable": false,
      "stateMutability": "view",
      "type": "function"
    },
    {
      "constant": false,
      "inputs": [],
      "name": "renounceOwnership",
      "outputs": [],
      "payable": false,
      "stateMutability": "nonpayable",
      "type": "function"
    },
    {
      "constant": false,
      "inputs": [
        {
          "internalType": "address",
          "name": "newOwner",
          "type": "address"
        }
      ],
      "name": "transferOwnership",
      "outputs": [],
      "payable": false,
      "stateMutability": "nonpayable",
      "type": "function"
    },
    {
      "constant": false,
      "inputs": [
        {
          "internalType": "address",
          "name": "_issuer",
          "type": "address"
        }
      ],
      "name": "addIssuer",
      "outputs": [],
      "payable": false,
      "stateMutability": "nonpayable",
      "type": "function"
    },
    {
      "constant": false,
      "inputs": [
        {
          "internalType": "address",
          "name": "_issuer",
          "type": "address"
        }
      ],
      "name": "revokeIssuer",
      "outputs": [],
      "payable": false,
      "stateMutability": "nonpayable",
      "type": "function"
    },
    {
      "constant": true,
      "inputs": [],
      "name": "isTrustedIssuer",
      "outputs": [
        {
          "internalType": "bool",
          "name": "isTrusted",
          "type": "bool"
        }
      ],
      "payable": false,
      "stateMutability": "view",
      "type": "function"
    },
    {
      "constant": false,
      "inputs": [
        {
          "internalType": "address",
          "name": "_owner",
          "type": "address"
        },
        {
          "internalType": "string",
          "name": "_title",
          "type": "string"
        },
        {
          "internalType": "string",
          "name": "_certHash",
          "type": "string"
        }
      ],
      "name": "issueCertificate",
      "outputs": [],
      "payable": false,
      "stateMutability": "nonpayable",
      "type": "function"
    },
    {
      "constant": true,
      "inputs": [
        {
          "internalType": "string",
          "name": "_certHash",
          "type": "string"
        },
        {
          "internalType": "address",
          "name": "_pretendedOwner",
          "type": "address"
        }
      ],
      "name": "authenticateHash",
      "outputs": [
        {
          "internalType": "bool",
          "name": "authenticated",
          "type": "bool"
        },
        {
          "internalType": "uint256",
          "name": "authenticatedCertificateId",
          "type": "uint256"
        }
      ],
      "payable": false,
      "stateMutability": "view",
      "type": "function"
    },
    {
      "constant": true,
      "inputs": [
        {
          "internalType": "uint256",
          "name": "_certId",
          "type": "uint256"
        }
      ],
      "name": "getCertificateById",
      "outputs": [
        {
          "components": [
            {
              "internalType": "address",
              "name": "issuer",
              "type": "address"
            },
            {
              "internalType": "address",
              "name": "owner",
              "type": "address"
            },
            {
              "internalType": "string",
              "name": "title",
              "type": "string"
            },
            {
              "internalType": "string",
              "name": "certificateHash",
              "type": "string"
            },
            {
              "internalType": "uint256",
              "name": "issuedAt",
              "type": "uint256"
            },
            {
              "internalType": "bool",
              "name": "exist",
              "type": "bool"
            }
          ],
          "internalType": "struct CertificateStore.Certificate",
          "name": "allCertificates",
          "type": "tuple"
        }
      ],
      "payable": false,
      "stateMutability": "view",
      "type": "function"
    },
    {
      "constant": true,
      "inputs": [],
      "name": "getOwnedCertificatesId",
      "outputs": [
        {
          "internalType": "uint256[]",
          "name": "ownedCertificates",
          "type": "uint256[]"
        }
      ],
      "payable": false,
      "stateMutability": "view",
      "type": "function"
    }
  ],
  "bytecode": "0x60806040523480156200001157600080fd5b506000620000246200016560201b60201c565b9050806000806101000a81548173ffffffffffffffffffffffffffffffffffffffff021916908373ffffffffffffffffffffffffffffffffffffffff1602179055508073ffffffffffffffffffffffffffffffffffffffff16600073ffffffffffffffffffffffffffffffffffffffff167f8be0079c531659141344cd1fd0a4f28419497f9722a3daafe3b4186f6b6457e060405160405180910390a3506200015e620000d66200016d60201b60201c565b620000e66200016d60201b60201c565b6040518060400160405280601481526020017f4f524947494e414c5f43455254494649434154450000000000000000000000008152506040518060400160405280601481526020017f4f524947494e414c5f43455254494649434154450000000000000000000000008152506200019660201b60201c565b50620005ab565b600033905090565b60008060009054906101000a900473ffffffffffffffffffffffffffffffffffffffff16905090565b6000620001a2620003fc565b6040518060c001604052808773ffffffffffffffffffffffffffffffffffffffff1681526020018673ffffffffffffffffffffffffffffffffffffffff1681526020018581526020018481526020014281526020016001151581525090506000600180839080600181540180825580915050906001820390600052602060002090600602016000909192909190915060008201518160000160006101000a81548173ffffffffffffffffffffffffffffffffffffffff021916908373ffffffffffffffffffffffffffffffffffffffff16021790555060208201518160010160006101000a81548173ffffffffffffffffffffffffffffffffffffffff021916908373ffffffffffffffffffffffffffffffffffffffff1602179055506040820151816002019080519060200190620002dd92919062000460565b506060820151816003019080519060200190620002fc92919062000460565b506080820151816004015560a08201518160050160006101000a81548160ff0219169083151502179055505050039050806002856040516200033f919062000546565b908152602001604051809103902081905550600460008773ffffffffffffffffffffffffffffffffffffffff1673ffffffffffffffffffffffffffffffffffffffff16815260200190815260200160002060008154809291906001019190505550600560003373ffffffffffffffffffffffffffffffffffffffff1673ffffffffffffffffffffffffffffffffffffffff168152602001908152602001600020600081548092919060010191905055508092505050949350505050565b6040518060c00160405280600073ffffffffffffffffffffffffffffffffffffffff168152602001600073ffffffffffffffffffffffffffffffffffffffff1681526020016060815260200160608152602001600081526020016000151581525090565b828054600181600116156101000203166002900490600052602060002090601f016020900481019282601f10620004a357805160ff1916838001178555620004d4565b82800160010185558215620004d4579182015b82811115620004d3578251825591602001919060010190620004b6565b5b509050620004e39190620004e7565b5090565b6200050c91905b8082111562000508576000816000905550600101620004ee565b5090565b90565b60006200051c826200055f565b6200052881856200056a565b93506200053a81856020860162000575565b80840191505092915050565b60006200055482846200050f565b915081905092915050565b600081519050919050565b600081905092915050565b60005b838110156200059557808201518184015260208101905062000578565b83811115620005a5576000848401525b50505050565b61198f80620005bb6000396000f3fe608060405234801561001057600080fd5b50600436106100b35760003560e01c80638d062458116100715780638d0624581461017e5780638da5cb5b1461019c5780638f32d59b146101ba5780639d735caf146101d8578063e98ac4d814610208578063f2fde38b14610224576100b3565b8062629679146100b857806320694db0146100d45780633aceed30146100f057806364b3300314610121578063663b3e221461013f578063715018a614610174575b600080fd5b6100d260048036036100cd91908101906111ae565b610240565b005b6100ee60048036036100e991908101906111ae565b6102e2565b005b61010a60048036036101059190810190611256565b610384565b6040516101189291906116d3565b60405180910390f35b610129610477565b6040516101369190611696565b60405180910390f35b610159600480360361015491908101906112aa565b6105b9565b60405161016b96959493929190611627565b60405180910390f35b61017c61077f565b005b610186610885565b60405161019391906116b8565b60405180910390f35b6101a46108d9565b6040516101b1919061160c565b60405180910390f35b6101c2610902565b6040516101cf91906116b8565b60405180910390f35b6101f260048036036101ed91908101906112aa565b610960565b6040516101ff919061175c565b60405180910390f35b610222600480360361021d91908101906111d7565b610baa565b005b61023e600480360361023991908101906111ae565b610c40565b005b610248610902565b610287576040517f08c379a000000000000000000000000000000000000000000000000000000000815260040161027e9061173c565b60405180910390fd5b6000600360008373ffffffffffffffffffffffffffffffffffffffff1673ffffffffffffffffffffffffffffffffffffffff16815260200190815260200160002060006101000a81548160ff02191690831515021790555050565b6102ea610902565b610329576040517f08c379a00000000000000000000000000000000000000000000000000000000081526004016103209061173c565b60405180910390fd5b6001600360008373ffffffffffffffffffffffffffffffffffffffff1673ffffffffffffffffffffffffffffffffffffffff16815260200190815260200160002060006101000a81548160ff02191690831515021790555050565b600080600060028560405161039991906115f5565b908152602001604051809103902054905060011515600182815481106103bb57fe5b906000526020600020906006020160050160009054906101000a900460ff16151514801561045257508373ffffffffffffffffffffffffffffffffffffffff166001828154811061040857fe5b906000526020600020906006020160010160009054906101000a900473ffffffffffffffffffffffffffffffffffffffff1673ffffffffffffffffffffffffffffffffffffffff16145b15610464576001819250925050610470565b60008080905092509250505b9250929050565b606080600460003373ffffffffffffffffffffffffffffffffffffffff1673ffffffffffffffffffffffffffffffffffffffff168152602001908152602001600020546040519080825280602002602001820160405280156104e85781602001602082028038833980820191505090505b509050600080905060008090505b6001805490508110801561050a5750825182105b156105b0573373ffffffffffffffffffffffffffffffffffffffff166001828154811061053357fe5b906000526020600020906006020160010160009054906101000a900473ffffffffffffffffffffffffffffffffffffffff1673ffffffffffffffffffffffffffffffffffffffff1614156105a3578083838151811061058e57fe5b60200260200101818152505081806001019250505b80806001019150506104f6565b50819250505090565b600181815481106105c657fe5b90600052602060002090600602016000915090508060000160009054906101000a900473ffffffffffffffffffffffffffffffffffffffff16908060010160009054906101000a900473ffffffffffffffffffffffffffffffffffffffff1690806002018054600181600116156101000203166002900480601f0160208091040260200160405190810160405280929190818152602001828054600181600116156101000203166002900480156106be5780601f10610693576101008083540402835291602001916106be565b820191906000526020600020905b8154815290600101906020018083116106a157829003601f168201915b505050505090806003018054600181600116156101000203166002900480601f01602080910402602001604051908101604052809291908181526020018280546001816001161561010002031660029004801561075c5780601f106107315761010080835404028352916020019161075c565b820191906000526020600020905b81548152906001019060200180831161073f57829003601f168201915b5050505050908060040154908060050160009054906101000a900460ff16905086565b610787610902565b6107c6576040517f08c379a00000000000000000000000000000000000000000000000000000000081526004016107bd9061173c565b60405180910390fd5b600073ffffffffffffffffffffffffffffffffffffffff166000809054906101000a900473ffffffffffffffffffffffffffffffffffffffff1673ffffffffffffffffffffffffffffffffffffffff167f8be0079c531659141344cd1fd0a4f28419497f9722a3daafe3b4186f6b6457e060405160405180910390a360008060006101000a81548173ffffffffffffffffffffffffffffffffffffffff021916908373ffffffffffffffffffffffffffffffffffffffff160217905550565b6000600360003373ffffffffffffffffffffffffffffffffffffffff1673ffffffffffffffffffffffffffffffffffffffff16815260200190815260200160002060009054906101000a900460ff16905090565b60008060009054906101000a900473ffffffffffffffffffffffffffffffffffffffff16905090565b60008060009054906101000a900473ffffffffffffffffffffffffffffffffffffffff1673ffffffffffffffffffffffffffffffffffffffff16610944610c93565b73ffffffffffffffffffffffffffffffffffffffff1614905090565b610968611027565b6001828154811061097557fe5b90600052602060002090600602016040518060c00160405290816000820160009054906101000a900473ffffffffffffffffffffffffffffffffffffffff1673ffffffffffffffffffffffffffffffffffffffff1673ffffffffffffffffffffffffffffffffffffffff1681526020016001820160009054906101000a900473ffffffffffffffffffffffffffffffffffffffff1673ffffffffffffffffffffffffffffffffffffffff1673ffffffffffffffffffffffffffffffffffffffff168152602001600282018054600181600116156101000203166002900480601f016020809104026020016040519081016040528092919081815260200182805460018160011615610100020316600290048015610ad35780601f10610aa857610100808354040283529160200191610ad3565b820191906000526020600020905b815481529060010190602001808311610ab657829003601f168201915b50505050508152602001600382018054600181600116156101000203166002900480601f016020809104026020016040519081016040528092919081815260200182805460018160011615610100020316600290048015610b755780601f10610b4a57610100808354040283529160200191610b75565b820191906000526020600020905b815481529060010190602001808311610b5857829003601f168201915b50505050508152602001600482015481526020016005820160009054906101000a900460ff1615151515815250509050919050565b610bb2610885565b610bf1576040517f08c379a0000000000000000000000000000000000000000000000000000000008152600401610be8906116fc565b60405180910390fd5b6000610bff33858585610c9b565b90507f33a43a5f40642b7962e152d8df96057d081da4482e7adef69ddf86e2dc9ae7118184604051610c3292919061177e565b60405180910390a150505050565b610c48610902565b610c87576040517f08c379a0000000000000000000000000000000000000000000000000000000008152600401610c7e9061173c565b60405180910390fd5b610c9081610ef9565b50565b600033905090565b6000610ca5611027565b6040518060c001604052808773ffffffffffffffffffffffffffffffffffffffff1681526020018673ffffffffffffffffffffffffffffffffffffffff1681526020018581526020018481526020014281526020016001151581525090506000600180839080600181540180825580915050906001820390600052602060002090600602016000909192909190915060008201518160000160006101000a81548173ffffffffffffffffffffffffffffffffffffffff021916908373ffffffffffffffffffffffffffffffffffffffff16021790555060208201518160010160006101000a81548173ffffffffffffffffffffffffffffffffffffffff021916908373ffffffffffffffffffffffffffffffffffffffff1602179055506040820151816002019080519060200190610dde92919061108b565b506060820151816003019080519060200190610dfb92919061108b565b506080820151816004015560a08201518160050160006101000a81548160ff021916908315150217905550505003905080600285604051610e3c91906115f5565b908152602001604051809103902081905550600460008773ffffffffffffffffffffffffffffffffffffffff1673ffffffffffffffffffffffffffffffffffffffff16815260200190815260200160002060008154809291906001019190505550600560003373ffffffffffffffffffffffffffffffffffffffff1673ffffffffffffffffffffffffffffffffffffffff168152602001908152602001600020600081548092919060010191905055508092505050949350505050565b600073ffffffffffffffffffffffffffffffffffffffff168173ffffffffffffffffffffffffffffffffffffffff161415610f69576040517f08c379a0000000000000000000000000000000000000000000000000000000008152600401610f609061171c565b60405180910390fd5b8073ffffffffffffffffffffffffffffffffffffffff166000809054906101000a900473ffffffffffffffffffffffffffffffffffffffff1673ffffffffffffffffffffffffffffffffffffffff167f8be0079c531659141344cd1fd0a4f28419497f9722a3daafe3b4186f6b6457e060405160405180910390a3806000806101000a81548173ffffffffffffffffffffffffffffffffffffffff021916908373ffffffffffffffffffffffffffffffffffffffff16021790555050565b6040518060c00160405280600073ffffffffffffffffffffffffffffffffffffffff168152602001600073ffffffffffffffffffffffffffffffffffffffff1681526020016060815260200160608152602001600081526020016000151581525090565b828054600181600116156101000203166002900490600052602060002090601f016020900481019282601f106110cc57805160ff19168380011785556110fa565b828001600101855582156110fa579182015b828111156110f95782518255916020019190600101906110de565b5b509050611107919061110b565b5090565b61112d91905b80821115611129576000816000905550600101611111565b5090565b90565b60008135905061113f8161191e565b92915050565b600082601f83011261115657600080fd5b8135611169611164826117db565b6117ae565b9150808252602083016020830185838301111561118557600080fd5b6111908382846118cb565b50505092915050565b6000813590506111a881611935565b92915050565b6000602082840312156111c057600080fd5b60006111ce84828501611130565b91505092915050565b6000806000606084860312156111ec57600080fd5b60006111fa86828701611130565b935050602084013567ffffffffffffffff81111561121757600080fd5b61122386828701611145565b925050604084013567ffffffffffffffff81111561124057600080fd5b61124c86828701611145565b9150509250925092565b6000806040838503121561126957600080fd5b600083013567ffffffffffffffff81111561128357600080fd5b61128f85828601611145565b92505060206112a085828601611130565b9150509250929050565b6000602082840312156112bc57600080fd5b60006112ca84828501611199565b91505092915050565b60006112df83836115d7565b60208301905092915050565b6112f481611883565b82525050565b61130381611883565b82525050565b600061131482611817565b61131e8185611845565b935061132983611807565b8060005b8381101561135a57815161134188826112d3565b975061134c83611838565b92505060018101905061132d565b5085935050505092915050565b61137081611895565b82525050565b61137f81611895565b82525050565b60006113908261182d565b61139a8185611867565b93506113aa8185602086016118da565b6113b38161190d565b840191505092915050565b60006113c98261182d565b6113d38185611878565b93506113e38185602086016118da565b80840191505092915050565b60006113fa82611822565b6114048185611856565b93506114148185602086016118da565b61141d8161190d565b840191505092915050565b600061143382611822565b61143d8185611867565b935061144d8185602086016118da565b6114568161190d565b840191505092915050565b600061146e601683611867565b91507f497373756572206973206e6f7420747275737465642e000000000000000000006000830152602082019050919050565b60006114ae602683611867565b91507f4f776e61626c653a206e6577206f776e657220697320746865207a65726f206160008301527f64647265737300000000000000000000000000000000000000000000000000006020830152604082019050919050565b6000611514602083611867565b91507f4f776e61626c653a2063616c6c6572206973206e6f7420746865206f776e65726000830152602082019050919050565b600060c08301600083015161155f60008601826112eb565b50602083015161157260208601826112eb565b506040830151848203604086015261158a82826113ef565b915050606083015184820360608601526115a482826113ef565b91505060808301516115b960808601826115d7565b5060a08301516115cc60a0860182611367565b508091505092915050565b6115e0816118c1565b82525050565b6115ef816118c1565b82525050565b600061160182846113be565b915081905092915050565b600060208201905061162160008301846112fa565b92915050565b600060c08201905061163c60008301896112fa565b61164960208301886112fa565b818103604083015261165b8187611428565b9050818103606083015261166f8186611428565b905061167e60808301856115e6565b61168b60a0830184611376565b979650505050505050565b600060208201905081810360008301526116b08184611309565b905092915050565b60006020820190506116cd6000830184611376565b92915050565b60006040820190506116e86000830185611376565b6116f560208301846115e6565b9392505050565b6000602082019050818103600083015261171581611461565b9050919050565b60006020820190508181036000830152611735816114a1565b9050919050565b6000602082019050818103600083015261175581611507565b9050919050565b600060208201905081810360008301526117768184611547565b905092915050565b600060408201905061179360008301856115e6565b81810360208301526117a58184611385565b90509392505050565b6000604051905081810181811067ffffffffffffffff821117156117d157600080fd5b8060405250919050565b600067ffffffffffffffff8211156117f257600080fd5b601f19601f8301169050602081019050919050565b6000819050602082019050919050565b600081519050919050565b600081519050919050565b600081519050919050565b6000602082019050919050565b600082825260208201905092915050565b600082825260208201905092915050565b600082825260208201905092915050565b600081905092915050565b600061188e826118a1565b9050919050565b60008115159050919050565b600073ffffffffffffffffffffffffffffffffffffffff82169050919050565b6000819050919050565b82818337600083830152505050565b60005b838110156118f85780820151818401526020810190506118dd565b83811115611907576000848401525b50505050565b6000601f19601f8301169050919050565b61192781611883565b811461193257600080fd5b50565b61193e816118c1565b811461194957600080fd5b5056fea365627a7a7231582011f812b52426258e0ac948cb105ddb226cac38cb903d153a5bf290703db855f06c6578706572696d656e74616cf564736f6c63430005100040",
  "source": "pragma solidity >=0.5.0 <0.6.0;\npragma experimental ABIEncoderV2;\n\nimport \"openzeppelin-solidity/contracts/ownership/Ownable.sol\";\n\ncontract CertificateStore is Ownable {\n    event CertificateStored(uint _id, string _title);\n\n    struct Certificate {\n        address issuer;\n        address owner;\n        string title;\n        string certificateHash;\n        uint256 issuedAt;\n        bool exist;\n    }\n\n    // All the issued certificates\n    Certificate[] public certificates;\n    // A way to fetch certificates through its hash\n    mapping(string => uint) internal certificateHashToCertificate;\n    // Trusted issuer is a mapping on order to disable the right to issue certificate to an entity\n    mapping(address => bool) internal trustedIssuer;\n    // Number of owned certificates and issued certificates\n    mapping(address => uint) internal certificateCount;\n    mapping(address => uint) internal issuedCertificateCount;\n\n    constructor() public {\n        _forgeCertificate(owner(), owner(), 'ORIGINAL_CERTIFICATE', 'ORIGINAL_CERTIFICATE');\n    }\n\n    /**\n    * @dev Add a new trusted issuer\n    */\n    function addIssuer(address _issuer) public onlyOwner {\n        trustedIssuer[_issuer] = true;\n    }\n\n    /**\n    * @dev Revoke an existing issuer\n    */\n    function revokeIssuer(address _issuer) public onlyOwner {\n        trustedIssuer[_issuer] = false;\n    }\n\n    /**\n    * @dev Returns true if the caller is a trusted issuer\n    */\n    function isTrustedIssuer() public view returns (bool isTrusted) {\n        return trustedIssuer[msg.sender];\n    }\n\n    /**\n    * @dev Throws if called by any account other than a trusted issuer.\n    */\n    modifier onlyTrustedIssuer() {\n        require(isTrustedIssuer(), 'Issuer is not trusted.');\n        _;\n    }\n\n    function _forgeCertificate(address _issuer, address _owner, string memory _title, string memory _certHash) internal returns (uint certificateId) {\n        Certificate memory certificate = Certificate(_issuer, _owner, _title, _certHash, now, true);\n        uint id = certificates.push(certificate) - 1;\n        certificateHashToCertificate[_certHash] = id;\n\n        certificateCount[_owner]++;\n        issuedCertificateCount[msg.sender]++;\n\n        return id;\n    }\n\n    /**\n    * @dev Issue a new certificate from input data (only trusted issuer)\n    */\n    function issueCertificate(address _owner, string memory _title, string memory _certHash) public onlyTrustedIssuer {\n        uint certId = _forgeCertificate(msg.sender, _owner, _title, _certHash);\n        emit CertificateStored(certId, _title);\n    }\n\n    /**\n    * @dev Returns true and the certificate id if the given certificate hash and the pretended owner match\n    */\n    function authenticateHash(string memory _certHash, address _pretendedOwner) public view returns (bool authenticated, uint authenticatedCertificateId) {\n        uint certId = certificateHashToCertificate[_certHash];\n\n        if(certificates[certId].exist == true && certificates[certId].owner == _pretendedOwner) {\n            return (true, certId);\n        }\n        return (false, 0);\n    }\n\n    /**\n    * @dev Return certificate matching th given id;\n    */\n    function getCertificateById(uint _certId) public view returns(Certificate memory allCertificates) {\n        return certificates[_certId];\n    }\n\n    /**\n    * @dev Returns certificates owned by the caller\n    */\n    function getOwnedCertificatesId() public view returns (uint[] memory ownedCertificates) {\n        uint[] memory _ownedCertificates = new uint[](certificateCount[msg.sender]);\n        uint current = 0;\n\n        for (uint i = 0; i < certificates.length && current < _ownedCertificates.length; i++) {\n            if (certificates[i].owner == msg.sender) {\n                _ownedCertificates[current] = i;\n                current++;\n            }\n        }\n\n        return _ownedCertificates;\n    }\n}\n",
  "sourcePath": "/home/guillaume/Ynov/M1_Blockchain/certynov/certynov/contracts/CertificateStore.sol",
  "compiler": {
    "name": "solc",
    "version": "0.5.16+commit.9c3226ce.Emscripten.clang"
  },
  "schemaVersion": "3.0.23",
  "updatedAt": "2020-04-11T16:42:05.662Z",
  "networkType": "ethereum",
  "devdoc": {
    "methods": {
      "addIssuer(address)": {
        "details": "Add a new trusted issuer"
      },
      "authenticateHash(string,address)": {
        "details": "Returns true and the certificate id if the given certificate hash and the pretended owner match"
      },
      "getCertificateById(uint256)": {
        "details": "Return certificate matching th given id;"
      },
      "getOwnedCertificatesId()": {
        "details": "Returns certificates owned by the caller"
      },
      "isOwner()": {
        "details": "Returns true if the caller is the current owner."
      },
      "isTrustedIssuer()": {
        "details": "Returns true if the caller is a trusted issuer"
      },
      "issueCertificate(address,string,string)": {
        "details": "Issue a new certificate from input data (only trusted issuer)"
      },
      "owner()": {
        "details": "Returns the address of the current owner."
      },
      "renounceOwnership()": {
        "details": "Leaves the contract without owner. It will not be possible to call `onlyOwner` functions anymore. Can only be called by the current owner.     * NOTE: Renouncing ownership will leave the contract without an owner, thereby removing any functionality that is only available to the owner."
      },
      "revokeIssuer(address)": {
        "details": "Revoke an existing issuer"
      },
      "transferOwnership(address)": {
        "details": "Transfers ownership of the contract to a new account (`newOwner`). Can only be called by the current owner."
      }
    }
  },
  "userdoc": {
    "methods": {}
  }
}