{
  "contractName": "CertificateStoreCore",
  "abi": [
    {
      "inputs": [],
      "payable": false,
      "stateMutability": "nonpayable",
      "type": "constructor"
    },
    {
      "anonymous": false,
      "inputs": [
        {
          "indexed": false,
          "internalType": "uint256",
          "name": "_id",
          "type": "uint256"
        },
        {
          "indexed": false,
          "internalType": "string",
          "name": "_title",
          "type": "string"
        }
      ],
      "name": "CertificateStored",
      "type": "event"
    },
    {
      "anonymous": false,
      "inputs": [
        {
          "indexed": true,
          "internalType": "address",
          "name": "previousOwner",
          "type": "address"
        },
        {
          "indexed": true,
          "internalType": "address",
          "name": "newOwner",
          "type": "address"
        }
      ],
      "name": "OwnershipTransferred",
      "type": "event"
    },
    {
      "anonymous": false,
      "inputs": [
        {
          "indexed": false,
          "internalType": "address",
          "name": "_issuer",
          "type": "address"
        },
        {
          "indexed": false,
          "internalType": "string",
          "name": "_organization",
          "type": "string"
        }
      ],
      "name": "TrustedIssuer",
      "type": "event"
    },
    {
      "anonymous": false,
      "inputs": [
        {
          "indexed": false,
          "internalType": "address",
          "name": "_issuer",
          "type": "address"
        },
        {
          "indexed": false,
          "internalType": "string",
          "name": "_organization",
          "type": "string"
        }
      ],
      "name": "UntrustedIssuer",
      "type": "event"
    },
    {
      "constant": true,
      "inputs": [
        {
          "internalType": "uint256",
          "name": "",
          "type": "uint256"
        }
      ],
      "name": "certificates",
      "outputs": [
        {
          "internalType": "address",
          "name": "issuer",
          "type": "address"
        },
        {
          "internalType": "address",
          "name": "owner",
          "type": "address"
        },
        {
          "internalType": "string",
          "name": "title",
          "type": "string"
        },
        {
          "internalType": "string",
          "name": "certificateHash",
          "type": "string"
        },
        {
          "internalType": "uint256",
          "name": "issuedAt",
          "type": "uint256"
        },
        {
          "internalType": "bool",
          "name": "exist",
          "type": "bool"
        }
      ],
      "payable": false,
      "stateMutability": "view",
      "type": "function"
    },
    {
      "constant": true,
      "inputs": [],
      "name": "isOwner",
      "outputs": [
        {
          "internalType": "bool",
          "name": "",
          "type": "bool"
        }
      ],
      "payable": false,
      "stateMutability": "view",
      "type": "function"
    },
    {
      "constant": true,
      "inputs": [],
      "name": "owner",
      "outputs": [
        {
          "internalType": "address",
          "name": "",
          "type": "address"
        }
      ],
      "payable": false,
      "stateMutability": "view",
      "type": "function"
    },
    {
      "constant": false,
      "inputs": [],
      "name": "renounceOwnership",
      "outputs": [],
      "payable": false,
      "stateMutability": "nonpayable",
      "type": "function"
    },
    {
      "constant": false,
      "inputs": [
        {
          "internalType": "address",
          "name": "newOwner",
          "type": "address"
        }
      ],
      "name": "transferOwnership",
      "outputs": [],
      "payable": false,
      "stateMutability": "nonpayable",
      "type": "function"
    },
    {
      "constant": false,
      "inputs": [
        {
          "internalType": "address",
          "name": "_issuer",
          "type": "address"
        },
        {
          "internalType": "string",
          "name": "_organization",
          "type": "string"
        }
      ],
      "name": "addIssuer",
      "outputs": [],
      "payable": false,
      "stateMutability": "nonpayable",
      "type": "function"
    },
    {
      "constant": false,
      "inputs": [
        {
          "internalType": "address",
          "name": "_issuer",
          "type": "address"
        },
        {
          "internalType": "string",
          "name": "_organization",
          "type": "string"
        }
      ],
      "name": "revokeIssuer",
      "outputs": [],
      "payable": false,
      "stateMutability": "nonpayable",
      "type": "function"
    },
    {
      "constant": true,
      "inputs": [],
      "name": "isTrustedIssuer",
      "outputs": [
        {
          "internalType": "bool",
          "name": "isTrusted",
          "type": "bool"
        }
      ],
      "payable": false,
      "stateMutability": "view",
      "type": "function"
    },
    {
      "constant": false,
      "inputs": [
        {
          "internalType": "address",
          "name": "_owner",
          "type": "address"
        },
        {
          "internalType": "string",
          "name": "_title",
          "type": "string"
        },
        {
          "internalType": "string",
          "name": "_certHash",
          "type": "string"
        }
      ],
      "name": "issueCertificate",
      "outputs": [],
      "payable": false,
      "stateMutability": "nonpayable",
      "type": "function"
    },
    {
      "constant": true,
      "inputs": [
        {
          "internalType": "string",
          "name": "_certHash",
          "type": "string"
        },
        {
          "internalType": "address",
          "name": "_pretendedOwner",
          "type": "address"
        }
      ],
      "name": "authenticateHash",
      "outputs": [
        {
          "internalType": "bool",
          "name": "authenticated",
          "type": "bool"
        },
        {
          "internalType": "uint256",
          "name": "authenticatedCertificateId",
          "type": "uint256"
        }
      ],
      "payable": false,
      "stateMutability": "view",
      "type": "function"
    }
  ],
  "bytecode": "0x60806040523480156200001157600080fd5b50600062000024620001bd60201b60201c565b9050806000806101000a81548173ffffffffffffffffffffffffffffffffffffffff021916908373ffffffffffffffffffffffffffffffffffffffff1602179055508073ffffffffffffffffffffffffffffffffffffffff16600073ffffffffffffffffffffffffffffffffffffffff167f8be0079c531659141344cd1fd0a4f28419497f9722a3daafe3b4186f6b6457e060405160405180910390a350620000cc620005d3565b62000122620000e0620001c560201b60201c565b6040518060400160405280600781526020017f4365727469665900000000000000000000000000000000000000000000000000815250620001ee60201b60201c565b9050620001b581600001516200013d620001c560201b60201c565b6040518060400160405280601481526020017f4f524947494e414c5f43455254494649434154450000000000000000000000008152506040518060400160405280601481526020017f4f524947494e414c5f43455254494649434154450000000000000000000000008152506200036d60201b60201c565b5050620007c4565b600033905090565b60008060009054906101000a900473ffffffffffffffffffffffffffffffffffffffff16905090565b620001f8620005d3565b62000202620005d3565b60405180608001604052808573ffffffffffffffffffffffffffffffffffffffff168152602001848152602001600015158152602001600115158152509050600060016002839080600181540180825580915050906001820390600052602060002090600302016000909192909190915060008201518160000160006101000a81548173ffffffffffffffffffffffffffffffffffffffff021916908373ffffffffffffffffffffffffffffffffffffffff1602179055506020820151816001019080519060200190620002d892919062000615565b5060408201518160020160006101000a81548160ff02191690831515021790555060608201518160020160016101000a81548160ff021916908315150217905550505003905080600460008773ffffffffffffffffffffffffffffffffffffffff1673ffffffffffffffffffffffffffffffffffffffff16815260200190815260200160002081905550819250505092915050565b6000620003796200069c565b6040518060c001604052808773ffffffffffffffffffffffffffffffffffffffff1681526020018673ffffffffffffffffffffffffffffffffffffffff1681526020018581526020018481526020014281526020016001151581525090506000600180839080600181540180825580915050906001820390600052602060002090600602016000909192909190915060008201518160000160006101000a81548173ffffffffffffffffffffffffffffffffffffffff021916908373ffffffffffffffffffffffffffffffffffffffff16021790555060208201518160010160006101000a81548173ffffffffffffffffffffffffffffffffffffffff021916908373ffffffffffffffffffffffffffffffffffffffff1602179055506040820151816002019080519060200190620004b492919062000615565b506060820151816003019080519060200190620004d392919062000615565b506080820151816004015560a08201518160050160006101000a81548160ff0219169083151502179055505050039050806003856040516200051691906200075f565b908152602001604051809103902081905550600560008773ffffffffffffffffffffffffffffffffffffffff1673ffffffffffffffffffffffffffffffffffffffff16815260200190815260200160002060008154809291906001019190505550600660003373ffffffffffffffffffffffffffffffffffffffff1673ffffffffffffffffffffffffffffffffffffffff168152602001908152602001600020600081548092919060010191905055508092505050949350505050565b6040518060800160405280600073ffffffffffffffffffffffffffffffffffffffff168152602001606081526020016000151581526020016000151581525090565b828054600181600116156101000203166002900490600052602060002090601f016020900481019282601f106200065857805160ff191683800117855562000689565b8280016001018555821562000689579182015b82811115620006885782518255916020019190600101906200066b565b5b50905062000698919062000700565b5090565b6040518060c00160405280600073ffffffffffffffffffffffffffffffffffffffff168152602001600073ffffffffffffffffffffffffffffffffffffffff1681526020016060815260200160608152602001600081526020016000151581525090565b6200072591905b808211156200072157600081600090555060010162000707565b5090565b90565b6000620007358262000778565b62000741818562000783565b9350620007538185602086016200078e565b80840191505092915050565b60006200076d828462000728565b915081905092915050565b600081519050919050565b600081905092915050565b60005b83811015620007ae57808201518184015260208101905062000791565b83811115620007be576000848401525b50505050565b61184d80620007d46000396000f3fe608060405234801561001057600080fd5b506004361061009e5760003560e01c80638da5cb5b116100665780638da5cb5b1461014d5780638f32d59b1461016b5780638fc0859a14610189578063e98ac4d8146101a5578063f2fde38b146101c15761009e565b80632b43c5f1146100a35780633aceed30146100bf578063663b3e22146100f0578063715018a6146101255780638d0624581461012f575b600080fd5b6100bd60048036036100b8919081019061120b565b6101dd565b005b6100d960048036036100d491908101906112de565b610358565b6040516100e79291906115fd565b60405180910390f35b61010a60048036036101059190810190611332565b61044b565b60405161011c96959493929190611543565b60405180910390f35b61012d610611565b005b610137610717565b60405161014491906115e2565b60405180910390f35b610155610789565b6040516101629190611528565b60405180910390f35b6101736107b2565b60405161018091906115e2565b60405180910390f35b6101a3600480360361019e919081019061120b565b610810565b005b6101bf60048036036101ba919081019061125f565b6109a6565b005b6101db60048036036101d691908101906111e2565b610ab9565b005b6101e56107b2565b610224576040517f08c379a000000000000000000000000000000000000000000000000000000000815260040161021b90611666565b60405180910390fd5b6002600460008473ffffffffffffffffffffffffffffffffffffffff1673ffffffffffffffffffffffffffffffffffffffff168152602001908152602001600020548154811061027057fe5b906000526020600020906003020160020160019054906101000a900460ff161561030f5760006002600460008573ffffffffffffffffffffffffffffffffffffffff1673ffffffffffffffffffffffffffffffffffffffff16815260200190815260200160002054815481106102e257fe5b906000526020600020906003020160020160006101000a81548160ff02191690831515021790555061031b565b6103198282610b0c565b505b7f731003ff9638e352f896124100670675e1e4322e7dfc0fe1fb311969e6f94bf7828260405161034c9291906115b2565b60405180910390a15050565b600080600060038560405161036d9190611511565b9081526020016040518091039020549050600115156001828154811061038f57fe5b906000526020600020906006020160050160009054906101000a900460ff16151514801561042657508373ffffffffffffffffffffffffffffffffffffffff16600182815481106103dc57fe5b906000526020600020906006020160010160009054906101000a900473ffffffffffffffffffffffffffffffffffffffff1673ffffffffffffffffffffffffffffffffffffffff16145b15610438576001819250925050610444565b60008080905092509250505b9250929050565b6001818154811061045857fe5b90600052602060002090600602016000915090508060000160009054906101000a900473ffffffffffffffffffffffffffffffffffffffff16908060010160009054906101000a900473ffffffffffffffffffffffffffffffffffffffff1690806002018054600181600116156101000203166002900480601f0160208091040260200160405190810160405280929190818152602001828054600181600116156101000203166002900480156105505780601f1061052557610100808354040283529160200191610550565b820191906000526020600020905b81548152906001019060200180831161053357829003601f168201915b505050505090806003018054600181600116156101000203166002900480601f0160208091040260200160405190810160405280929190818152602001828054600181600116156101000203166002900480156105ee5780601f106105c3576101008083540402835291602001916105ee565b820191906000526020600020905b8154815290600101906020018083116105d157829003601f168201915b5050505050908060040154908060050160009054906101000a900460ff16905086565b6106196107b2565b610658576040517f08c379a000000000000000000000000000000000000000000000000000000000815260040161064f90611666565b60405180910390fd5b600073ffffffffffffffffffffffffffffffffffffffff166000809054906101000a900473ffffffffffffffffffffffffffffffffffffffff1673ffffffffffffffffffffffffffffffffffffffff167f8be0079c531659141344cd1fd0a4f28419497f9722a3daafe3b4186f6b6457e060405160405180910390a360008060006101000a81548173ffffffffffffffffffffffffffffffffffffffff021916908373ffffffffffffffffffffffffffffffffffffffff160217905550565b60006002600460003373ffffffffffffffffffffffffffffffffffffffff1673ffffffffffffffffffffffffffffffffffffffff168152602001908152602001600020548154811061076557fe5b906000526020600020906003020160020160009054906101000a900460ff16905090565b60008060009054906101000a900473ffffffffffffffffffffffffffffffffffffffff16905090565b60008060009054906101000a900473ffffffffffffffffffffffffffffffffffffffff1673ffffffffffffffffffffffffffffffffffffffff166107f4610c85565b73ffffffffffffffffffffffffffffffffffffffff1614905090565b6108186107b2565b610857576040517f08c379a000000000000000000000000000000000000000000000000000000000815260040161084e90611666565b60405180910390fd5b6002600460008473ffffffffffffffffffffffffffffffffffffffff1673ffffffffffffffffffffffffffffffffffffffff16815260200190815260200160002054815481106108a357fe5b906000526020600020906003020160020160019054906101000a900460ff16156109425760016002600460008573ffffffffffffffffffffffffffffffffffffffff1673ffffffffffffffffffffffffffffffffffffffff168152602001908152602001600020548154811061091557fe5b906000526020600020906003020160020160006101000a81548160ff021916908315150217905550610969565b61094a611019565b6109548383610b0c565b90506001816040019015159081151581525050505b7f71f25247d01355f495505e8ea75c6b650f7c2b9a0c1906032ea56f503645e35e828260405161099a9291906115b2565b60405180910390a15050565b6109ae610717565b6109ed576040517f08c379a00000000000000000000000000000000000000000000000000000000081526004016109e490611626565b60405180910390fd5b6000610a786002600460003373ffffffffffffffffffffffffffffffffffffffff1673ffffffffffffffffffffffffffffffffffffffff1681526020019081526020016000205481548110610a3e57fe5b906000526020600020906003020160000160009054906101000a900473ffffffffffffffffffffffffffffffffffffffff16858585610c8d565b90507f33a43a5f40642b7962e152d8df96057d081da4482e7adef69ddf86e2dc9ae7118184604051610aab929190611686565b60405180910390a150505050565b610ac16107b2565b610b00576040517f08c379a0000000000000000000000000000000000000000000000000000000008152600401610af790611666565b60405180910390fd5b610b0981610eeb565b50565b610b14611019565b610b1c611019565b60405180608001604052808573ffffffffffffffffffffffffffffffffffffffff168152602001848152602001600015158152602001600115158152509050600060016002839080600181540180825580915050906001820390600052602060002090600302016000909192909190915060008201518160000160006101000a81548173ffffffffffffffffffffffffffffffffffffffff021916908373ffffffffffffffffffffffffffffffffffffffff1602179055506020820151816001019080519060200190610bf092919061105b565b5060408201518160020160006101000a81548160ff02191690831515021790555060608201518160020160016101000a81548160ff021916908315150217905550505003905080600460008773ffffffffffffffffffffffffffffffffffffffff1673ffffffffffffffffffffffffffffffffffffffff16815260200190815260200160002081905550819250505092915050565b600033905090565b6000610c976110db565b6040518060c001604052808773ffffffffffffffffffffffffffffffffffffffff1681526020018673ffffffffffffffffffffffffffffffffffffffff1681526020018581526020018481526020014281526020016001151581525090506000600180839080600181540180825580915050906001820390600052602060002090600602016000909192909190915060008201518160000160006101000a81548173ffffffffffffffffffffffffffffffffffffffff021916908373ffffffffffffffffffffffffffffffffffffffff16021790555060208201518160010160006101000a81548173ffffffffffffffffffffffffffffffffffffffff021916908373ffffffffffffffffffffffffffffffffffffffff1602179055506040820151816002019080519060200190610dd092919061105b565b506060820151816003019080519060200190610ded92919061105b565b506080820151816004015560a08201518160050160006101000a81548160ff021916908315150217905550505003905080600385604051610e2e9190611511565b908152602001604051809103902081905550600560008773ffffffffffffffffffffffffffffffffffffffff1673ffffffffffffffffffffffffffffffffffffffff16815260200190815260200160002060008154809291906001019190505550600660003373ffffffffffffffffffffffffffffffffffffffff1673ffffffffffffffffffffffffffffffffffffffff168152602001908152602001600020600081548092919060010191905055508092505050949350505050565b600073ffffffffffffffffffffffffffffffffffffffff168173ffffffffffffffffffffffffffffffffffffffff161415610f5b576040517f08c379a0000000000000000000000000000000000000000000000000000000008152600401610f5290611646565b60405180910390fd5b8073ffffffffffffffffffffffffffffffffffffffff166000809054906101000a900473ffffffffffffffffffffffffffffffffffffffff1673ffffffffffffffffffffffffffffffffffffffff167f8be0079c531659141344cd1fd0a4f28419497f9722a3daafe3b4186f6b6457e060405160405180910390a3806000806101000a81548173ffffffffffffffffffffffffffffffffffffffff021916908373ffffffffffffffffffffffffffffffffffffffff16021790555050565b6040518060800160405280600073ffffffffffffffffffffffffffffffffffffffff168152602001606081526020016000151581526020016000151581525090565b828054600181600116156101000203166002900490600052602060002090601f016020900481019282601f1061109c57805160ff19168380011785556110ca565b828001600101855582156110ca579182015b828111156110c95782518255916020019190600101906110ae565b5b5090506110d7919061113f565b5090565b6040518060c00160405280600073ffffffffffffffffffffffffffffffffffffffff168152602001600073ffffffffffffffffffffffffffffffffffffffff1681526020016060815260200160608152602001600081526020016000151581525090565b61116191905b8082111561115d576000816000905550600101611145565b5090565b90565b600081359050611173816117dc565b92915050565b600082601f83011261118a57600080fd5b813561119d611198826116e3565b6116b6565b915080825260208301602083018583830111156111b957600080fd5b6111c4838284611789565b50505092915050565b6000813590506111dc816117f3565b92915050565b6000602082840312156111f457600080fd5b600061120284828501611164565b91505092915050565b6000806040838503121561121e57600080fd5b600061122c85828601611164565b925050602083013567ffffffffffffffff81111561124957600080fd5b61125585828601611179565b9150509250929050565b60008060006060848603121561127457600080fd5b600061128286828701611164565b935050602084013567ffffffffffffffff81111561129f57600080fd5b6112ab86828701611179565b925050604084013567ffffffffffffffff8111156112c857600080fd5b6112d486828701611179565b9150509250925092565b600080604083850312156112f157600080fd5b600083013567ffffffffffffffff81111561130b57600080fd5b61131785828601611179565b925050602061132885828601611164565b9150509250929050565b60006020828403121561134457600080fd5b6000611352848285016111cd565b91505092915050565b61136481611741565b82525050565b61137381611753565b82525050565b60006113848261171a565b61138e8185611725565b935061139e818560208601611798565b6113a7816117cb565b840191505092915050565b60006113bd8261171a565b6113c78185611736565b93506113d7818560208601611798565b80840191505092915050565b60006113ee8261170f565b6113f88185611725565b9350611408818560208601611798565b611411816117cb565b840191505092915050565b6000611429601683611725565b91507f497373756572206973206e6f7420747275737465642e000000000000000000006000830152602082019050919050565b6000611469602683611725565b91507f4f776e61626c653a206e6577206f776e657220697320746865207a65726f206160008301527f64647265737300000000000000000000000000000000000000000000000000006020830152604082019050919050565b60006114cf602083611725565b91507f4f776e61626c653a2063616c6c6572206973206e6f7420746865206f776e65726000830152602082019050919050565b61150b8161177f565b82525050565b600061151d82846113b2565b915081905092915050565b600060208201905061153d600083018461135b565b92915050565b600060c082019050611558600083018961135b565b611565602083018861135b565b818103604083015261157781876113e3565b9050818103606083015261158b81866113e3565b905061159a6080830185611502565b6115a760a083018461136a565b979650505050505050565b60006040820190506115c7600083018561135b565b81810360208301526115d98184611379565b90509392505050565b60006020820190506115f7600083018461136a565b92915050565b6000604082019050611612600083018561136a565b61161f6020830184611502565b9392505050565b6000602082019050818103600083015261163f8161141c565b9050919050565b6000602082019050818103600083015261165f8161145c565b9050919050565b6000602082019050818103600083015261167f816114c2565b9050919050565b600060408201905061169b6000830185611502565b81810360208301526116ad8184611379565b90509392505050565b6000604051905081810181811067ffffffffffffffff821117156116d957600080fd5b8060405250919050565b600067ffffffffffffffff8211156116fa57600080fd5b601f19601f8301169050602081019050919050565b600081519050919050565b600081519050919050565b600082825260208201905092915050565b600081905092915050565b600061174c8261175f565b9050919050565b60008115159050919050565b600073ffffffffffffffffffffffffffffffffffffffff82169050919050565b6000819050919050565b82818337600083830152505050565b60005b838110156117b657808201518184015260208101905061179b565b838111156117c5576000848401525b50505050565b6000601f19601f8301169050919050565b6117e581611741565b81146117f057600080fd5b50565b6117fc8161177f565b811461180757600080fd5b5056fea365627a7a7231582059b6fe7aee93f9a8cc54632e003c4915f49c55fc9f2d20a6817615d929657b7b6c6578706572696d656e74616cf564736f6c63430005100040",
  "source": "pragma solidity >=0.5.0 <0.6.0;\npragma experimental ABIEncoderV2;\n\nimport \"openzeppelin-solidity/contracts/ownership/Ownable.sol\";\n\ncontract CertificateStoreCore is Ownable {\n    event CertificateStored(uint _id, string _title);\n    event TrustedIssuer(address _issuer, string _organization);\n    event UntrustedIssuer(address _issuer, string _organization);\n\n    struct Issuer {\n        address issuer;\n        string organization;\n        bool trusted;\n        bool exist;\n    }\n\n    struct Certificate {\n        address issuer;\n        address owner;\n        string title;\n        string certificateHash;\n        uint256 issuedAt;\n        bool exist;\n    }\n\n    // All the issued certificates\n    Certificate[] public certificates;\n    Issuer[] internal issuers;\n\n    // A way to fetch certificates through its hash\n    mapping(string => uint) internal certificateHashToCertificate;\n    mapping(address => uint) internal issuersMapping;\n\n    // Number of owned certificates and issued certificates\n    mapping(address => uint) internal certificateCount;\n    mapping(address => uint) internal issuedCertificateCount;\n\n    constructor() public {\n        Issuer memory issuer = _forgeIssuer(owner(), 'CertifY');\n        _forgeCertificate(issuer.issuer, owner(), 'ORIGINAL_CERTIFICATE', 'ORIGINAL_CERTIFICATE');\n    }\n\n    /**\n    * @dev Add a new trusted issuer\n    */\n    function addIssuer(address _issuer, string memory _organization) public onlyOwner {\n        if(issuers[issuersMapping[_issuer]].exist) {\n            issuers[issuersMapping[_issuer]].trusted = true;\n        } else {\n            Issuer memory _newIssuer = _forgeIssuer(_issuer, _organization);\n            _newIssuer.trusted = true;\n        }\n\n        emit TrustedIssuer(_issuer, _organization);\n    }\n\n    /**\n    * @dev Revoke an existing issuer\n    */\n    function revokeIssuer(address _issuer, string memory _organization) public onlyOwner {\n        if(issuers[issuersMapping[_issuer]].exist) {\n            issuers[issuersMapping[_issuer]].trusted = false;\n        } else {\n            _forgeIssuer(_issuer, _organization);\n        }\n\n        emit UntrustedIssuer(_issuer, _organization);\n    }\n\n    /**\n    * @dev Returns true if the caller is a trusted issuer\n    */\n    function isTrustedIssuer() public view returns (bool isTrusted) {\n        return issuers[issuersMapping[msg.sender]].trusted;\n    }\n\n    /**\n    * @dev Throws if called by any account other than a trusted issuer.\n    */\n    modifier onlyTrustedIssuer() {\n        require(isTrustedIssuer(), 'Issuer is not trusted.');\n        _;\n    }\n\n    /**\n    * Create an untrusted issuer.\n    */\n    function _forgeIssuer(address _issuer, string memory _organization) internal returns (Issuer memory) {\n        Issuer memory newIssuer = Issuer(_issuer, _organization, false, true);\n        uint id = issuers.push(newIssuer) - 1;\n        issuersMapping[_issuer] = id ;\n\n        return newIssuer;\n    }\n\n    /**\n    * Create a certificate, do some magic and return its id.\n    */\n    function _forgeCertificate(address _issuer, address _owner, string memory _title, string memory _certHash) internal returns (uint certificateId) {\n        Certificate memory certificate = Certificate(_issuer, _owner, _title, _certHash, now, true);\n        uint id = certificates.push(certificate) - 1;\n        certificateHashToCertificate[_certHash] = id;\n\n        certificateCount[_owner]++;\n        issuedCertificateCount[msg.sender]++;\n\n        return id;\n    }\n\n    /**\n    * @dev Issue a new certificate from input data (only trusted issuer)\n    */\n    function issueCertificate(address _owner, string memory _title, string memory _certHash) public onlyTrustedIssuer {\n        uint certId = _forgeCertificate(issuers[issuersMapping[msg.sender]].issuer, _owner, _title, _certHash);\n        emit CertificateStored(certId, _title);\n    }\n\n    /**\n    * @dev Returns true and the certificate id if the given certificate hash and the pretended owner match\n    */\n    function authenticateHash(string memory _certHash, address _pretendedOwner) public view returns (bool authenticated, uint authenticatedCertificateId) {\n        uint certId = certificateHashToCertificate[_certHash];\n\n        if(certificates[certId].exist == true && certificates[certId].owner == _pretendedOwner) {\n            return (true, certId);\n        }\n        return (false, 0);\n    }\n}\n",
  "sourcePath": "/home/guillaume/Ynov/M1_Blockchain/certynov/certynov/contracts/CertificateStoreCore.sol",
  "compiler": {
    "name": "solc",
    "version": "0.5.16+commit.9c3226ce.Emscripten.clang"
  },
  "schemaVersion": "3.0.23",
  "updatedAt": "2020-04-12T17:14:36.335Z",
  "devdoc": {
    "methods": {
      "addIssuer(address,string)": {
        "details": "Add a new trusted issuer"
      },
      "authenticateHash(string,address)": {
        "details": "Returns true and the certificate id if the given certificate hash and the pretended owner match"
      },
      "isOwner()": {
        "details": "Returns true if the caller is the current owner."
      },
      "isTrustedIssuer()": {
        "details": "Returns true if the caller is a trusted issuer"
      },
      "issueCertificate(address,string,string)": {
        "details": "Issue a new certificate from input data (only trusted issuer)"
      },
      "owner()": {
        "details": "Returns the address of the current owner."
      },
      "renounceOwnership()": {
        "details": "Leaves the contract without owner. It will not be possible to call `onlyOwner` functions anymore. Can only be called by the current owner.     * NOTE: Renouncing ownership will leave the contract without an owner, thereby removing any functionality that is only available to the owner."
      },
      "revokeIssuer(address,string)": {
        "details": "Revoke an existing issuer"
      },
      "transferOwnership(address)": {
        "details": "Transfers ownership of the contract to a new account (`newOwner`). Can only be called by the current owner."
      }
    }
  },
  "userdoc": {
    "methods": {}
  }
}