{
  "contractName": "CertificateStore",
  "abi": [
    {
      "anonymous": false,
      "inputs": [
        {
          "indexed": false,
          "internalType": "uint256",
          "name": "_id",
          "type": "uint256"
        },
        {
          "indexed": false,
          "internalType": "string",
          "name": "_title",
          "type": "string"
        }
      ],
      "name": "CertificateStored",
      "type": "event"
    },
    {
      "anonymous": false,
      "inputs": [
        {
          "indexed": true,
          "internalType": "address",
          "name": "previousOwner",
          "type": "address"
        },
        {
          "indexed": true,
          "internalType": "address",
          "name": "newOwner",
          "type": "address"
        }
      ],
      "name": "OwnershipTransferred",
      "type": "event"
    },
    {
      "anonymous": false,
      "inputs": [
        {
          "indexed": false,
          "internalType": "address",
          "name": "_issuer",
          "type": "address"
        },
        {
          "indexed": false,
          "internalType": "string",
          "name": "_organization",
          "type": "string"
        }
      ],
      "name": "TrustedIssuer",
      "type": "event"
    },
    {
      "anonymous": false,
      "inputs": [
        {
          "indexed": false,
          "internalType": "address",
          "name": "_issuer",
          "type": "address"
        },
        {
          "indexed": false,
          "internalType": "string",
          "name": "_organization",
          "type": "string"
        }
      ],
      "name": "UntrustedIssuer",
      "type": "event"
    },
    {
      "constant": false,
      "inputs": [
        {
          "internalType": "address",
          "name": "_issuer",
          "type": "address"
        },
        {
          "internalType": "string",
          "name": "_organization",
          "type": "string"
        }
      ],
      "name": "addIssuer",
      "outputs": [],
      "payable": false,
      "stateMutability": "nonpayable",
      "type": "function"
    },
    {
      "constant": true,
      "inputs": [
        {
          "internalType": "string",
          "name": "_certHash",
          "type": "string"
        },
        {
          "internalType": "address",
          "name": "_pretendedOwner",
          "type": "address"
        }
      ],
      "name": "authenticateHash",
      "outputs": [
        {
          "internalType": "bool",
          "name": "authenticated",
          "type": "bool"
        },
        {
          "internalType": "uint256",
          "name": "authenticatedCertificateId",
          "type": "uint256"
        }
      ],
      "payable": false,
      "stateMutability": "view",
      "type": "function"
    },
    {
      "constant": true,
      "inputs": [
        {
          "internalType": "uint256",
          "name": "",
          "type": "uint256"
        }
      ],
      "name": "certificates",
      "outputs": [
        {
          "internalType": "address",
          "name": "issuer",
          "type": "address"
        },
        {
          "internalType": "address",
          "name": "owner",
          "type": "address"
        },
        {
          "internalType": "string",
          "name": "title",
          "type": "string"
        },
        {
          "internalType": "string",
          "name": "certificateHash",
          "type": "string"
        },
        {
          "internalType": "uint256",
          "name": "issuedAt",
          "type": "uint256"
        },
        {
          "internalType": "bool",
          "name": "exist",
          "type": "bool"
        }
      ],
      "payable": false,
      "stateMutability": "view",
      "type": "function"
    },
    {
      "constant": true,
      "inputs": [],
      "name": "isOwner",
      "outputs": [
        {
          "internalType": "bool",
          "name": "",
          "type": "bool"
        }
      ],
      "payable": false,
      "stateMutability": "view",
      "type": "function"
    },
    {
      "constant": true,
      "inputs": [],
      "name": "isTrustedIssuer",
      "outputs": [
        {
          "internalType": "bool",
          "name": "isTrusted",
          "type": "bool"
        }
      ],
      "payable": false,
      "stateMutability": "view",
      "type": "function"
    },
    {
      "constant": false,
      "inputs": [
        {
          "internalType": "address",
          "name": "_owner",
          "type": "address"
        },
        {
          "internalType": "string",
          "name": "_title",
          "type": "string"
        },
        {
          "internalType": "string",
          "name": "_certHash",
          "type": "string"
        }
      ],
      "name": "issueCertificate",
      "outputs": [],
      "payable": false,
      "stateMutability": "nonpayable",
      "type": "function"
    },
    {
      "constant": true,
      "inputs": [],
      "name": "owner",
      "outputs": [
        {
          "internalType": "address",
          "name": "",
          "type": "address"
        }
      ],
      "payable": false,
      "stateMutability": "view",
      "type": "function"
    },
    {
      "constant": false,
      "inputs": [],
      "name": "renounceOwnership",
      "outputs": [],
      "payable": false,
      "stateMutability": "nonpayable",
      "type": "function"
    },
    {
      "constant": false,
      "inputs": [
        {
          "internalType": "address",
          "name": "_issuer",
          "type": "address"
        },
        {
          "internalType": "string",
          "name": "_organization",
          "type": "string"
        }
      ],
      "name": "revokeIssuer",
      "outputs": [],
      "payable": false,
      "stateMutability": "nonpayable",
      "type": "function"
    },
    {
      "constant": false,
      "inputs": [
        {
          "internalType": "address",
          "name": "newOwner",
          "type": "address"
        }
      ],
      "name": "transferOwnership",
      "outputs": [],
      "payable": false,
      "stateMutability": "nonpayable",
      "type": "function"
    },
    {
      "constant": true,
      "inputs": [
        {
          "internalType": "uint256",
          "name": "_certId",
          "type": "uint256"
        }
      ],
      "name": "getCertificateById",
      "outputs": [
        {
          "components": [
            {
              "internalType": "address",
              "name": "issuer",
              "type": "address"
            },
            {
              "internalType": "address",
              "name": "owner",
              "type": "address"
            },
            {
              "internalType": "string",
              "name": "title",
              "type": "string"
            },
            {
              "internalType": "string",
              "name": "certificateHash",
              "type": "string"
            },
            {
              "internalType": "uint256",
              "name": "issuedAt",
              "type": "uint256"
            },
            {
              "internalType": "bool",
              "name": "exist",
              "type": "bool"
            }
          ],
          "internalType": "struct CertificateStoreCore.Certificate",
          "name": "allCertificates",
          "type": "tuple"
        }
      ],
      "payable": false,
      "stateMutability": "view",
      "type": "function"
    },
    {
      "constant": true,
      "inputs": [],
      "name": "getOwnedCertificatesId",
      "outputs": [
        {
          "internalType": "uint256[]",
          "name": "ownedCertificates",
          "type": "uint256[]"
        }
      ],
      "payable": false,
      "stateMutability": "view",
      "type": "function"
    },
    {
      "constant": true,
      "inputs": [],
      "name": "getIssuers",
      "outputs": [
        {
          "components": [
            {
              "internalType": "address",
              "name": "issuer",
              "type": "address"
            },
            {
              "internalType": "string",
              "name": "organization",
              "type": "string"
            },
            {
              "internalType": "bool",
              "name": "trusted",
              "type": "bool"
            },
            {
              "internalType": "bool",
              "name": "exist",
              "type": "bool"
            }
          ],
          "internalType": "struct CertificateStoreCore.Issuer[]",
          "name": "",
          "type": "tuple[]"
        }
      ],
      "payable": false,
      "stateMutability": "view",
      "type": "function"
    }
  ],
  "bytecode": "0x6080604052600062000016620001af60201b60201c565b9050806000806101000a81548173ffffffffffffffffffffffffffffffffffffffff021916908373ffffffffffffffffffffffffffffffffffffffff1602179055508073ffffffffffffffffffffffffffffffffffffffff16600073ffffffffffffffffffffffffffffffffffffffff167f8be0079c531659141344cd1fd0a4f28419497f9722a3daafe3b4186f6b6457e060405160405180910390a350620000be620005c5565b62000114620000d2620001b760201b60201c565b6040518060400160405280600781526020017f4365727469665900000000000000000000000000000000000000000000000000815250620001e060201b60201c565b9050620001a781600001516200012f620001b760201b60201c565b6040518060400160405280601481526020017f4f524947494e414c5f43455254494649434154450000000000000000000000008152506040518060400160405280601481526020017f4f524947494e414c5f43455254494649434154450000000000000000000000008152506200035f60201b60201c565b5050620007b6565b600033905090565b60008060009054906101000a900473ffffffffffffffffffffffffffffffffffffffff16905090565b620001ea620005c5565b620001f4620005c5565b60405180608001604052808573ffffffffffffffffffffffffffffffffffffffff168152602001848152602001600015158152602001600115158152509050600060016002839080600181540180825580915050906001820390600052602060002090600302016000909192909190915060008201518160000160006101000a81548173ffffffffffffffffffffffffffffffffffffffff021916908373ffffffffffffffffffffffffffffffffffffffff1602179055506020820151816001019080519060200190620002ca92919062000607565b5060408201518160020160006101000a81548160ff02191690831515021790555060608201518160020160016101000a81548160ff021916908315150217905550505003905080600460008773ffffffffffffffffffffffffffffffffffffffff1673ffffffffffffffffffffffffffffffffffffffff16815260200190815260200160002081905550819250505092915050565b60006200036b6200068e565b6040518060c001604052808773ffffffffffffffffffffffffffffffffffffffff1681526020018673ffffffffffffffffffffffffffffffffffffffff1681526020018581526020018481526020014281526020016001151581525090506000600180839080600181540180825580915050906001820390600052602060002090600602016000909192909190915060008201518160000160006101000a81548173ffffffffffffffffffffffffffffffffffffffff021916908373ffffffffffffffffffffffffffffffffffffffff16021790555060208201518160010160006101000a81548173ffffffffffffffffffffffffffffffffffffffff021916908373ffffffffffffffffffffffffffffffffffffffff1602179055506040820151816002019080519060200190620004a692919062000607565b506060820151816003019080519060200190620004c592919062000607565b506080820151816004015560a08201518160050160006101000a81548160ff02191690831515021790555050500390508060038560405162000508919062000751565b908152602001604051809103902081905550600560008773ffffffffffffffffffffffffffffffffffffffff1673ffffffffffffffffffffffffffffffffffffffff16815260200190815260200160002060008154809291906001019190505550600660003373ffffffffffffffffffffffffffffffffffffffff1673ffffffffffffffffffffffffffffffffffffffff168152602001908152602001600020600081548092919060010191905055508092505050949350505050565b6040518060800160405280600073ffffffffffffffffffffffffffffffffffffffff168152602001606081526020016000151581526020016000151581525090565b828054600181600116156101000203166002900490600052602060002090601f016020900481019282601f106200064a57805160ff19168380011785556200067b565b828001600101855582156200067b579182015b828111156200067a5782518255916020019190600101906200065d565b5b5090506200068a9190620006f2565b5090565b6040518060c00160405280600073ffffffffffffffffffffffffffffffffffffffff168152602001600073ffffffffffffffffffffffffffffffffffffffff1681526020016060815260200160608152602001600081526020016000151581525090565b6200071791905b8082111562000713576000816000905550600101620006f9565b5090565b90565b600062000727826200076a565b62000733818562000775565b93506200074581856020860162000780565b80840191505092915050565b60006200075f82846200071a565b915081905092915050565b600081519050919050565b600081905092915050565b60005b83811015620007a057808201518184015260208101905062000783565b83811115620007b0576000848401525b50505050565b61218b80620007c66000396000f3fe608060405234801561001057600080fd5b50600436106100cf5760003560e01c80638da5cb5b1161008c5780639d735caf116100665780639d735caf146101f4578063a594da9514610224578063e98ac4d814610242578063f2fde38b1461025e576100cf565b80638da5cb5b1461019c5780638f32d59b146101ba5780638fc0859a146101d8576100cf565b80632b43c5f1146100d45780633aceed30146100f057806364b3300314610121578063663b3e221461013f578063715018a6146101745780638d0624581461017e575b600080fd5b6100ee60048036036100e99190810190611808565b61027a565b005b61010a600480360361010591908101906118db565b6103f5565b604051610118929190611e96565b60405180910390f35b6101296104e8565b6040516101369190611e59565b60405180910390f35b6101596004803603610154919081019061192f565b61062a565b60405161016b96959493929190611d98565b60405180910390f35b61017c6107f0565b005b6101866108f6565b6040516101939190611e7b565b60405180910390f35b6101a4610968565b6040516101b19190611d7d565b60405180910390f35b6101c2610991565b6040516101cf9190611e7b565b60405180910390f35b6101f260048036036101ed9190810190611808565b6109ef565b005b61020e6004803603610209919081019061192f565b610b85565b60405161021b9190611f1f565b60405180910390f35b61022c610dcf565b6040516102399190611e37565b60405180910390f35b61025c6004803603610257919081019061185c565b610fa3565b005b610278600480360361027391908101906117df565b6110b6565b005b610282610991565b6102c1576040517f08c379a00000000000000000000000000000000000000000000000000000000081526004016102b890611eff565b60405180910390fd5b6002600460008473ffffffffffffffffffffffffffffffffffffffff1673ffffffffffffffffffffffffffffffffffffffff168152602001908152602001600020548154811061030d57fe5b906000526020600020906003020160020160019054906101000a900460ff16156103ac5760006002600460008573ffffffffffffffffffffffffffffffffffffffff1673ffffffffffffffffffffffffffffffffffffffff168152602001908152602001600020548154811061037f57fe5b906000526020600020906003020160020160006101000a81548160ff0219169083151502179055506103b8565b6103b68282611109565b505b7f731003ff9638e352f896124100670675e1e4322e7dfc0fe1fb311969e6f94bf782826040516103e9929190611e07565b60405180910390a15050565b600080600060038560405161040a9190611d66565b9081526020016040518091039020549050600115156001828154811061042c57fe5b906000526020600020906006020160050160009054906101000a900460ff1615151480156104c357508373ffffffffffffffffffffffffffffffffffffffff166001828154811061047957fe5b906000526020600020906006020160010160009054906101000a900473ffffffffffffffffffffffffffffffffffffffff1673ffffffffffffffffffffffffffffffffffffffff16145b156104d55760018192509250506104e1565b60008080905092509250505b9250929050565b606080600560003373ffffffffffffffffffffffffffffffffffffffff1673ffffffffffffffffffffffffffffffffffffffff168152602001908152602001600020546040519080825280602002602001820160405280156105595781602001602082028038833980820191505090505b509050600080905060008090505b6001805490508110801561057b5750825182105b15610621573373ffffffffffffffffffffffffffffffffffffffff16600182815481106105a457fe5b906000526020600020906006020160010160009054906101000a900473ffffffffffffffffffffffffffffffffffffffff1673ffffffffffffffffffffffffffffffffffffffff16141561061457808383815181106105ff57fe5b60200260200101818152505081806001019250505b8080600101915050610567565b50819250505090565b6001818154811061063757fe5b90600052602060002090600602016000915090508060000160009054906101000a900473ffffffffffffffffffffffffffffffffffffffff16908060010160009054906101000a900473ffffffffffffffffffffffffffffffffffffffff1690806002018054600181600116156101000203166002900480601f01602080910402602001604051908101604052809291908181526020018280546001816001161561010002031660029004801561072f5780601f106107045761010080835404028352916020019161072f565b820191906000526020600020905b81548152906001019060200180831161071257829003601f168201915b505050505090806003018054600181600116156101000203166002900480601f0160208091040260200160405190810160405280929190818152602001828054600181600116156101000203166002900480156107cd5780601f106107a2576101008083540402835291602001916107cd565b820191906000526020600020905b8154815290600101906020018083116107b057829003601f168201915b5050505050908060040154908060050160009054906101000a900460ff16905086565b6107f8610991565b610837576040517f08c379a000000000000000000000000000000000000000000000000000000000815260040161082e90611eff565b60405180910390fd5b600073ffffffffffffffffffffffffffffffffffffffff166000809054906101000a900473ffffffffffffffffffffffffffffffffffffffff1673ffffffffffffffffffffffffffffffffffffffff167f8be0079c531659141344cd1fd0a4f28419497f9722a3daafe3b4186f6b6457e060405160405180910390a360008060006101000a81548173ffffffffffffffffffffffffffffffffffffffff021916908373ffffffffffffffffffffffffffffffffffffffff160217905550565b60006002600460003373ffffffffffffffffffffffffffffffffffffffff1673ffffffffffffffffffffffffffffffffffffffff168152602001908152602001600020548154811061094457fe5b906000526020600020906003020160020160009054906101000a900460ff16905090565b60008060009054906101000a900473ffffffffffffffffffffffffffffffffffffffff16905090565b60008060009054906101000a900473ffffffffffffffffffffffffffffffffffffffff1673ffffffffffffffffffffffffffffffffffffffff166109d3611282565b73ffffffffffffffffffffffffffffffffffffffff1614905090565b6109f7610991565b610a36576040517f08c379a0000000000000000000000000000000000000000000000000000000008152600401610a2d90611eff565b60405180910390fd5b6002600460008473ffffffffffffffffffffffffffffffffffffffff1673ffffffffffffffffffffffffffffffffffffffff1681526020019081526020016000205481548110610a8257fe5b906000526020600020906003020160020160019054906101000a900460ff1615610b215760016002600460008573ffffffffffffffffffffffffffffffffffffffff1673ffffffffffffffffffffffffffffffffffffffff1681526020019081526020016000205481548110610af457fe5b906000526020600020906003020160020160006101000a81548160ff021916908315150217905550610b48565b610b29611616565b610b338383611109565b90506001816040019015159081151581525050505b7f71f25247d01355f495505e8ea75c6b650f7c2b9a0c1906032ea56f503645e35e8282604051610b79929190611e07565b60405180910390a15050565b610b8d611658565b60018281548110610b9a57fe5b90600052602060002090600602016040518060c00160405290816000820160009054906101000a900473ffffffffffffffffffffffffffffffffffffffff1673ffffffffffffffffffffffffffffffffffffffff1673ffffffffffffffffffffffffffffffffffffffff1681526020016001820160009054906101000a900473ffffffffffffffffffffffffffffffffffffffff1673ffffffffffffffffffffffffffffffffffffffff1673ffffffffffffffffffffffffffffffffffffffff168152602001600282018054600181600116156101000203166002900480601f016020809104026020016040519081016040528092919081815260200182805460018160011615610100020316600290048015610cf85780601f10610ccd57610100808354040283529160200191610cf8565b820191906000526020600020905b815481529060010190602001808311610cdb57829003601f168201915b50505050508152602001600382018054600181600116156101000203166002900480601f016020809104026020016040519081016040528092919081815260200182805460018160011615610100020316600290048015610d9a5780601f10610d6f57610100808354040283529160200191610d9a565b820191906000526020600020905b815481529060010190602001808311610d7d57829003601f168201915b50505050508152602001600482015481526020016005820160009054906101000a900460ff1615151515815250509050919050565b6060610dd9610991565b610e18576040517f08c379a0000000000000000000000000000000000000000000000000000000008152600401610e0f90611eff565b60405180910390fd5b6002805480602002602001604051908101604052809291908181526020016000905b82821015610f9a57838290600052602060002090600302016040518060800160405290816000820160009054906101000a900473ffffffffffffffffffffffffffffffffffffffff1673ffffffffffffffffffffffffffffffffffffffff1673ffffffffffffffffffffffffffffffffffffffff168152602001600182018054600181600116156101000203166002900480601f016020809104026020016040519081016040528092919081815260200182805460018160011615610100020316600290048015610f4c5780601f10610f2157610100808354040283529160200191610f4c565b820191906000526020600020905b815481529060010190602001808311610f2f57829003601f168201915b505050505081526020016002820160009054906101000a900460ff161515151581526020016002820160019054906101000a900460ff16151515158152505081526020019060010190610e3a565b50505050905090565b610fab6108f6565b610fea576040517f08c379a0000000000000000000000000000000000000000000000000000000008152600401610fe190611ebf565b60405180910390fd5b60006110756002600460003373ffffffffffffffffffffffffffffffffffffffff1673ffffffffffffffffffffffffffffffffffffffff168152602001908152602001600020548154811061103b57fe5b906000526020600020906003020160000160009054906101000a900473ffffffffffffffffffffffffffffffffffffffff1685858561128a565b90507f33a43a5f40642b7962e152d8df96057d081da4482e7adef69ddf86e2dc9ae71181846040516110a8929190611f41565b60405180910390a150505050565b6110be610991565b6110fd576040517f08c379a00000000000000000000000000000000000000000000000000000000081526004016110f490611eff565b60405180910390fd5b611106816114e8565b50565b611111611616565b611119611616565b60405180608001604052808573ffffffffffffffffffffffffffffffffffffffff168152602001848152602001600015158152602001600115158152509050600060016002839080600181540180825580915050906001820390600052602060002090600302016000909192909190915060008201518160000160006101000a81548173ffffffffffffffffffffffffffffffffffffffff021916908373ffffffffffffffffffffffffffffffffffffffff16021790555060208201518160010190805190602001906111ed9291906116bc565b5060408201518160020160006101000a81548160ff02191690831515021790555060608201518160020160016101000a81548160ff021916908315150217905550505003905080600460008773ffffffffffffffffffffffffffffffffffffffff1673ffffffffffffffffffffffffffffffffffffffff16815260200190815260200160002081905550819250505092915050565b600033905090565b6000611294611658565b6040518060c001604052808773ffffffffffffffffffffffffffffffffffffffff1681526020018673ffffffffffffffffffffffffffffffffffffffff1681526020018581526020018481526020014281526020016001151581525090506000600180839080600181540180825580915050906001820390600052602060002090600602016000909192909190915060008201518160000160006101000a81548173ffffffffffffffffffffffffffffffffffffffff021916908373ffffffffffffffffffffffffffffffffffffffff16021790555060208201518160010160006101000a81548173ffffffffffffffffffffffffffffffffffffffff021916908373ffffffffffffffffffffffffffffffffffffffff16021790555060408201518160020190805190602001906113cd9291906116bc565b5060608201518160030190805190602001906113ea9291906116bc565b506080820151816004015560a08201518160050160006101000a81548160ff02191690831515021790555050500390508060038560405161142b9190611d66565b908152602001604051809103902081905550600560008773ffffffffffffffffffffffffffffffffffffffff1673ffffffffffffffffffffffffffffffffffffffff16815260200190815260200160002060008154809291906001019190505550600660003373ffffffffffffffffffffffffffffffffffffffff1673ffffffffffffffffffffffffffffffffffffffff168152602001908152602001600020600081548092919060010191905055508092505050949350505050565b600073ffffffffffffffffffffffffffffffffffffffff168173ffffffffffffffffffffffffffffffffffffffff161415611558576040517f08c379a000000000000000000000000000000000000000000000000000000000815260040161154f90611edf565b60405180910390fd5b8073ffffffffffffffffffffffffffffffffffffffff166000809054906101000a900473ffffffffffffffffffffffffffffffffffffffff1673ffffffffffffffffffffffffffffffffffffffff167f8be0079c531659141344cd1fd0a4f28419497f9722a3daafe3b4186f6b6457e060405160405180910390a3806000806101000a81548173ffffffffffffffffffffffffffffffffffffffff021916908373ffffffffffffffffffffffffffffffffffffffff16021790555050565b6040518060800160405280600073ffffffffffffffffffffffffffffffffffffffff168152602001606081526020016000151581526020016000151581525090565b6040518060c00160405280600073ffffffffffffffffffffffffffffffffffffffff168152602001600073ffffffffffffffffffffffffffffffffffffffff1681526020016060815260200160608152602001600081526020016000151581525090565b828054600181600116156101000203166002900490600052602060002090601f016020900481019282601f106116fd57805160ff191683800117855561172b565b8280016001018555821561172b579182015b8281111561172a57825182559160200191906001019061170f565b5b509050611738919061173c565b5090565b61175e91905b8082111561175a576000816000905550600101611742565b5090565b90565b6000813590506117708161211a565b92915050565b600082601f83011261178757600080fd5b813561179a61179582611f9e565b611f71565b915080825260208301602083018583830111156117b657600080fd5b6117c18382846120c7565b50505092915050565b6000813590506117d981612131565b92915050565b6000602082840312156117f157600080fd5b60006117ff84828501611761565b91505092915050565b6000806040838503121561181b57600080fd5b600061182985828601611761565b925050602083013567ffffffffffffffff81111561184657600080fd5b61185285828601611776565b9150509250929050565b60008060006060848603121561187157600080fd5b600061187f86828701611761565b935050602084013567ffffffffffffffff81111561189c57600080fd5b6118a886828701611776565b925050604084013567ffffffffffffffff8111156118c557600080fd5b6118d186828701611776565b9150509250925092565b600080604083850312156118ee57600080fd5b600083013567ffffffffffffffff81111561190857600080fd5b61191485828601611776565b925050602061192585828601611761565b9150509250929050565b60006020828403121561194157600080fd5b600061194f848285016117ca565b91505092915050565b60006119648383611ce5565b905092915050565b60006119788383611d48565b60208301905092915050565b61198d8161207f565b82525050565b61199c8161207f565b82525050565b60006119ad82611fea565b6119b78185612030565b9350836020820285016119c985611fca565b8060005b85811015611a0557848403895281516119e68582611958565b94506119f183612016565b925060208a019950506001810190506119cd565b50829750879550505050505092915050565b6000611a2282611ff5565b611a2c8185612041565b9350611a3783611fda565b8060005b83811015611a68578151611a4f888261196c565b9750611a5a83612023565b925050600181019050611a3b565b5085935050505092915050565b611a7e81612091565b82525050565b611a8d81612091565b82525050565b6000611a9e8261200b565b611aa88185612063565b9350611ab88185602086016120d6565b611ac181612109565b840191505092915050565b6000611ad78261200b565b611ae18185612074565b9350611af18185602086016120d6565b80840191505092915050565b6000611b0882612000565b611b128185612052565b9350611b228185602086016120d6565b611b2b81612109565b840191505092915050565b6000611b4182612000565b611b4b8185612063565b9350611b5b8185602086016120d6565b611b6481612109565b840191505092915050565b6000611b7c601683612063565b91507f497373756572206973206e6f7420747275737465642e000000000000000000006000830152602082019050919050565b6000611bbc602683612063565b91507f4f776e61626c653a206e6577206f776e657220697320746865207a65726f206160008301527f64647265737300000000000000000000000000000000000000000000000000006020830152604082019050919050565b6000611c22602083612063565b91507f4f776e61626c653a2063616c6c6572206973206e6f7420746865206f776e65726000830152602082019050919050565b600060c083016000830151611c6d6000860182611984565b506020830151611c806020860182611984565b5060408301518482036040860152611c988282611afd565b91505060608301518482036060860152611cb28282611afd565b9150506080830151611cc76080860182611d48565b5060a0830151611cda60a0860182611a75565b508091505092915050565b6000608083016000830151611cfd6000860182611984565b5060208301518482036020860152611d158282611afd565b9150506040830151611d2a6040860182611a75565b506060830151611d3d6060860182611a75565b508091505092915050565b611d51816120bd565b82525050565b611d60816120bd565b82525050565b6000611d728284611acc565b915081905092915050565b6000602082019050611d926000830184611993565b92915050565b600060c082019050611dad6000830189611993565b611dba6020830188611993565b8181036040830152611dcc8187611b36565b90508181036060830152611de08186611b36565b9050611def6080830185611d57565b611dfc60a0830184611a84565b979650505050505050565b6000604082019050611e1c6000830185611993565b8181036020830152611e2e8184611a93565b90509392505050565b60006020820190508181036000830152611e5181846119a2565b905092915050565b60006020820190508181036000830152611e738184611a17565b905092915050565b6000602082019050611e906000830184611a84565b92915050565b6000604082019050611eab6000830185611a84565b611eb86020830184611d57565b9392505050565b60006020820190508181036000830152611ed881611b6f565b9050919050565b60006020820190508181036000830152611ef881611baf565b9050919050565b60006020820190508181036000830152611f1881611c15565b9050919050565b60006020820190508181036000830152611f398184611c55565b905092915050565b6000604082019050611f566000830185611d57565b8181036020830152611f688184611a93565b90509392505050565b6000604051905081810181811067ffffffffffffffff82111715611f9457600080fd5b8060405250919050565b600067ffffffffffffffff821115611fb557600080fd5b601f19601f8301169050602081019050919050565b6000819050602082019050919050565b6000819050602082019050919050565b600081519050919050565b600081519050919050565b600081519050919050565b600081519050919050565b6000602082019050919050565b6000602082019050919050565b600082825260208201905092915050565b600082825260208201905092915050565b600082825260208201905092915050565b600082825260208201905092915050565b600081905092915050565b600061208a8261209d565b9050919050565b60008115159050919050565b600073ffffffffffffffffffffffffffffffffffffffff82169050919050565b6000819050919050565b82818337600083830152505050565b60005b838110156120f45780820151818401526020810190506120d9565b83811115612103576000848401525b50505050565b6000601f19601f8301169050919050565b6121238161207f565b811461212e57600080fd5b50565b61213a816120bd565b811461214557600080fd5b5056fea365627a7a723158206155c19872a3edd56da3123fd7d1fd67bf8c3d2a61922ac946212af11005f6456c6578706572696d656e74616cf564736f6c63430005100040",
  "source": "pragma solidity >=0.5.0 <0.6.0;\npragma experimental ABIEncoderV2;\n\nimport \"./CertificateStoreCore.sol\";\n\ncontract CertificateStore is CertificateStoreCore {\n    /**\n    * @dev Return certificate matching th given id;\n    */\n    function getCertificateById(uint _certId) public view returns(Certificate memory allCertificates) {\n        return certificates[_certId];\n    }\n\n    /**\n    * @dev Returns certificates owned by the caller\n    */\n    function getOwnedCertificatesId() public view returns (uint[] memory ownedCertificates) {\n        uint[] memory _ownedCertificates = new uint[](certificateCount[msg.sender]);\n        uint current = 0;\n\n        for (uint i = 0; i < certificates.length && current < _ownedCertificates.length; i++) {\n            if (certificates[i].owner == msg.sender) {\n                _ownedCertificates[current] = i;\n                current++;\n            }\n        }\n\n        return _ownedCertificates;\n    }\n\n    /**\n    * @dev Returns all issuers\n    */\n    function getIssuers() public view onlyOwner returns (Issuer[] memory) {\n        return issuers;\n    }\n}\n",
  "sourcePath": "/home/guillaume/Ynov/M1_Blockchain/certynov/certynov/contracts/CertificateStore.sol",
  "compiler": {
    "name": "solc",
    "version": "0.5.16+commit.9c3226ce.Emscripten.clang"
  },
  "schemaVersion": "3.0.23",
  "updatedAt": "2020-04-12T17:14:37.108Z",
  "networkType": "ethereum",
  "devdoc": {
    "methods": {
      "addIssuer(address,string)": {
        "details": "Add a new trusted issuer"
      },
      "authenticateHash(string,address)": {
        "details": "Returns true and the certificate id if the given certificate hash and the pretended owner match"
      },
      "getCertificateById(uint256)": {
        "details": "Return certificate matching th given id;"
      },
      "getIssuers()": {
        "details": "Returns all issuers"
      },
      "getOwnedCertificatesId()": {
        "details": "Returns certificates owned by the caller"
      },
      "isOwner()": {
        "details": "Returns true if the caller is the current owner."
      },
      "isTrustedIssuer()": {
        "details": "Returns true if the caller is a trusted issuer"
      },
      "issueCertificate(address,string,string)": {
        "details": "Issue a new certificate from input data (only trusted issuer)"
      },
      "owner()": {
        "details": "Returns the address of the current owner."
      },
      "renounceOwnership()": {
        "details": "Leaves the contract without owner. It will not be possible to call `onlyOwner` functions anymore. Can only be called by the current owner.     * NOTE: Renouncing ownership will leave the contract without an owner, thereby removing any functionality that is only available to the owner."
      },
      "revokeIssuer(address,string)": {
        "details": "Revoke an existing issuer"
      },
      "transferOwnership(address)": {
        "details": "Transfers ownership of the contract to a new account (`newOwner`). Can only be called by the current owner."
      }
    }
  },
  "userdoc": {
    "methods": {}
  }
}