{
  "contractName": "CertificateStore",
  "abi": [
    {
      "anonymous": false,
      "inputs": [
        {
          "indexed": false,
          "internalType": "uint256",
          "name": "_id",
          "type": "uint256"
        },
        {
          "indexed": false,
          "internalType": "string",
          "name": "_title",
          "type": "string"
        }
      ],
      "name": "CertificateStored",
      "type": "event"
    },
    {
      "anonymous": false,
      "inputs": [
        {
          "indexed": true,
          "internalType": "address",
          "name": "previousOwner",
          "type": "address"
        },
        {
          "indexed": true,
          "internalType": "address",
          "name": "newOwner",
          "type": "address"
        }
      ],
      "name": "OwnershipTransferred",
      "type": "event"
    },
    {
      "constant": true,
      "inputs": [
        {
          "internalType": "uint256",
          "name": "",
          "type": "uint256"
        }
      ],
      "name": "certificates",
      "outputs": [
        {
          "internalType": "address",
          "name": "issuer",
          "type": "address"
        },
        {
          "internalType": "address",
          "name": "owner",
          "type": "address"
        },
        {
          "internalType": "string",
          "name": "title",
          "type": "string"
        },
        {
          "internalType": "string",
          "name": "certificateHash",
          "type": "string"
        },
        {
          "internalType": "uint256",
          "name": "issuedAt",
          "type": "uint256"
        }
      ],
      "payable": false,
      "stateMutability": "view",
      "type": "function"
    },
    {
      "constant": true,
      "inputs": [],
      "name": "isOwner",
      "outputs": [
        {
          "internalType": "bool",
          "name": "",
          "type": "bool"
        }
      ],
      "payable": false,
      "stateMutability": "view",
      "type": "function"
    },
    {
      "constant": true,
      "inputs": [],
      "name": "owner",
      "outputs": [
        {
          "internalType": "address",
          "name": "",
          "type": "address"
        }
      ],
      "payable": false,
      "stateMutability": "view",
      "type": "function"
    },
    {
      "constant": false,
      "inputs": [],
      "name": "renounceOwnership",
      "outputs": [],
      "payable": false,
      "stateMutability": "nonpayable",
      "type": "function"
    },
    {
      "constant": false,
      "inputs": [
        {
          "internalType": "address",
          "name": "newOwner",
          "type": "address"
        }
      ],
      "name": "transferOwnership",
      "outputs": [],
      "payable": false,
      "stateMutability": "nonpayable",
      "type": "function"
    },
    {
      "constant": false,
      "inputs": [
        {
          "internalType": "address",
          "name": "_issuer",
          "type": "address"
        }
      ],
      "name": "addIssuer",
      "outputs": [],
      "payable": false,
      "stateMutability": "nonpayable",
      "type": "function"
    },
    {
      "constant": false,
      "inputs": [
        {
          "internalType": "address",
          "name": "_issuer",
          "type": "address"
        }
      ],
      "name": "revokeIssuer",
      "outputs": [],
      "payable": false,
      "stateMutability": "nonpayable",
      "type": "function"
    },
    {
      "constant": true,
      "inputs": [],
      "name": "isTrustedIssuer",
      "outputs": [
        {
          "internalType": "bool",
          "name": "",
          "type": "bool"
        }
      ],
      "payable": false,
      "stateMutability": "view",
      "type": "function"
    },
    {
      "constant": false,
      "inputs": [
        {
          "internalType": "address",
          "name": "_owner",
          "type": "address"
        },
        {
          "internalType": "string",
          "name": "_title",
          "type": "string"
        },
        {
          "internalType": "string",
          "name": "_certHash",
          "type": "string"
        }
      ],
      "name": "issueCertificate",
      "outputs": [],
      "payable": false,
      "stateMutability": "nonpayable",
      "type": "function"
    },
    {
      "constant": true,
      "inputs": [
        {
          "internalType": "string",
          "name": "_certHash",
          "type": "string"
        },
        {
          "internalType": "address",
          "name": "_pretendedOwner",
          "type": "address"
        }
      ],
      "name": "authenticateHash",
      "outputs": [
        {
          "internalType": "bool",
          "name": "",
          "type": "bool"
        },
        {
          "components": [
            {
              "internalType": "address",
              "name": "issuer",
              "type": "address"
            },
            {
              "internalType": "address",
              "name": "owner",
              "type": "address"
            },
            {
              "internalType": "string",
              "name": "title",
              "type": "string"
            },
            {
              "internalType": "string",
              "name": "certificateHash",
              "type": "string"
            },
            {
              "internalType": "uint256",
              "name": "issuedAt",
              "type": "uint256"
            }
          ],
          "internalType": "struct CertificateStore.Certificate",
          "name": "",
          "type": "tuple"
        }
      ],
      "payable": false,
      "stateMutability": "view",
      "type": "function"
    },
    {
      "constant": true,
      "inputs": [],
      "name": "getOwnedCertificates",
      "outputs": [
        {
          "components": [
            {
              "internalType": "address",
              "name": "issuer",
              "type": "address"
            },
            {
              "internalType": "address",
              "name": "owner",
              "type": "address"
            },
            {
              "internalType": "string",
              "name": "title",
              "type": "string"
            },
            {
              "internalType": "string",
              "name": "certificateHash",
              "type": "string"
            },
            {
              "internalType": "uint256",
              "name": "issuedAt",
              "type": "uint256"
            }
          ],
          "internalType": "struct CertificateStore.Certificate[]",
          "name": "ownedCertificates",
          "type": "tuple[]"
        }
      ],
      "payable": false,
      "stateMutability": "view",
      "type": "function"
    }
  ],
  "bytecode": "0x608060405260006100146100b760201b60201c565b9050806000806101000a81548173ffffffffffffffffffffffffffffffffffffffff021916908373ffffffffffffffffffffffffffffffffffffffff1602179055508073ffffffffffffffffffffffffffffffffffffffff16600073ffffffffffffffffffffffffffffffffffffffff167f8be0079c531659141344cd1fd0a4f28419497f9722a3daafe3b4186f6b6457e060405160405180910390a3506100bf565b600033905090565b611bcc806100ce6000396000f3fe608060405234801561001057600080fd5b50600436106100a85760003560e01c80638d062458116100715780638d062458146101545780638da5cb5b146101725780638f32d59b14610190578063ace0ba9a146101ae578063e98ac4d8146101cc578063f2fde38b146101e8576100a8565b8062629679146100ad57806320694db0146100c95780633aceed30146100e5578063663b3e2214610116578063715018a61461014a575b600080fd5b6100c760048036036100c291908101906113a6565b610204565b005b6100e360048036036100de91908101906113a6565b6102a6565b005b6100ff60048036036100fa919081019061144e565b610348565b60405161010d92919061192b565b60405180910390f35b610130600480360361012b91908101906114a2565b610689565b60405161014195949392919061188d565b60405180910390f35b61015261083c565b005b61015c610942565b6040516101699190611910565b60405180910390f35b61017a610996565b6040516101879190611872565b60405180910390f35b6101986109bf565b6040516101a59190611910565b60405180910390f35b6101b6610a1d565b6040516101c391906118ee565b60405180910390f35b6101e660048036036101e191908101906113cf565b610d99565b005b61020260048036036101fd91908101906113a6565b611044565b005b61020c6109bf565b61024b576040517f08c379a00000000000000000000000000000000000000000000000000000000081526004016102429061199b565b60405180910390fd5b6000600360008373ffffffffffffffffffffffffffffffffffffffff1673ffffffffffffffffffffffffffffffffffffffff16815260200190815260200160002060006101000a81548160ff02191690831515021790555050565b6102ae6109bf565b6102ed576040517f08c379a00000000000000000000000000000000000000000000000000000000081526004016102e49061199b565b60405180910390fd5b6001600360008373ffffffffffffffffffffffffffffffffffffffff1673ffffffffffffffffffffffffffffffffffffffff16815260200190815260200160002060006101000a81548160ff02191690831515021790555050565b60006103526111cd565b6000600285604051610364919061185b565b908152602001604051809103902054905061037d6111cd565b6040518060a001604052803373ffffffffffffffffffffffffffffffffffffffff1681526020013373ffffffffffffffffffffffffffffffffffffffff168152602001604051806020016040528060008152508152602001604051806020016040528060008152508152602001428152509050600082141561040757600081935093505050610682565b61040f6111cd565b6001838154811061041c57fe5b90600052602060002090600502016040518060a00160405290816000820160009054906101000a900473ffffffffffffffffffffffffffffffffffffffff1673ffffffffffffffffffffffffffffffffffffffff1673ffffffffffffffffffffffffffffffffffffffff1681526020016001820160009054906101000a900473ffffffffffffffffffffffffffffffffffffffff1673ffffffffffffffffffffffffffffffffffffffff1673ffffffffffffffffffffffffffffffffffffffff168152602001600282018054600181600116156101000203166002900480601f01602080910402602001604051908101604052809291908181526020018280546001816001161561010002031660029004801561057a5780601f1061054f5761010080835404028352916020019161057a565b820191906000526020600020905b81548152906001019060200180831161055d57829003601f168201915b50505050508152602001600382018054600181600116156101000203166002900480601f01602080910402602001604051908101604052809291908181526020018280546001816001161561010002031660029004801561061c5780601f106105f15761010080835404028352916020019161061c565b820191906000526020600020905b8154815290600101906020018083116105ff57829003601f168201915b5050505050815260200160048201548152505090508573ffffffffffffffffffffffffffffffffffffffff16816020015173ffffffffffffffffffffffffffffffffffffffff16146106775760008294509450505050610682565b600181945094505050505b9250929050565b6001818154811061069657fe5b90600052602060002090600502016000915090508060000160009054906101000a900473ffffffffffffffffffffffffffffffffffffffff16908060010160009054906101000a900473ffffffffffffffffffffffffffffffffffffffff1690806002018054600181600116156101000203166002900480601f01602080910402602001604051908101604052809291908181526020018280546001816001161561010002031660029004801561078e5780601f106107635761010080835404028352916020019161078e565b820191906000526020600020905b81548152906001019060200180831161077157829003601f168201915b505050505090806003018054600181600116156101000203166002900480601f01602080910402602001604051908101604052809291908181526020018280546001816001161561010002031660029004801561082c5780601f106108015761010080835404028352916020019161082c565b820191906000526020600020905b81548152906001019060200180831161080f57829003601f168201915b5050505050908060040154905085565b6108446109bf565b610883576040517f08c379a000000000000000000000000000000000000000000000000000000000815260040161087a9061199b565b60405180910390fd5b600073ffffffffffffffffffffffffffffffffffffffff166000809054906101000a900473ffffffffffffffffffffffffffffffffffffffff1673ffffffffffffffffffffffffffffffffffffffff167f8be0079c531659141344cd1fd0a4f28419497f9722a3daafe3b4186f6b6457e060405160405180910390a360008060006101000a81548173ffffffffffffffffffffffffffffffffffffffff021916908373ffffffffffffffffffffffffffffffffffffffff160217905550565b6000600360003373ffffffffffffffffffffffffffffffffffffffff1673ffffffffffffffffffffffffffffffffffffffff16815260200190815260200160002060009054906101000a900460ff16905090565b60008060009054906101000a900473ffffffffffffffffffffffffffffffffffffffff16905090565b60008060009054906101000a900473ffffffffffffffffffffffffffffffffffffffff1673ffffffffffffffffffffffffffffffffffffffff16610a01611097565b73ffffffffffffffffffffffffffffffffffffffff1614905090565b606080600460003373ffffffffffffffffffffffffffffffffffffffff1673ffffffffffffffffffffffffffffffffffffffff16815260200190815260200160002054604051908082528060200260200182016040528015610a9957816020015b610a86611228565b815260200190600190039081610a7e5790505b50905060008090506000600180549050905060006001845103905060008090505b828111158015610aca5750818414155b15610d8e573373ffffffffffffffffffffffffffffffffffffffff1660018281548110610af357fe5b906000526020600020906005020160010160009054906101000a900473ffffffffffffffffffffffffffffffffffffffff1673ffffffffffffffffffffffffffffffffffffffff161415610d815760018181548110610b4e57fe5b90600052602060002090600502016040518060a00160405290816000820160009054906101000a900473ffffffffffffffffffffffffffffffffffffffff1673ffffffffffffffffffffffffffffffffffffffff1673ffffffffffffffffffffffffffffffffffffffff1681526020016001820160009054906101000a900473ffffffffffffffffffffffffffffffffffffffff1673ffffffffffffffffffffffffffffffffffffffff1673ffffffffffffffffffffffffffffffffffffffff168152602001600282018054600181600116156101000203166002900480601f016020809104026020016040519081016040528092919081815260200182805460018160011615610100020316600290048015610cac5780601f10610c8157610100808354040283529160200191610cac565b820191906000526020600020905b815481529060010190602001808311610c8f57829003601f168201915b50505050508152602001600382018054600181600116156101000203166002900480601f016020809104026020016040519081016040528092919081815260200182805460018160011615610100020316600290048015610d4e5780601f10610d2357610100808354040283529160200191610d4e565b820191906000526020600020905b815481529060010190602001808311610d3157829003601f168201915b50505050508152602001600482015481525050858581518110610d6d57fe5b602002602001018190525083806001019450505b8080600101915050610aba565b508394505050505090565b610da1610942565b610de0576040517f08c379a0000000000000000000000000000000000000000000000000000000008152600401610dd79061195b565b60405180910390fd5b610de86111cd565b6040518060a001604052803373ffffffffffffffffffffffffffffffffffffffff1681526020018573ffffffffffffffffffffffffffffffffffffffff16815260200184815260200183815260200142815250905060006001829080600181540180825580915050906001820390600052602060002090600502016000909192909190915060008201518160000160006101000a81548173ffffffffffffffffffffffffffffffffffffffff021916908373ffffffffffffffffffffffffffffffffffffffff16021790555060208201518160010160006101000a81548173ffffffffffffffffffffffffffffffffffffffff021916908373ffffffffffffffffffffffffffffffffffffffff1602179055506040820151816002019080519060200190610f17929190611283565b506060820151816003019080519060200190610f34929190611283565b50608082015181600401555050905080600284604051610f54919061185b565b908152602001604051809103902081905550600460008673ffffffffffffffffffffffffffffffffffffffff1673ffffffffffffffffffffffffffffffffffffffff16815260200190815260200160002060008154809291906001019190505550600560003373ffffffffffffffffffffffffffffffffffffffff1673ffffffffffffffffffffffffffffffffffffffff168152602001908152602001600020600081548092919060010191905055507f33a43a5f40642b7962e152d8df96057d081da4482e7adef69ddf86e2dc9ae71181856040516110359291906119bb565b60405180910390a15050505050565b61104c6109bf565b61108b576040517f08c379a00000000000000000000000000000000000000000000000000000000081526004016110829061199b565b60405180910390fd5b6110948161109f565b50565b600033905090565b600073ffffffffffffffffffffffffffffffffffffffff168173ffffffffffffffffffffffffffffffffffffffff16141561110f576040517f08c379a00000000000000000000000000000000000000000000000000000000081526004016111069061197b565b60405180910390fd5b8073ffffffffffffffffffffffffffffffffffffffff166000809054906101000a900473ffffffffffffffffffffffffffffffffffffffff1673ffffffffffffffffffffffffffffffffffffffff167f8be0079c531659141344cd1fd0a4f28419497f9722a3daafe3b4186f6b6457e060405160405180910390a3806000806101000a81548173ffffffffffffffffffffffffffffffffffffffff021916908373ffffffffffffffffffffffffffffffffffffffff16021790555050565b6040518060a00160405280600073ffffffffffffffffffffffffffffffffffffffff168152602001600073ffffffffffffffffffffffffffffffffffffffff1681526020016060815260200160608152602001600081525090565b6040518060a00160405280600073ffffffffffffffffffffffffffffffffffffffff168152602001600073ffffffffffffffffffffffffffffffffffffffff1681526020016060815260200160608152602001600081525090565b828054600181600116156101000203166002900490600052602060002090601f016020900481019282601f106112c457805160ff19168380011785556112f2565b828001600101855582156112f2579182015b828111156112f15782518255916020019190600101906112d6565b5b5090506112ff9190611303565b5090565b61132591905b80821115611321576000816000905550600101611309565b5090565b90565b60008135905061133781611b5b565b92915050565b600082601f83011261134e57600080fd5b813561136161135c82611a18565b6119eb565b9150808252602083016020830185838301111561137d57600080fd5b611388838284611b08565b50505092915050565b6000813590506113a081611b72565b92915050565b6000602082840312156113b857600080fd5b60006113c684828501611328565b91505092915050565b6000806000606084860312156113e457600080fd5b60006113f286828701611328565b935050602084013567ffffffffffffffff81111561140f57600080fd5b61141b8682870161133d565b925050604084013567ffffffffffffffff81111561143857600080fd5b6114448682870161133d565b9150509250925092565b6000806040838503121561146157600080fd5b600083013567ffffffffffffffff81111561147b57600080fd5b6114878582860161133d565b925050602061149885828601611328565b9150509250929050565b6000602082840312156114b457600080fd5b60006114c284828501611391565b91505092915050565b60006114d783836117c0565b905092915050565b6114e881611ac0565b82525050565b6114f781611ac0565b82525050565b600061150882611a54565b6115128185611a82565b93508360208202850161152485611a44565b8060005b85811015611560578484038952815161154185826114cb565b945061154c83611a75565b925060208a01995050600181019050611528565b50829750879550505050505092915050565b61157b81611ad2565b82525050565b600061158c82611a6a565b6115968185611aa4565b93506115a6818560208601611b17565b6115af81611b4a565b840191505092915050565b60006115c582611a6a565b6115cf8185611ab5565b93506115df818560208601611b17565b80840191505092915050565b60006115f682611a5f565b6116008185611a93565b9350611610818560208601611b17565b61161981611b4a565b840191505092915050565b600061162f82611a5f565b6116398185611aa4565b9350611649818560208601611b17565b61165281611b4a565b840191505092915050565b600061166a601683611aa4565b91507f497373756572206973206e6f7420747275737465642e000000000000000000006000830152602082019050919050565b60006116aa602683611aa4565b91507f4f776e61626c653a206e6577206f776e657220697320746865207a65726f206160008301527f64647265737300000000000000000000000000000000000000000000000000006020830152604082019050919050565b6000611710602083611aa4565b91507f4f776e61626c653a2063616c6c6572206973206e6f7420746865206f776e65726000830152602082019050919050565b600060a08301600083015161175b60008601826114df565b50602083015161176e60208601826114df565b506040830151848203604086015261178682826115eb565b915050606083015184820360608601526117a082826115eb565b91505060808301516117b5608086018261183d565b508091505092915050565b600060a0830160008301516117d860008601826114df565b5060208301516117eb60208601826114df565b506040830151848203604086015261180382826115eb565b9150506060830151848203606086015261181d82826115eb565b9150506080830151611832608086018261183d565b508091505092915050565b61184681611afe565b82525050565b61185581611afe565b82525050565b600061186782846115ba565b915081905092915050565b600060208201905061188760008301846114ee565b92915050565b600060a0820190506118a260008301886114ee565b6118af60208301876114ee565b81810360408301526118c18186611624565b905081810360608301526118d58185611624565b90506118e4608083018461184c565b9695505050505050565b6000602082019050818103600083015261190881846114fd565b905092915050565b60006020820190506119256000830184611572565b92915050565b60006040820190506119406000830185611572565b81810360208301526119528184611743565b90509392505050565b600060208201905081810360008301526119748161165d565b9050919050565b600060208201905081810360008301526119948161169d565b9050919050565b600060208201905081810360008301526119b481611703565b9050919050565b60006040820190506119d0600083018561184c565b81810360208301526119e28184611581565b90509392505050565b6000604051905081810181811067ffffffffffffffff82111715611a0e57600080fd5b8060405250919050565b600067ffffffffffffffff821115611a2f57600080fd5b601f19601f8301169050602081019050919050565b6000819050602082019050919050565b600081519050919050565b600081519050919050565b600081519050919050565b6000602082019050919050565b600082825260208201905092915050565b600082825260208201905092915050565b600082825260208201905092915050565b600081905092915050565b6000611acb82611ade565b9050919050565b60008115159050919050565b600073ffffffffffffffffffffffffffffffffffffffff82169050919050565b6000819050919050565b82818337600083830152505050565b60005b83811015611b35578082015181840152602081019050611b1a565b83811115611b44576000848401525b50505050565b6000601f19601f8301169050919050565b611b6481611ac0565b8114611b6f57600080fd5b50565b611b7b81611afe565b8114611b8657600080fd5b5056fea365627a7a72315820912d4d6effef07d9a65b8525400f3206dd67d88d1feebd1ee208139eb638ee966c6578706572696d656e74616cf564736f6c63430005100040",
  "source": "pragma solidity >=0.5.0 <0.6.0;\npragma experimental ABIEncoderV2;\n\nimport \"openzeppelin-solidity/contracts/ownership/Ownable.sol\";\n\ncontract CertificateStore is Ownable {\n    event CertificateStored(uint _id, string _title);\n\n    struct Certificate {\n        address issuer;\n        address owner;\n        string title;\n        string certificateHash;\n        uint256 issuedAt;\n    }\n\n    // All the issued certificates\n    Certificate[] public certificates;\n    // A way to fetch certificates through its hash\n    mapping(string => uint) internal certificateHashToCertificate;\n    // Trusted issuer is a mapping on order to disable the right to issue certificate to an entity\n    mapping(address => bool) internal trustedIssuer;\n    // Number of owned certificates and issued certificates\n    mapping(address => uint) internal certificateCount;\n    mapping(address => uint) internal issuedCertificateCount;\n\n    /**\n    * @dev Add a new trusted issuer\n    */\n    function addIssuer(address _issuer) public onlyOwner {\n        trustedIssuer[_issuer] = true;\n    }\n\n    /**\n    * @dev Revoke an existing issuer\n    */\n    function revokeIssuer(address _issuer) public onlyOwner {\n        trustedIssuer[_issuer] = false;\n    }\n\n    /**\n    * @dev Returns true if the caller is a trusted issuer\n    */\n    function isTrustedIssuer() public view returns (bool) {\n        return trustedIssuer[msg.sender];\n    }\n\n    /**\n    * @dev Throws if called by any account other than a trusted issuer.\n    */\n    modifier onlyTrustedIssuer() {\n        require(isTrustedIssuer(), 'Issuer is not trusted.');\n        _;\n    }\n\n    /**\n    * @dev Issue a new certificate from input data (only trusted issuer)\n    */\n    function issueCertificate(address _owner, string memory _title, string memory _certHash) public onlyTrustedIssuer {\n        Certificate memory certificate = Certificate(msg.sender, _owner, _title, _certHash, now);\n\n        uint id = certificates.push(certificate);\n        certificateHashToCertificate[_certHash] = id;\n\n        certificateCount[_owner]++;\n        issuedCertificateCount[msg.sender]++;\n\n        emit CertificateStored(id, _title);\n    }\n\n    /**\n    * @dev Returns true and the certificate if the given certificate hash and the pretended owner match\n    */\n    function authenticateHash(string memory _certHash, address _pretendedOwner) public view returns (bool, Certificate memory) {\n        uint certId = certificateHashToCertificate[_certHash];\n        Certificate memory emptyCert = Certificate(msg.sender, msg.sender, '', '', now);\n\n        if(certId == 0) {\n            return (false, emptyCert);\n        }\n\n        Certificate memory foundCertificate = certificates[certId];\n\n        if(foundCertificate.owner != _pretendedOwner) {\n            return (false, emptyCert);\n        }\n\n        return (true, foundCertificate);\n    }\n\n    /**\n    * @dev Returns certificates owned by the caller\n    */\n    function getOwnedCertificates() public view returns (Certificate[] memory ownedCertificates) {\n        Certificate[] memory _ownedCertificates = new Certificate[](certificateCount[msg.sender]);\n        uint current = 0;\n        uint certificateLength = certificates.length;\n        uint ownedLimit = _ownedCertificates.length - 1;\n\n        for (uint i = 0; i <= certificateLength && current != ownedLimit; i++) {\n            if (certificates[i].owner == msg.sender) {\n                _ownedCertificates[current] = certificates[i];\n                current++;\n            }\n        }\n\n        return _ownedCertificates;\n    }\n}\n",
  "sourcePath": "/home/guillaume/Ynov/M1_Blockchain/certynov/certynov/contracts/CertificateStore.sol",
  "compiler": {
    "name": "solc",
    "version": "0.5.16+commit.9c3226ce.Emscripten.clang"
  },
  "schemaVersion": "3.0.23",
  "updatedAt": "2020-04-10T09:18:08.888Z",
  "networkType": "ethereum",
  "devdoc": {
    "methods": {
      "addIssuer(address)": {
        "details": "Add a new trusted issuer"
      },
      "authenticateHash(string,address)": {
        "details": "Returns true and the certificate if the given certificate hash and the pretended owner match"
      },
      "getOwnedCertificates()": {
        "details": "Returns certificates owned by the caller"
      },
      "isOwner()": {
        "details": "Returns true if the caller is the current owner."
      },
      "isTrustedIssuer()": {
        "details": "Returns true if the caller is a trusted issuer"
      },
      "issueCertificate(address,string,string)": {
        "details": "Issue a new certificate from input data (only trusted issuer)"
      },
      "owner()": {
        "details": "Returns the address of the current owner."
      },
      "renounceOwnership()": {
        "details": "Leaves the contract without owner. It will not be possible to call `onlyOwner` functions anymore. Can only be called by the current owner.     * NOTE: Renouncing ownership will leave the contract without an owner, thereby removing any functionality that is only available to the owner."
      },
      "revokeIssuer(address)": {
        "details": "Revoke an existing issuer"
      },
      "transferOwnership(address)": {
        "details": "Transfers ownership of the contract to a new account (`newOwner`). Can only be called by the current owner."
      }
    }
  },
  "userdoc": {
    "methods": {}
  }
}