{
  "contractName": "CertificateStore",
  "abi": [
    {
      "anonymous": false,
      "inputs": [
        {
          "indexed": false,
          "internalType": "uint256",
          "name": "_id",
          "type": "uint256"
        },
        {
          "indexed": false,
          "internalType": "string",
          "name": "_title",
          "type": "string"
        }
      ],
      "name": "CertificateStored",
      "type": "event"
    },
    {
      "anonymous": false,
      "inputs": [
        {
          "indexed": true,
          "internalType": "address",
          "name": "previousOwner",
          "type": "address"
        },
        {
          "indexed": true,
          "internalType": "address",
          "name": "newOwner",
          "type": "address"
        }
      ],
      "name": "OwnershipTransferred",
      "type": "event"
    },
    {
      "anonymous": false,
      "inputs": [
        {
          "indexed": false,
          "internalType": "address",
          "name": "_issuer",
          "type": "address"
        },
        {
          "indexed": false,
          "internalType": "string",
          "name": "_organization",
          "type": "string"
        }
      ],
      "name": "TrustedIssuer",
      "type": "event"
    },
    {
      "anonymous": false,
      "inputs": [
        {
          "indexed": false,
          "internalType": "address",
          "name": "_issuer",
          "type": "address"
        },
        {
          "indexed": false,
          "internalType": "string",
          "name": "_organization",
          "type": "string"
        }
      ],
      "name": "UntrustedIssuer",
      "type": "event"
    },
    {
      "constant": false,
      "inputs": [
        {
          "internalType": "address",
          "name": "_issuer",
          "type": "address"
        },
        {
          "internalType": "string",
          "name": "_organization",
          "type": "string"
        }
      ],
      "name": "addIssuer",
      "outputs": [],
      "payable": false,
      "stateMutability": "nonpayable",
      "type": "function"
    },
    {
      "constant": true,
      "inputs": [
        {
          "internalType": "string",
          "name": "_certHash",
          "type": "string"
        },
        {
          "internalType": "address",
          "name": "_pretendedOwner",
          "type": "address"
        }
      ],
      "name": "authenticateHash",
      "outputs": [
        {
          "internalType": "bool",
          "name": "authenticated",
          "type": "bool"
        },
        {
          "internalType": "uint256",
          "name": "authenticatedCertificateId",
          "type": "uint256"
        }
      ],
      "payable": false,
      "stateMutability": "view",
      "type": "function"
    },
    {
      "constant": true,
      "inputs": [
        {
          "internalType": "uint256",
          "name": "",
          "type": "uint256"
        }
      ],
      "name": "certificates",
      "outputs": [
        {
          "components": [
            {
              "internalType": "address",
              "name": "issuer",
              "type": "address"
            },
            {
              "internalType": "string",
              "name": "organization",
              "type": "string"
            },
            {
              "internalType": "bool",
              "name": "trusted",
              "type": "bool"
            },
            {
              "internalType": "bool",
              "name": "exist",
              "type": "bool"
            }
          ],
          "internalType": "struct CertificateStoreCore.Issuer",
          "name": "issuer",
          "type": "tuple"
        },
        {
          "internalType": "address",
          "name": "owner",
          "type": "address"
        },
        {
          "internalType": "string",
          "name": "title",
          "type": "string"
        },
        {
          "internalType": "string",
          "name": "certificateHash",
          "type": "string"
        },
        {
          "internalType": "uint256",
          "name": "issuedAt",
          "type": "uint256"
        },
        {
          "internalType": "bool",
          "name": "exist",
          "type": "bool"
        }
      ],
      "payable": false,
      "stateMutability": "view",
      "type": "function"
    },
    {
      "constant": true,
      "inputs": [],
      "name": "isOwner",
      "outputs": [
        {
          "internalType": "bool",
          "name": "",
          "type": "bool"
        }
      ],
      "payable": false,
      "stateMutability": "view",
      "type": "function"
    },
    {
      "constant": true,
      "inputs": [],
      "name": "isTrustedIssuer",
      "outputs": [
        {
          "internalType": "bool",
          "name": "isTrusted",
          "type": "bool"
        }
      ],
      "payable": false,
      "stateMutability": "view",
      "type": "function"
    },
    {
      "constant": false,
      "inputs": [
        {
          "internalType": "address",
          "name": "_owner",
          "type": "address"
        },
        {
          "internalType": "string",
          "name": "_title",
          "type": "string"
        },
        {
          "internalType": "string",
          "name": "_certHash",
          "type": "string"
        }
      ],
      "name": "issueCertificate",
      "outputs": [],
      "payable": false,
      "stateMutability": "nonpayable",
      "type": "function"
    },
    {
      "constant": true,
      "inputs": [],
      "name": "owner",
      "outputs": [
        {
          "internalType": "address",
          "name": "",
          "type": "address"
        }
      ],
      "payable": false,
      "stateMutability": "view",
      "type": "function"
    },
    {
      "constant": false,
      "inputs": [],
      "name": "renounceOwnership",
      "outputs": [],
      "payable": false,
      "stateMutability": "nonpayable",
      "type": "function"
    },
    {
      "constant": false,
      "inputs": [
        {
          "internalType": "address",
          "name": "_issuer",
          "type": "address"
        },
        {
          "internalType": "string",
          "name": "_organization",
          "type": "string"
        }
      ],
      "name": "revokeIssuer",
      "outputs": [],
      "payable": false,
      "stateMutability": "nonpayable",
      "type": "function"
    },
    {
      "constant": false,
      "inputs": [
        {
          "internalType": "address",
          "name": "newOwner",
          "type": "address"
        }
      ],
      "name": "transferOwnership",
      "outputs": [],
      "payable": false,
      "stateMutability": "nonpayable",
      "type": "function"
    },
    {
      "constant": true,
      "inputs": [
        {
          "internalType": "uint256",
          "name": "_certId",
          "type": "uint256"
        }
      ],
      "name": "getCertificateById",
      "outputs": [
        {
          "components": [
            {
              "components": [
                {
                  "internalType": "address",
                  "name": "issuer",
                  "type": "address"
                },
                {
                  "internalType": "string",
                  "name": "organization",
                  "type": "string"
                },
                {
                  "internalType": "bool",
                  "name": "trusted",
                  "type": "bool"
                },
                {
                  "internalType": "bool",
                  "name": "exist",
                  "type": "bool"
                }
              ],
              "internalType": "struct CertificateStoreCore.Issuer",
              "name": "issuer",
              "type": "tuple"
            },
            {
              "internalType": "address",
              "name": "owner",
              "type": "address"
            },
            {
              "internalType": "string",
              "name": "title",
              "type": "string"
            },
            {
              "internalType": "string",
              "name": "certificateHash",
              "type": "string"
            },
            {
              "internalType": "uint256",
              "name": "issuedAt",
              "type": "uint256"
            },
            {
              "internalType": "bool",
              "name": "exist",
              "type": "bool"
            }
          ],
          "internalType": "struct CertificateStoreCore.Certificate",
          "name": "allCertificates",
          "type": "tuple"
        }
      ],
      "payable": false,
      "stateMutability": "view",
      "type": "function"
    },
    {
      "constant": true,
      "inputs": [],
      "name": "getOwnedCertificatesId",
      "outputs": [
        {
          "internalType": "uint256[]",
          "name": "ownedCertificates",
          "type": "uint256[]"
        }
      ],
      "payable": false,
      "stateMutability": "view",
      "type": "function"
    }
  ],
  "bytecode": "0x6080604052600062000016620001ab60201b60201c565b9050806000806101000a81548173ffffffffffffffffffffffffffffffffffffffff021916908373ffffffffffffffffffffffffffffffffffffffff1602179055508073ffffffffffffffffffffffffffffffffffffffff16600073ffffffffffffffffffffffffffffffffffffffff167f8be0079c531659141344cd1fd0a4f28419497f9722a3daafe3b4186f6b6457e060405160405180910390a350620000be620004e5565b62000114620000d2620001b360201b60201c565b6040518060400160405280600781526020017f4365727469665900000000000000000000000000000000000000000000000000815250620001dc60201b60201c565b9050620001a3816200012b620001b360201b60201c565b6040518060400160405280601481526020017f4f524947494e414c5f43455254494649434154450000000000000000000000008152506040518060400160405280601481526020017f4f524947494e414c5f43455254494649434154450000000000000000000000008152506200022b60201b60201c565b50506200070a565b600033905090565b60008060009054906101000a900473ffffffffffffffffffffffffffffffffffffffff16905090565b620001e6620004e5565b60405180608001604052808473ffffffffffffffffffffffffffffffffffffffff16815260200183815260200160001515815260200160011515815250905092915050565b60006200023762000527565b6040518060c001604052808781526020018673ffffffffffffffffffffffffffffffffffffffff1681526020018581526020018481526020014281526020016001151581525090506000600180839080600181540180825580915050906001820390600052602060002090600802016000909192909190915060008201518160000160008201518160000160006101000a81548173ffffffffffffffffffffffffffffffffffffffff021916908373ffffffffffffffffffffffffffffffffffffffff16021790555060208201518160010190805190602001906200031e9291906200057d565b5060408201518160020160006101000a81548160ff02191690831515021790555060608201518160020160016101000a81548160ff021916908315150217905550505060208201518160030160006101000a81548173ffffffffffffffffffffffffffffffffffffffff021916908373ffffffffffffffffffffffffffffffffffffffff1602179055506040820151816004019080519060200190620003c69291906200057d565b506060820151816005019080519060200190620003e59291906200057d565b506080820151816006015560a08201518160070160006101000a81548160ff021916908315150217905550505003905080600285604051620004289190620006a5565b908152602001604051809103902081905550600460008773ffffffffffffffffffffffffffffffffffffffff1673ffffffffffffffffffffffffffffffffffffffff16815260200190815260200160002060008154809291906001019190505550600560003373ffffffffffffffffffffffffffffffffffffffff1673ffffffffffffffffffffffffffffffffffffffff168152602001908152602001600020600081548092919060010191905055508092505050949350505050565b6040518060800160405280600073ffffffffffffffffffffffffffffffffffffffff168152602001606081526020016000151581526020016000151581525090565b6040518060c001604052806200053c62000604565b8152602001600073ffffffffffffffffffffffffffffffffffffffff1681526020016060815260200160608152602001600081526020016000151581525090565b828054600181600116156101000203166002900490600052602060002090601f016020900481019282601f10620005c057805160ff1916838001178555620005f1565b82800160010185558215620005f1579182015b82811115620005f0578251825591602001919060010190620005d3565b5b50905062000600919062000646565b5090565b6040518060800160405280600073ffffffffffffffffffffffffffffffffffffffff168152602001606081526020016000151581526020016000151581525090565b6200066b91905b80821115620006675760008160009055506001016200064d565b5090565b90565b60006200067b82620006be565b620006878185620006c9565b935062000699818560208601620006d4565b80840191505092915050565b6000620006b382846200066e565b915081905092915050565b600081519050919050565b600081905092915050565b60005b83811015620006f4578082015181840152602081019050620006d7565b8381111562000704576000848401525b50505050565b6122b2806200071a6000396000f3fe608060405234801561001057600080fd5b50600436106100b45760003560e01c80638da5cb5b116100715780638da5cb5b146101815780638f32d59b1461019f5780638fc0859a146101bd5780639d735caf146101d9578063e98ac4d814610209578063f2fde38b14610225576100b4565b80632b43c5f1146100b95780633aceed30146100d557806364b3300314610106578063663b3e2214610124578063715018a6146101595780638d06245814610163575b600080fd5b6100d360048036036100ce91908101906119a2565b610241565b005b6100ef60048036036100ea9190810190611a75565b610477565b6040516100fd929190611f80565b60405180910390f35b61010e61056a565b60405161011b9190611f43565b60405180910390f35b61013e60048036036101399190810190611ac9565b6106ac565b6040516101509695949392919061202b565b60405180910390f35b61016161098a565b005b61016b610a90565b6040516101789190611f65565b60405180910390f35b610189610ae7565b6040516101969190611ef8565b60405180910390f35b6101a7610b10565b6040516101b49190611f65565b60405180910390f35b6101d760048036036101d291908101906119a2565b610b6e565b005b6101f360048036036101ee9190810190611ac9565b610db5565b6040516102009190612009565b60405180910390f35b610223600480360361021e91908101906119f6565b6110eb565b005b61023f600480360361023a9190810190611979565b6112f8565b005b610249610b10565b610288576040517f08c379a000000000000000000000000000000000000000000000000000000000815260040161027f90611fe9565b60405180910390fd5b600360008373ffffffffffffffffffffffffffffffffffffffff1673ffffffffffffffffffffffffffffffffffffffff16815260200190815260200160002060020160019054906101000a900460ff161561033d576000600360008473ffffffffffffffffffffffffffffffffffffffff1673ffffffffffffffffffffffffffffffffffffffff16815260200190815260200160002060020160006101000a81548160ff02191690831515021790555061043a565b61034561177e565b61034f838361134b565b905080600360008573ffffffffffffffffffffffffffffffffffffffff1673ffffffffffffffffffffffffffffffffffffffff16815260200190815260200160002060008201518160000160006101000a81548173ffffffffffffffffffffffffffffffffffffffff021916908373ffffffffffffffffffffffffffffffffffffffff16021790555060208201518160010190805190602001906103f49291906117c0565b5060408201518160020160006101000a81548160ff02191690831515021790555060608201518160020160016101000a81548160ff021916908315150217905550905050505b7f731003ff9638e352f896124100670675e1e4322e7dfc0fe1fb311969e6f94bf7828260405161046b929190611f13565b60405180910390a15050565b600080600060028560405161048c9190611ee1565b908152602001604051809103902054905060011515600182815481106104ae57fe5b906000526020600020906008020160070160009054906101000a900460ff16151514801561054557508373ffffffffffffffffffffffffffffffffffffffff16600182815481106104fb57fe5b906000526020600020906008020160030160009054906101000a900473ffffffffffffffffffffffffffffffffffffffff1673ffffffffffffffffffffffffffffffffffffffff16145b15610557576001819250925050610563565b60008080905092509250505b9250929050565b606080600460003373ffffffffffffffffffffffffffffffffffffffff1673ffffffffffffffffffffffffffffffffffffffff168152602001908152602001600020546040519080825280602002602001820160405280156105db5781602001602082028038833980820191505090505b509050600080905060008090505b600180549050811080156105fd5750825182105b156106a3573373ffffffffffffffffffffffffffffffffffffffff166001828154811061062657fe5b906000526020600020906008020160030160009054906101000a900473ffffffffffffffffffffffffffffffffffffffff1673ffffffffffffffffffffffffffffffffffffffff161415610696578083838151811061068157fe5b60200260200101818152505081806001019250505b80806001019150506105e9565b50819250505090565b600181815481106106b957fe5b9060005260206000209060080201600091509050806000016040518060800160405290816000820160009054906101000a900473ffffffffffffffffffffffffffffffffffffffff1673ffffffffffffffffffffffffffffffffffffffff1673ffffffffffffffffffffffffffffffffffffffff168152602001600182018054600181600116156101000203166002900480601f0160208091040260200160405190810160405280929190818152602001828054600181600116156101000203166002900480156107cb5780601f106107a0576101008083540402835291602001916107cb565b820191906000526020600020905b8154815290600101906020018083116107ae57829003601f168201915b505050505081526020016002820160009054906101000a900460ff161515151581526020016002820160019054906101000a900460ff161515151581525050908060030160009054906101000a900473ffffffffffffffffffffffffffffffffffffffff1690806004018054600181600116156101000203166002900480601f0160208091040260200160405190810160405280929190818152602001828054600181600116156101000203166002900480156108c95780601f1061089e576101008083540402835291602001916108c9565b820191906000526020600020905b8154815290600101906020018083116108ac57829003601f168201915b505050505090806005018054600181600116156101000203166002900480601f0160208091040260200160405190810160405280929190818152602001828054600181600116156101000203166002900480156109675780601f1061093c57610100808354040283529160200191610967565b820191906000526020600020905b81548152906001019060200180831161094a57829003601f168201915b5050505050908060060154908060070160009054906101000a900460ff16905086565b610992610b10565b6109d1576040517f08c379a00000000000000000000000000000000000000000000000000000000081526004016109c890611fe9565b60405180910390fd5b600073ffffffffffffffffffffffffffffffffffffffff166000809054906101000a900473ffffffffffffffffffffffffffffffffffffffff1673ffffffffffffffffffffffffffffffffffffffff167f8be0079c531659141344cd1fd0a4f28419497f9722a3daafe3b4186f6b6457e060405160405180910390a360008060006101000a81548173ffffffffffffffffffffffffffffffffffffffff021916908373ffffffffffffffffffffffffffffffffffffffff160217905550565b6000600360003373ffffffffffffffffffffffffffffffffffffffff1673ffffffffffffffffffffffffffffffffffffffff16815260200190815260200160002060020160009054906101000a900460ff16905090565b60008060009054906101000a900473ffffffffffffffffffffffffffffffffffffffff16905090565b60008060009054906101000a900473ffffffffffffffffffffffffffffffffffffffff1673ffffffffffffffffffffffffffffffffffffffff16610b52611398565b73ffffffffffffffffffffffffffffffffffffffff1614905090565b610b76610b10565b610bb5576040517f08c379a0000000000000000000000000000000000000000000000000000000008152600401610bac90611fe9565b60405180910390fd5b600360008373ffffffffffffffffffffffffffffffffffffffff1673ffffffffffffffffffffffffffffffffffffffff16815260200190815260200160002060020160019054906101000a900460ff1615610c6a576001600360008473ffffffffffffffffffffffffffffffffffffffff1673ffffffffffffffffffffffffffffffffffffffff16815260200190815260200160002060020160006101000a81548160ff021916908315150217905550610d78565b610c7261177e565b610c7c838361134b565b9050600181604001901515908115158152505080600360008573ffffffffffffffffffffffffffffffffffffffff1673ffffffffffffffffffffffffffffffffffffffff16815260200190815260200160002060008201518160000160006101000a81548173ffffffffffffffffffffffffffffffffffffffff021916908373ffffffffffffffffffffffffffffffffffffffff1602179055506020820151816001019080519060200190610d329291906117c0565b5060408201518160020160006101000a81548160ff02191690831515021790555060608201518160020160016101000a81548160ff021916908315150217905550905050505b7f71f25247d01355f495505e8ea75c6b650f7c2b9a0c1906032ea56f503645e35e8282604051610da9929190611f13565b60405180910390a15050565b610dbd611840565b60018281548110610dca57fe5b90600052602060002090600802016040518060c0016040529081600082016040518060800160405290816000820160009054906101000a900473ffffffffffffffffffffffffffffffffffffffff1673ffffffffffffffffffffffffffffffffffffffff1673ffffffffffffffffffffffffffffffffffffffff168152602001600182018054600181600116156101000203166002900480601f016020809104026020016040519081016040528092919081815260200182805460018160011615610100020316600290048015610ee25780601f10610eb757610100808354040283529160200191610ee2565b820191906000526020600020905b815481529060010190602001808311610ec557829003601f168201915b505050505081526020016002820160009054906101000a900460ff161515151581526020016002820160019054906101000a900460ff16151515158152505081526020016003820160009054906101000a900473ffffffffffffffffffffffffffffffffffffffff1673ffffffffffffffffffffffffffffffffffffffff1673ffffffffffffffffffffffffffffffffffffffff168152602001600482018054600181600116156101000203166002900480601f0160208091040260200160405190810160405280929190818152602001828054600181600116156101000203166002900480156110145780601f10610fe957610100808354040283529160200191611014565b820191906000526020600020905b815481529060010190602001808311610ff757829003601f168201915b50505050508152602001600582018054600181600116156101000203166002900480601f0160208091040260200160405190810160405280929190818152602001828054600181600116156101000203166002900480156110b65780601f1061108b576101008083540402835291602001916110b6565b820191906000526020600020905b81548152906001019060200180831161109957829003601f168201915b50505050508152602001600682015481526020016007820160009054906101000a900460ff1615151515815250509050919050565b6110f3610a90565b611132576040517f08c379a000000000000000000000000000000000000000000000000000000000815260040161112990611fa9565b60405180910390fd5b60006112b7600360003373ffffffffffffffffffffffffffffffffffffffff1673ffffffffffffffffffffffffffffffffffffffff1681526020019081526020016000206040518060800160405290816000820160009054906101000a900473ffffffffffffffffffffffffffffffffffffffff1673ffffffffffffffffffffffffffffffffffffffff1673ffffffffffffffffffffffffffffffffffffffff168152602001600182018054600181600116156101000203166002900480601f0160208091040260200160405190810160405280929190818152602001828054600181600116156101000203166002900480156112705780601f1061124557610100808354040283529160200191611270565b820191906000526020600020905b81548152906001019060200180831161125357829003601f168201915b505050505081526020016002820160009054906101000a900460ff161515151581526020016002820160019054906101000a900460ff1615151515815250508585856113a0565b90507f33a43a5f40642b7962e152d8df96057d081da4482e7adef69ddf86e2dc9ae71181846040516112ea9291906120a1565b60405180910390a150505050565b611300610b10565b61133f576040517f08c379a000000000000000000000000000000000000000000000000000000000815260040161133690611fe9565b60405180910390fd5b61134881611650565b50565b61135361177e565b60405180608001604052808473ffffffffffffffffffffffffffffffffffffffff16815260200183815260200160001515815260200160011515815250905092915050565b600033905090565b60006113aa611840565b6040518060c001604052808781526020018673ffffffffffffffffffffffffffffffffffffffff1681526020018581526020018481526020014281526020016001151581525090506000600180839080600181540180825580915050906001820390600052602060002090600802016000909192909190915060008201518160000160008201518160000160006101000a81548173ffffffffffffffffffffffffffffffffffffffff021916908373ffffffffffffffffffffffffffffffffffffffff160217905550602082015181600101908051906020019061148f9291906117c0565b5060408201518160020160006101000a81548160ff02191690831515021790555060608201518160020160016101000a81548160ff021916908315150217905550505060208201518160030160006101000a81548173ffffffffffffffffffffffffffffffffffffffff021916908373ffffffffffffffffffffffffffffffffffffffff16021790555060408201518160040190805190602001906115359291906117c0565b5060608201518160050190805190602001906115529291906117c0565b506080820151816006015560a08201518160070160006101000a81548160ff0219169083151502179055505050039050806002856040516115939190611ee1565b908152602001604051809103902081905550600460008773ffffffffffffffffffffffffffffffffffffffff1673ffffffffffffffffffffffffffffffffffffffff16815260200190815260200160002060008154809291906001019190505550600560003373ffffffffffffffffffffffffffffffffffffffff1673ffffffffffffffffffffffffffffffffffffffff168152602001908152602001600020600081548092919060010191905055508092505050949350505050565b600073ffffffffffffffffffffffffffffffffffffffff168173ffffffffffffffffffffffffffffffffffffffff1614156116c0576040517f08c379a00000000000000000000000000000000000000000000000000000000081526004016116b790611fc9565b60405180910390fd5b8073ffffffffffffffffffffffffffffffffffffffff166000809054906101000a900473ffffffffffffffffffffffffffffffffffffffff1673ffffffffffffffffffffffffffffffffffffffff167f8be0079c531659141344cd1fd0a4f28419497f9722a3daafe3b4186f6b6457e060405160405180910390a3806000806101000a81548173ffffffffffffffffffffffffffffffffffffffff021916908373ffffffffffffffffffffffffffffffffffffffff16021790555050565b6040518060800160405280600073ffffffffffffffffffffffffffffffffffffffff168152602001606081526020016000151581526020016000151581525090565b828054600181600116156101000203166002900490600052602060002090601f016020900481019282601f1061180157805160ff191683800117855561182f565b8280016001018555821561182f579182015b8281111561182e578251825591602001919060010190611813565b5b50905061183c9190611894565b5090565b6040518060c001604052806118536118b9565b8152602001600073ffffffffffffffffffffffffffffffffffffffff1681526020016060815260200160608152602001600081526020016000151581525090565b6118b691905b808211156118b257600081600090555060010161189a565b5090565b90565b6040518060800160405280600073ffffffffffffffffffffffffffffffffffffffff168152602001606081526020016000151581526020016000151581525090565b60008135905061190a81612241565b92915050565b600082601f83011261192157600080fd5b813561193461192f826120fe565b6120d1565b9150808252602083016020830185838301111561195057600080fd5b61195b8382846121ee565b50505092915050565b60008135905061197381612258565b92915050565b60006020828403121561198b57600080fd5b6000611999848285016118fb565b91505092915050565b600080604083850312156119b557600080fd5b60006119c3858286016118fb565b925050602083013567ffffffffffffffff8111156119e057600080fd5b6119ec85828601611910565b9150509250929050565b600080600060608486031215611a0b57600080fd5b6000611a19868287016118fb565b935050602084013567ffffffffffffffff811115611a3657600080fd5b611a4286828701611910565b925050604084013567ffffffffffffffff811115611a5f57600080fd5b611a6b86828701611910565b9150509250925092565b60008060408385031215611a8857600080fd5b600083013567ffffffffffffffff811115611aa257600080fd5b611aae85828601611910565b9250506020611abf858286016118fb565b9150509250929050565b600060208284031215611adb57600080fd5b6000611ae984828501611964565b91505092915050565b6000611afe8383611ec3565b60208301905092915050565b611b13816121a6565b82525050565b611b22816121a6565b82525050565b6000611b338261213a565b611b3d8185612168565b9350611b488361212a565b8060005b83811015611b79578151611b608882611af2565b9750611b6b8361215b565b925050600181019050611b4c565b5085935050505092915050565b611b8f816121b8565b82525050565b611b9e816121b8565b82525050565b6000611baf82612150565b611bb9818561218a565b9350611bc98185602086016121fd565b611bd281612230565b840191505092915050565b6000611be882612150565b611bf2818561219b565b9350611c028185602086016121fd565b80840191505092915050565b6000611c1982612145565b611c238185612179565b9350611c338185602086016121fd565b611c3c81612230565b840191505092915050565b6000611c5282612145565b611c5c818561218a565b9350611c6c8185602086016121fd565b611c7581612230565b840191505092915050565b6000611c8d60168361218a565b91507f497373756572206973206e6f7420747275737465642e000000000000000000006000830152602082019050919050565b6000611ccd60268361218a565b91507f4f776e61626c653a206e6577206f776e657220697320746865207a65726f206160008301527f64647265737300000000000000000000000000000000000000000000000000006020830152604082019050919050565b6000611d3360208361218a565b91507f4f776e61626c653a2063616c6c6572206973206e6f7420746865206f776e65726000830152602082019050919050565b600060c0830160008301518482036000860152611d838282611dfd565b9150506020830151611d986020860182611b0a565b5060408301518482036040860152611db08282611c0e565b91505060608301518482036060860152611dca8282611c0e565b9150506080830151611ddf6080860182611ec3565b5060a0830151611df260a0860182611b86565b508091505092915050565b6000608083016000830151611e156000860182611b0a565b5060208301518482036020860152611e2d8282611c0e565b9150506040830151611e426040860182611b86565b506060830151611e556060860182611b86565b508091505092915050565b6000608083016000830151611e786000860182611b0a565b5060208301518482036020860152611e908282611c0e565b9150506040830151611ea56040860182611b86565b506060830151611eb86060860182611b86565b508091505092915050565b611ecc816121e4565b82525050565b611edb816121e4565b82525050565b6000611eed8284611bdd565b915081905092915050565b6000602082019050611f0d6000830184611b19565b92915050565b6000604082019050611f286000830185611b19565b8181036020830152611f3a8184611ba4565b90509392505050565b60006020820190508181036000830152611f5d8184611b28565b905092915050565b6000602082019050611f7a6000830184611b95565b92915050565b6000604082019050611f956000830185611b95565b611fa26020830184611ed2565b9392505050565b60006020820190508181036000830152611fc281611c80565b9050919050565b60006020820190508181036000830152611fe281611cc0565b9050919050565b6000602082019050818103600083015261200281611d26565b9050919050565b600060208201905081810360008301526120238184611d66565b905092915050565b600060c08201905081810360008301526120458189611e60565b90506120546020830188611b19565b81810360408301526120668187611c47565b9050818103606083015261207a8186611c47565b90506120896080830185611ed2565b61209660a0830184611b95565b979650505050505050565b60006040820190506120b66000830185611ed2565b81810360208301526120c88184611ba4565b90509392505050565b6000604051905081810181811067ffffffffffffffff821117156120f457600080fd5b8060405250919050565b600067ffffffffffffffff82111561211557600080fd5b601f19601f8301169050602081019050919050565b6000819050602082019050919050565b600081519050919050565b600081519050919050565b600081519050919050565b6000602082019050919050565b600082825260208201905092915050565b600082825260208201905092915050565b600082825260208201905092915050565b600081905092915050565b60006121b1826121c4565b9050919050565b60008115159050919050565b600073ffffffffffffffffffffffffffffffffffffffff82169050919050565b6000819050919050565b82818337600083830152505050565b60005b8381101561221b578082015181840152602081019050612200565b8381111561222a576000848401525b50505050565b6000601f19601f8301169050919050565b61224a816121a6565b811461225557600080fd5b50565b612261816121e4565b811461226c57600080fd5b5056fea365627a7a72315820dc2b8836ca8aefa9f5fbabb3f594054c48b391f22d5b68932c8a12061964561e6c6578706572696d656e74616cf564736f6c63430005100040",
  "source": "pragma solidity >=0.5.0 <0.6.0;\npragma experimental ABIEncoderV2;\n\nimport \"./CertificateStoreCore.sol\";\n\ncontract CertificateStore is CertificateStoreCore {\n    /**\n    * @dev Return certificate matching th given id;\n    */\n    function getCertificateById(uint _certId) public view returns(Certificate memory allCertificates) {\n        return certificates[_certId];\n    }\n\n    /**\n    * @dev Returns certificates owned by the caller\n    */\n    function getOwnedCertificatesId() public view returns (uint[] memory ownedCertificates) {\n        uint[] memory _ownedCertificates = new uint[](certificateCount[msg.sender]);\n        uint current = 0;\n\n        for (uint i = 0; i < certificates.length && current < _ownedCertificates.length; i++) {\n            if (certificates[i].owner == msg.sender) {\n                _ownedCertificates[current] = i;\n                current++;\n            }\n        }\n\n        return _ownedCertificates;\n    }\n}\n",
  "sourcePath": "/home/guillaume/Ynov/M1_Blockchain/certynov/certynov/contracts/CertificateStore.sol",
  "compiler": {
    "name": "solc",
    "version": "0.5.16+commit.9c3226ce.Emscripten.clang"
  },
  "schemaVersion": "3.0.23",
  "updatedAt": "2020-04-12T09:55:29.761Z",
  "networkType": "ethereum",
  "devdoc": {
    "methods": {
      "addIssuer(address,string)": {
        "details": "Add a new trusted issuer"
      },
      "authenticateHash(string,address)": {
        "details": "Returns true and the certificate id if the given certificate hash and the pretended owner match"
      },
      "getCertificateById(uint256)": {
        "details": "Return certificate matching th given id;"
      },
      "getOwnedCertificatesId()": {
        "details": "Returns certificates owned by the caller"
      },
      "isOwner()": {
        "details": "Returns true if the caller is the current owner."
      },
      "isTrustedIssuer()": {
        "details": "Returns true if the caller is a trusted issuer"
      },
      "issueCertificate(address,string,string)": {
        "details": "Issue a new certificate from input data (only trusted issuer)"
      },
      "owner()": {
        "details": "Returns the address of the current owner."
      },
      "renounceOwnership()": {
        "details": "Leaves the contract without owner. It will not be possible to call `onlyOwner` functions anymore. Can only be called by the current owner.     * NOTE: Renouncing ownership will leave the contract without an owner, thereby removing any functionality that is only available to the owner."
      },
      "revokeIssuer(address,string)": {
        "details": "Revoke an existing issuer"
      },
      "transferOwnership(address)": {
        "details": "Transfers ownership of the contract to a new account (`newOwner`). Can only be called by the current owner."
      }
    }
  },
  "userdoc": {
    "methods": {}
  }
}