{
  "contractName": "CertificateStore",
  "abi": [
    {
      "anonymous": false,
      "inputs": [
        {
          "indexed": false,
          "internalType": "uint256",
          "name": "_id",
          "type": "uint256"
        },
        {
          "indexed": false,
          "internalType": "string",
          "name": "_title",
          "type": "string"
        }
      ],
      "name": "CertificateStored",
      "type": "event"
    },
    {
      "anonymous": false,
      "inputs": [
        {
          "indexed": true,
          "internalType": "address",
          "name": "previousOwner",
          "type": "address"
        },
        {
          "indexed": true,
          "internalType": "address",
          "name": "newOwner",
          "type": "address"
        }
      ],
      "name": "OwnershipTransferred",
      "type": "event"
    },
    {
      "constant": true,
      "inputs": [
        {
          "internalType": "uint256",
          "name": "",
          "type": "uint256"
        }
      ],
      "name": "certificates",
      "outputs": [
        {
          "internalType": "address",
          "name": "issuer",
          "type": "address"
        },
        {
          "internalType": "address",
          "name": "owner",
          "type": "address"
        },
        {
          "internalType": "string",
          "name": "title",
          "type": "string"
        },
        {
          "internalType": "string",
          "name": "certificateHash",
          "type": "string"
        },
        {
          "internalType": "uint256",
          "name": "issuedAt",
          "type": "uint256"
        }
      ],
      "payable": false,
      "stateMutability": "view",
      "type": "function"
    },
    {
      "constant": true,
      "inputs": [],
      "name": "isOwner",
      "outputs": [
        {
          "internalType": "bool",
          "name": "",
          "type": "bool"
        }
      ],
      "payable": false,
      "stateMutability": "view",
      "type": "function"
    },
    {
      "constant": true,
      "inputs": [],
      "name": "owner",
      "outputs": [
        {
          "internalType": "address",
          "name": "",
          "type": "address"
        }
      ],
      "payable": false,
      "stateMutability": "view",
      "type": "function"
    },
    {
      "constant": false,
      "inputs": [],
      "name": "renounceOwnership",
      "outputs": [],
      "payable": false,
      "stateMutability": "nonpayable",
      "type": "function"
    },
    {
      "constant": false,
      "inputs": [
        {
          "internalType": "address",
          "name": "newOwner",
          "type": "address"
        }
      ],
      "name": "transferOwnership",
      "outputs": [],
      "payable": false,
      "stateMutability": "nonpayable",
      "type": "function"
    },
    {
      "constant": false,
      "inputs": [
        {
          "internalType": "address",
          "name": "_owner",
          "type": "address"
        },
        {
          "internalType": "string",
          "name": "_title",
          "type": "string"
        },
        {
          "internalType": "string",
          "name": "_certHash",
          "type": "string"
        }
      ],
      "name": "issueCertificate",
      "outputs": [],
      "payable": false,
      "stateMutability": "nonpayable",
      "type": "function"
    },
    {
      "constant": false,
      "inputs": [
        {
          "internalType": "address",
          "name": "_issuer",
          "type": "address"
        }
      ],
      "name": "addIssuer",
      "outputs": [],
      "payable": false,
      "stateMutability": "nonpayable",
      "type": "function"
    },
    {
      "constant": true,
      "inputs": [
        {
          "internalType": "string",
          "name": "_certHash",
          "type": "string"
        },
        {
          "internalType": "address",
          "name": "_pretendedOwner",
          "type": "address"
        }
      ],
      "name": "authenticateHash",
      "outputs": [
        {
          "internalType": "bool",
          "name": "",
          "type": "bool"
        },
        {
          "components": [
            {
              "internalType": "address",
              "name": "issuer",
              "type": "address"
            },
            {
              "internalType": "address",
              "name": "owner",
              "type": "address"
            },
            {
              "internalType": "string",
              "name": "title",
              "type": "string"
            },
            {
              "internalType": "string",
              "name": "certificateHash",
              "type": "string"
            },
            {
              "internalType": "uint256",
              "name": "issuedAt",
              "type": "uint256"
            }
          ],
          "internalType": "struct CertificateStore.Certificate",
          "name": "",
          "type": "tuple"
        }
      ],
      "payable": false,
      "stateMutability": "view",
      "type": "function"
    },
    {
      "constant": true,
      "inputs": [],
      "name": "getOwnedCertificates",
      "outputs": [
        {
          "components": [
            {
              "internalType": "address",
              "name": "issuer",
              "type": "address"
            },
            {
              "internalType": "address",
              "name": "owner",
              "type": "address"
            },
            {
              "internalType": "string",
              "name": "title",
              "type": "string"
            },
            {
              "internalType": "string",
              "name": "certificateHash",
              "type": "string"
            },
            {
              "internalType": "uint256",
              "name": "issuedAt",
              "type": "uint256"
            }
          ],
          "internalType": "struct CertificateStore.Certificate[]",
          "name": "",
          "type": "tuple[]"
        }
      ],
      "payable": false,
      "stateMutability": "view",
      "type": "function"
    }
  ],
  "bytecode": "0x608060405260006100146100b760201b60201c565b9050806000806101000a81548173ffffffffffffffffffffffffffffffffffffffff021916908373ffffffffffffffffffffffffffffffffffffffff1602179055508073ffffffffffffffffffffffffffffffffffffffff16600073ffffffffffffffffffffffffffffffffffffffff167f8be0079c531659141344cd1fd0a4f28419497f9722a3daafe3b4186f6b6457e060405160405180910390a3506100bf565b600033905090565b611af0806100ce6000396000f3fe608060405234801561001057600080fd5b50600436106100935760003560e01c80638da5cb5b116100665780638da5cb5b146101235780638f32d59b14610141578063ace0ba9a1461015f578063e98ac4d81461017d578063f2fde38b1461019957610093565b806320694db0146100985780633aceed30146100b4578063663b3e22146100e5578063715018a614610119575b600080fd5b6100b260048036036100ad9190810190611334565b6101b5565b005b6100ce60048036036100c991908101906113e6565b610257565b6040516100dc9291906118b1565b60405180910390f35b6100ff60048036036100fa919081019061143e565b61059b565b604051610110959493929190611813565b60405180910390f35b61012161074e565b005b61012b610854565b60405161013891906117f8565b60405180910390f35b61014961087d565b6040516101569190611896565b60405180910390f35b6101676108db565b6040516101749190611874565b60405180910390f35b6101976004803603610192919081019061135d565b610c57565b005b6101b360048036036101ae9190810190611334565b610fdc565b005b6101bd61087d565b6101fc576040517f08c379a00000000000000000000000000000000000000000000000000000000081526004016101f390611921565b60405180910390fd5b6001600360008373ffffffffffffffffffffffffffffffffffffffff1673ffffffffffffffffffffffffffffffffffffffff16815260200190815260200160002060006101000a81548160ff02191690831515021790555050565b6000610261611165565b6000600286866040516102759291906117df565b908152602001604051809103902054905061028e611165565b6040518060a001604052803373ffffffffffffffffffffffffffffffffffffffff1681526020013373ffffffffffffffffffffffffffffffffffffffff168152602001604051806020016040528060008152508152602001604051806020016040528060008152508152602001428152509050600082141561031857600081935093505050610593565b610320611165565b6001838154811061032d57fe5b90600052602060002090600502016040518060a00160405290816000820160009054906101000a900473ffffffffffffffffffffffffffffffffffffffff1673ffffffffffffffffffffffffffffffffffffffff1673ffffffffffffffffffffffffffffffffffffffff1681526020016001820160009054906101000a900473ffffffffffffffffffffffffffffffffffffffff1673ffffffffffffffffffffffffffffffffffffffff1673ffffffffffffffffffffffffffffffffffffffff168152602001600282018054600181600116156101000203166002900480601f01602080910402602001604051908101604052809291908181526020018280546001816001161561010002031660029004801561048b5780601f106104605761010080835404028352916020019161048b565b820191906000526020600020905b81548152906001019060200180831161046e57829003601f168201915b50505050508152602001600382018054600181600116156101000203166002900480601f01602080910402602001604051908101604052809291908181526020018280546001816001161561010002031660029004801561052d5780601f106105025761010080835404028352916020019161052d565b820191906000526020600020905b81548152906001019060200180831161051057829003601f168201915b5050505050815260200160048201548152505090508573ffffffffffffffffffffffffffffffffffffffff16816020015173ffffffffffffffffffffffffffffffffffffffff16146105885760008294509450505050610593565b600181945094505050505b935093915050565b600181815481106105a857fe5b90600052602060002090600502016000915090508060000160009054906101000a900473ffffffffffffffffffffffffffffffffffffffff16908060010160009054906101000a900473ffffffffffffffffffffffffffffffffffffffff1690806002018054600181600116156101000203166002900480601f0160208091040260200160405190810160405280929190818152602001828054600181600116156101000203166002900480156106a05780601f10610675576101008083540402835291602001916106a0565b820191906000526020600020905b81548152906001019060200180831161068357829003601f168201915b505050505090806003018054600181600116156101000203166002900480601f01602080910402602001604051908101604052809291908181526020018280546001816001161561010002031660029004801561073e5780601f106107135761010080835404028352916020019161073e565b820191906000526020600020905b81548152906001019060200180831161072157829003601f168201915b5050505050908060040154905085565b61075661087d565b610795576040517f08c379a000000000000000000000000000000000000000000000000000000000815260040161078c90611921565b60405180910390fd5b600073ffffffffffffffffffffffffffffffffffffffff166000809054906101000a900473ffffffffffffffffffffffffffffffffffffffff1673ffffffffffffffffffffffffffffffffffffffff167f8be0079c531659141344cd1fd0a4f28419497f9722a3daafe3b4186f6b6457e060405160405180910390a360008060006101000a81548173ffffffffffffffffffffffffffffffffffffffff021916908373ffffffffffffffffffffffffffffffffffffffff160217905550565b60008060009054906101000a900473ffffffffffffffffffffffffffffffffffffffff16905090565b60008060009054906101000a900473ffffffffffffffffffffffffffffffffffffffff1673ffffffffffffffffffffffffffffffffffffffff166108bf61102f565b73ffffffffffffffffffffffffffffffffffffffff1614905090565b606080600460003373ffffffffffffffffffffffffffffffffffffffff1673ffffffffffffffffffffffffffffffffffffffff1681526020019081526020016000205460405190808252806020026020018201604052801561095757816020015b6109446111c0565b81526020019060019003908161093c5790505b50905060008090506000600180549050905060006001845103905060008090505b8281111580156109885750818414155b15610c4c573373ffffffffffffffffffffffffffffffffffffffff16600182815481106109b157fe5b906000526020600020906005020160010160009054906101000a900473ffffffffffffffffffffffffffffffffffffffff1673ffffffffffffffffffffffffffffffffffffffff161415610c3f5760018181548110610a0c57fe5b90600052602060002090600502016040518060a00160405290816000820160009054906101000a900473ffffffffffffffffffffffffffffffffffffffff1673ffffffffffffffffffffffffffffffffffffffff1673ffffffffffffffffffffffffffffffffffffffff1681526020016001820160009054906101000a900473ffffffffffffffffffffffffffffffffffffffff1673ffffffffffffffffffffffffffffffffffffffff1673ffffffffffffffffffffffffffffffffffffffff168152602001600282018054600181600116156101000203166002900480601f016020809104026020016040519081016040528092919081815260200182805460018160011615610100020316600290048015610b6a5780601f10610b3f57610100808354040283529160200191610b6a565b820191906000526020600020905b815481529060010190602001808311610b4d57829003601f168201915b50505050508152602001600382018054600181600116156101000203166002900480601f016020809104026020016040519081016040528092919081815260200182805460018160011615610100020316600290048015610c0c5780601f10610be157610100808354040283529160200191610c0c565b820191906000526020600020905b815481529060010190602001808311610bef57829003601f168201915b50505050508152602001600482015481525050858581518110610c2b57fe5b602002602001018190525083806001019450505b8080600101915050610978565b508394505050505090565b60011515600360003373ffffffffffffffffffffffffffffffffffffffff1673ffffffffffffffffffffffffffffffffffffffff16815260200190815260200160002060009054906101000a900460ff16151514610cea576040517f08c379a0000000000000000000000000000000000000000000000000000000008152600401610ce1906118e1565b60405180910390fd5b610cf2611165565b6040518060a001604052803373ffffffffffffffffffffffffffffffffffffffff1681526020018773ffffffffffffffffffffffffffffffffffffffff16815260200186868080601f016020809104026020016040519081016040528093929190818152602001838380828437600081840152601f19601f82011690508083019250505050505050815260200184848080601f016020809104026020016040519081016040528093929190818152602001838380828437600081840152601f19601f82011690508083019250505050505050815260200142815250905060006001829080600181540180825580915050906001820390600052602060002090600502016000909192909190915060008201518160000160006101000a81548173ffffffffffffffffffffffffffffffffffffffff021916908373ffffffffffffffffffffffffffffffffffffffff16021790555060208201518160010160006101000a81548173ffffffffffffffffffffffffffffffffffffffff021916908373ffffffffffffffffffffffffffffffffffffffff1602179055506040820151816002019080519060200190610ea992919061121b565b506060820151816003019080519060200190610ec692919061121b565b5060808201518160040155505090508060028585604051610ee89291906117df565b908152602001604051809103902081905550600460008873ffffffffffffffffffffffffffffffffffffffff1673ffffffffffffffffffffffffffffffffffffffff16815260200190815260200160002060008154809291906001019190505550600560003373ffffffffffffffffffffffffffffffffffffffff1673ffffffffffffffffffffffffffffffffffffffff168152602001908152602001600020600081548092919060010191905055507f33a43a5f40642b7962e152d8df96057d081da4482e7adef69ddf86e2dc9ae711818787604051610fcb93929190611941565b60405180910390a150505050505050565b610fe461087d565b611023576040517f08c379a000000000000000000000000000000000000000000000000000000000815260040161101a90611921565b60405180910390fd5b61102c81611037565b50565b600033905090565b600073ffffffffffffffffffffffffffffffffffffffff168173ffffffffffffffffffffffffffffffffffffffff1614156110a7576040517f08c379a000000000000000000000000000000000000000000000000000000000815260040161109e90611901565b60405180910390fd5b8073ffffffffffffffffffffffffffffffffffffffff166000809054906101000a900473ffffffffffffffffffffffffffffffffffffffff1673ffffffffffffffffffffffffffffffffffffffff167f8be0079c531659141344cd1fd0a4f28419497f9722a3daafe3b4186f6b6457e060405160405180910390a3806000806101000a81548173ffffffffffffffffffffffffffffffffffffffff021916908373ffffffffffffffffffffffffffffffffffffffff16021790555050565b6040518060a00160405280600073ffffffffffffffffffffffffffffffffffffffff168152602001600073ffffffffffffffffffffffffffffffffffffffff1681526020016060815260200160608152602001600081525090565b6040518060a00160405280600073ffffffffffffffffffffffffffffffffffffffff168152602001600073ffffffffffffffffffffffffffffffffffffffff1681526020016060815260200160608152602001600081525090565b828054600181600116156101000203166002900490600052602060002090601f016020900481019282601f1061125c57805160ff191683800117855561128a565b8280016001018555821561128a579182015b8281111561128957825182559160200191906001019061126e565b5b509050611297919061129b565b5090565b6112bd91905b808211156112b95760008160009055506001016112a1565b5090565b90565b6000813590506112cf81611a7f565b92915050565b60008083601f8401126112e757600080fd5b8235905067ffffffffffffffff81111561130057600080fd5b60208301915083600182028301111561131857600080fd5b9250929050565b60008135905061132e81611a96565b92915050565b60006020828403121561134657600080fd5b6000611354848285016112c0565b91505092915050565b60008060008060006060868803121561137557600080fd5b6000611383888289016112c0565b955050602086013567ffffffffffffffff8111156113a057600080fd5b6113ac888289016112d5565b9450945050604086013567ffffffffffffffff8111156113cb57600080fd5b6113d7888289016112d5565b92509250509295509295909350565b6000806000604084860312156113fb57600080fd5b600084013567ffffffffffffffff81111561141557600080fd5b611421868287016112d5565b93509350506020611434868287016112c0565b9150509250925092565b60006020828403121561145057600080fd5b600061145e8482850161131f565b91505092915050565b60006114738383611744565b905092915050565b611484816119e4565b82525050565b611493816119e4565b82525050565b60006114a482611983565b6114ae81856119a6565b9350836020820285016114c085611973565b8060005b858110156114fc57848403895281516114dd8582611467565b94506114e883611999565b925060208a019950506001810190506114c4565b50829750879550505050505092915050565b611517816119f6565b82525050565b600061152983856119c8565b9350611536838584611a2c565b61153f83611a6e565b840190509392505050565b600061155683856119d9565b9350611563838584611a2c565b82840190509392505050565b600061157a8261198e565b61158481856119b7565b9350611594818560208601611a3b565b61159d81611a6e565b840191505092915050565b60006115b38261198e565b6115bd81856119c8565b93506115cd818560208601611a3b565b6115d681611a6e565b840191505092915050565b60006115ee6016836119c8565b91507f497373756572206973206e6f7420747275737465642e000000000000000000006000830152602082019050919050565b600061162e6026836119c8565b91507f4f776e61626c653a206e6577206f776e657220697320746865207a65726f206160008301527f64647265737300000000000000000000000000000000000000000000000000006020830152604082019050919050565b60006116946020836119c8565b91507f4f776e61626c653a2063616c6c6572206973206e6f7420746865206f776e65726000830152602082019050919050565b600060a0830160008301516116df600086018261147b565b5060208301516116f2602086018261147b565b506040830151848203604086015261170a828261156f565b91505060608301518482036060860152611724828261156f565b915050608083015161173960808601826117c1565b508091505092915050565b600060a08301600083015161175c600086018261147b565b50602083015161176f602086018261147b565b5060408301518482036040860152611787828261156f565b915050606083015184820360608601526117a1828261156f565b91505060808301516117b660808601826117c1565b508091505092915050565b6117ca81611a22565b82525050565b6117d981611a22565b82525050565b60006117ec82848661154a565b91508190509392505050565b600060208201905061180d600083018461148a565b92915050565b600060a082019050611828600083018861148a565b611835602083018761148a565b818103604083015261184781866115a8565b9050818103606083015261185b81856115a8565b905061186a60808301846117d0565b9695505050505050565b6000602082019050818103600083015261188e8184611499565b905092915050565b60006020820190506118ab600083018461150e565b92915050565b60006040820190506118c6600083018561150e565b81810360208301526118d881846116c7565b90509392505050565b600060208201905081810360008301526118fa816115e1565b9050919050565b6000602082019050818103600083015261191a81611621565b9050919050565b6000602082019050818103600083015261193a81611687565b9050919050565b600060408201905061195660008301866117d0565b818103602083015261196981848661151d565b9050949350505050565b6000819050602082019050919050565b600081519050919050565b600081519050919050565b6000602082019050919050565b600082825260208201905092915050565b600082825260208201905092915050565b600082825260208201905092915050565b600081905092915050565b60006119ef82611a02565b9050919050565b60008115159050919050565b600073ffffffffffffffffffffffffffffffffffffffff82169050919050565b6000819050919050565b82818337600083830152505050565b60005b83811015611a59578082015181840152602081019050611a3e565b83811115611a68576000848401525b50505050565b6000601f19601f8301169050919050565b611a88816119e4565b8114611a9357600080fd5b50565b611a9f81611a22565b8114611aaa57600080fd5b5056fea365627a7a7231582094d24124421bfad710c7987177929514237b88fb1444d1345c2d7b0b6cace59d6c6578706572696d656e74616cf564736f6c63430005100040",
  "source": "pragma solidity >=0.5.0 <0.6.0;\npragma experimental ABIEncoderV2;\n\nimport \"openzeppelin-solidity/contracts/ownership/Ownable.sol\";\n\ncontract CertificateStore is Ownable {\n    event CertificateStored(uint _id, string _title);\n\n    struct Certificate {\n        address issuer;\n        address owner;\n        string title;\n        string certificateHash;\n        uint256 issuedAt;\n    }\n\n    // All the issued certificates\n    Certificate[] public certificates;\n    // A way to fetch certificates through its hash\n    mapping(string => uint) internal certificateHashToCertificate;\n    // Trusted issuer is a mapping on order to disable the right to issue certificate to an entity\n    mapping(address => bool) internal trustedIssuer;\n    // Number of owned certificates and issued certificates\n    mapping(address => uint) internal certificateCount;\n    mapping(address => uint) internal issuedCertificateCount;\n\n    modifier isTrustedIssuer() {\n        require(trustedIssuer[msg.sender] == true, 'Issuer is not trusted.');\n        _;\n    }\n\n    function issueCertificate(address _owner, string calldata _title, string calldata _certHash) external isTrustedIssuer {\n        Certificate memory certificate = Certificate(msg.sender, _owner, _title, _certHash, now);\n\n        uint id = certificates.push(certificate);\n        certificateHashToCertificate[_certHash] = id;\n\n        certificateCount[_owner]++;\n        issuedCertificateCount[msg.sender]++;\n\n        emit CertificateStored(id, _title);\n    }\n\n    function addIssuer(address _issuer) external onlyOwner {\n        trustedIssuer[_issuer] = true;\n    }\n\n    function authenticateHash(string calldata _certHash, address _pretendedOwner) external view returns (bool, Certificate memory) {\n        uint certId = certificateHashToCertificate[_certHash];\n        Certificate memory emptyCert = Certificate(msg.sender, msg.sender, '', '', now);\n\n        if(certId == 0) {\n            return (false, emptyCert);\n        }\n\n        Certificate memory foundCertificate = certificates[certId];\n\n        if(foundCertificate.owner != _pretendedOwner) {\n            return (false, emptyCert);\n        }\n\n        return (true, foundCertificate);\n    }\n\n    function getOwnedCertificates() external view returns (Certificate[] memory) {\n        Certificate[] memory ownedCertificates = new Certificate[](certificateCount[msg.sender]);\n        uint current = 0;\n        uint certificateLength = certificates.length;\n        uint ownedLimit = ownedCertificates.length - 1;\n\n        for (uint i = 0; i <= certificateLength && current != ownedLimit; i++) {\n            if (certificates[i].owner == msg.sender) {\n                ownedCertificates[current] = certificates[i];\n                current++;\n            }\n        }\n\n        return ownedCertificates;\n    }\n}\n",
  "sourcePath": "/home/guillaume/Ynov/M1_Blockchain/certynov/certynov/contracts/CertificateStore.sol",
  "compiler": {
    "name": "solc",
    "version": "0.5.16+commit.9c3226ce.Emscripten.clang"
  },
  "schemaVersion": "3.0.23",
  "updatedAt": "2020-04-09T15:22:26.265Z",
  "networkType": "ethereum",
  "devdoc": {
    "methods": {
      "isOwner()": {
        "details": "Returns true if the caller is the current owner."
      },
      "owner()": {
        "details": "Returns the address of the current owner."
      },
      "renounceOwnership()": {
        "details": "Leaves the contract without owner. It will not be possible to call `onlyOwner` functions anymore. Can only be called by the current owner.     * NOTE: Renouncing ownership will leave the contract without an owner, thereby removing any functionality that is only available to the owner."
      },
      "transferOwnership(address)": {
        "details": "Transfers ownership of the contract to a new account (`newOwner`). Can only be called by the current owner."
      }
    }
  },
  "userdoc": {
    "methods": {}
  }
}