{
  "contractName": "CertificateStore",
  "abi": [
    {
      "anonymous": false,
      "inputs": [
        {
          "indexed": false,
          "internalType": "uint256",
          "name": "_id",
          "type": "uint256"
        },
        {
          "indexed": false,
          "internalType": "string",
          "name": "_title",
          "type": "string"
        }
      ],
      "name": "CertificateStored",
      "type": "event"
    },
    {
      "anonymous": false,
      "inputs": [
        {
          "indexed": true,
          "internalType": "address",
          "name": "previousOwner",
          "type": "address"
        },
        {
          "indexed": true,
          "internalType": "address",
          "name": "newOwner",
          "type": "address"
        }
      ],
      "name": "OwnershipTransferred",
      "type": "event"
    },
    {
      "constant": true,
      "inputs": [
        {
          "internalType": "uint256",
          "name": "",
          "type": "uint256"
        }
      ],
      "name": "certificates",
      "outputs": [
        {
          "internalType": "address",
          "name": "issuer",
          "type": "address"
        },
        {
          "internalType": "address",
          "name": "owner",
          "type": "address"
        },
        {
          "internalType": "string",
          "name": "title",
          "type": "string"
        },
        {
          "internalType": "string",
          "name": "certificateHash",
          "type": "string"
        },
        {
          "internalType": "uint256",
          "name": "issuedAt",
          "type": "uint256"
        }
      ],
      "payable": false,
      "stateMutability": "view",
      "type": "function"
    },
    {
      "constant": true,
      "inputs": [],
      "name": "isOwner",
      "outputs": [
        {
          "internalType": "bool",
          "name": "",
          "type": "bool"
        }
      ],
      "payable": false,
      "stateMutability": "view",
      "type": "function"
    },
    {
      "constant": true,
      "inputs": [],
      "name": "owner",
      "outputs": [
        {
          "internalType": "address",
          "name": "",
          "type": "address"
        }
      ],
      "payable": false,
      "stateMutability": "view",
      "type": "function"
    },
    {
      "constant": false,
      "inputs": [],
      "name": "renounceOwnership",
      "outputs": [],
      "payable": false,
      "stateMutability": "nonpayable",
      "type": "function"
    },
    {
      "constant": false,
      "inputs": [
        {
          "internalType": "address",
          "name": "newOwner",
          "type": "address"
        }
      ],
      "name": "transferOwnership",
      "outputs": [],
      "payable": false,
      "stateMutability": "nonpayable",
      "type": "function"
    },
    {
      "constant": false,
      "inputs": [
        {
          "internalType": "address",
          "name": "_issuer",
          "type": "address"
        }
      ],
      "name": "addIssuer",
      "outputs": [],
      "payable": false,
      "stateMutability": "nonpayable",
      "type": "function"
    },
    {
      "constant": false,
      "inputs": [
        {
          "internalType": "address",
          "name": "_issuer",
          "type": "address"
        }
      ],
      "name": "revokeIssuer",
      "outputs": [],
      "payable": false,
      "stateMutability": "nonpayable",
      "type": "function"
    },
    {
      "constant": true,
      "inputs": [],
      "name": "isTrustedIssuer",
      "outputs": [
        {
          "internalType": "bool",
          "name": "isTrusted",
          "type": "bool"
        }
      ],
      "payable": false,
      "stateMutability": "view",
      "type": "function"
    },
    {
      "constant": false,
      "inputs": [
        {
          "internalType": "address",
          "name": "_owner",
          "type": "address"
        },
        {
          "internalType": "string",
          "name": "_title",
          "type": "string"
        },
        {
          "internalType": "string",
          "name": "_certHash",
          "type": "string"
        }
      ],
      "name": "issueCertificate",
      "outputs": [],
      "payable": false,
      "stateMutability": "nonpayable",
      "type": "function"
    },
    {
      "constant": false,
      "inputs": [
        {
          "internalType": "string",
          "name": "_certHash",
          "type": "string"
        },
        {
          "internalType": "address",
          "name": "_pretendedOwner",
          "type": "address"
        }
      ],
      "name": "authenticateHash",
      "outputs": [
        {
          "internalType": "bool",
          "name": "authenticated",
          "type": "bool"
        },
        {
          "internalType": "uint256",
          "name": "authenticatedCertificateId",
          "type": "uint256"
        }
      ],
      "payable": false,
      "stateMutability": "nonpayable",
      "type": "function"
    },
    {
      "constant": true,
      "inputs": [
        {
          "internalType": "uint256",
          "name": "_certId",
          "type": "uint256"
        }
      ],
      "name": "getCertificateById",
      "outputs": [
        {
          "components": [
            {
              "internalType": "address",
              "name": "issuer",
              "type": "address"
            },
            {
              "internalType": "address",
              "name": "owner",
              "type": "address"
            },
            {
              "internalType": "string",
              "name": "title",
              "type": "string"
            },
            {
              "internalType": "string",
              "name": "certificateHash",
              "type": "string"
            },
            {
              "internalType": "uint256",
              "name": "issuedAt",
              "type": "uint256"
            }
          ],
          "internalType": "struct CertificateStore.Certificate",
          "name": "allCertificates",
          "type": "tuple"
        }
      ],
      "payable": false,
      "stateMutability": "view",
      "type": "function"
    },
    {
      "constant": true,
      "inputs": [],
      "name": "getOwnedCertificatesId",
      "outputs": [
        {
          "internalType": "uint256[]",
          "name": "ownedCertificates",
          "type": "uint256[]"
        }
      ],
      "payable": false,
      "stateMutability": "view",
      "type": "function"
    }
  ],
  "bytecode": "0x608060405260006100146100b760201b60201c565b9050806000806101000a81548173ffffffffffffffffffffffffffffffffffffffff021916908373ffffffffffffffffffffffffffffffffffffffff1602179055508073ffffffffffffffffffffffffffffffffffffffff16600073ffffffffffffffffffffffffffffffffffffffff167f8be0079c531659141344cd1fd0a4f28419497f9722a3daafe3b4186f6b6457e060405160405180910390a3506100bf565b600033905090565b611977806100ce6000396000f3fe608060405234801561001057600080fd5b50600436106100b35760003560e01c80638d062458116100715780638d0624581461017d5780638da5cb5b1461019b5780638f32d59b146101b95780639d735caf146101d7578063e98ac4d814610207578063f2fde38b14610223576100b3565b8062629679146100b857806320694db0146100d45780633aceed30146100f057806364b3300314610121578063663b3e221461013f578063715018a614610173575b600080fd5b6100d260048036036100cd9190810190611180565b61023f565b005b6100ee60048036036100e99190810190611180565b6102e1565b005b61010a60048036036101059190810190611228565b610383565b6040516101189291906116a7565b60405180910390f35b6101296104c4565b604051610136919061166a565b60405180910390f35b6101596004803603610154919081019061127c565b61060b565b60405161016a959493929190611609565b60405180910390f35b61017b6107be565b005b6101856108c4565b604051610192919061168c565b60405180910390f35b6101a3610918565b6040516101b091906115ee565b60405180910390f35b6101c1610941565b6040516101ce919061168c565b60405180910390f35b6101f160048036036101ec919081019061127c565b61099f565b6040516101fe9190611730565b60405180910390f35b610221600480360361021c91908101906111a9565b610bce565b005b61023d60048036036102389190810190611180565b610e79565b005b610247610941565b610286576040517f08c379a000000000000000000000000000000000000000000000000000000000815260040161027d90611710565b60405180910390fd5b6000600360008373ffffffffffffffffffffffffffffffffffffffff1673ffffffffffffffffffffffffffffffffffffffff16815260200190815260200160002060006101000a81548160ff02191690831515021790555050565b6102e9610941565b610328576040517f08c379a000000000000000000000000000000000000000000000000000000000815260040161031f90611710565b60405180910390fd5b6001600360008373ffffffffffffffffffffffffffffffffffffffff1673ffffffffffffffffffffffffffffffffffffffff16815260200190815260200160002060006101000a81548160ff02191690831515021790555050565b600080600060028560405161039891906115d7565b908152602001604051809103902054905060008114156103c25760008080905092509250506104bd565b600181815481106103cf57fe5b906000526020600020906005020160010160009054906101000a900473ffffffffffffffffffffffffffffffffffffffff1673ffffffffffffffffffffffffffffffffffffffff1660001b8473ffffffffffffffffffffffffffffffffffffffff1660001b60405161044191906115bc565b60405180910390a16001818154811061045657fe5b906000526020600020906005020160010160009054906101000a900473ffffffffffffffffffffffffffffffffffffffff1673ffffffffffffffffffffffffffffffffffffffff168473ffffffffffffffffffffffffffffffffffffffff16148192509250505b9250929050565b606080600460003373ffffffffffffffffffffffffffffffffffffffff1673ffffffffffffffffffffffffffffffffffffffff168152602001908152602001600020546040519080825280602002602001820160405280156105355781602001602082028038833980820191505090505b509050600080905060008090505b600180549050811115801561055c575060018351038214155b15610602573373ffffffffffffffffffffffffffffffffffffffff166001828154811061058557fe5b906000526020600020906005020160010160009054906101000a900473ffffffffffffffffffffffffffffffffffffffff1673ffffffffffffffffffffffffffffffffffffffff1614156105f557808383815181106105e057fe5b60200260200101818152505081806001019250505b8080600101915050610543565b50819250505090565b6001818154811061061857fe5b90600052602060002090600502016000915090508060000160009054906101000a900473ffffffffffffffffffffffffffffffffffffffff16908060010160009054906101000a900473ffffffffffffffffffffffffffffffffffffffff1690806002018054600181600116156101000203166002900480601f0160208091040260200160405190810160405280929190818152602001828054600181600116156101000203166002900480156107105780601f106106e557610100808354040283529160200191610710565b820191906000526020600020905b8154815290600101906020018083116106f357829003601f168201915b505050505090806003018054600181600116156101000203166002900480601f0160208091040260200160405190810160405280929190818152602001828054600181600116156101000203166002900480156107ae5780601f10610783576101008083540402835291602001916107ae565b820191906000526020600020905b81548152906001019060200180831161079157829003601f168201915b5050505050908060040154905085565b6107c6610941565b610805576040517f08c379a00000000000000000000000000000000000000000000000000000000081526004016107fc90611710565b60405180910390fd5b600073ffffffffffffffffffffffffffffffffffffffff166000809054906101000a900473ffffffffffffffffffffffffffffffffffffffff1673ffffffffffffffffffffffffffffffffffffffff167f8be0079c531659141344cd1fd0a4f28419497f9722a3daafe3b4186f6b6457e060405160405180910390a360008060006101000a81548173ffffffffffffffffffffffffffffffffffffffff021916908373ffffffffffffffffffffffffffffffffffffffff160217905550565b6000600360003373ffffffffffffffffffffffffffffffffffffffff1673ffffffffffffffffffffffffffffffffffffffff16815260200190815260200160002060009054906101000a900460ff16905090565b60008060009054906101000a900473ffffffffffffffffffffffffffffffffffffffff16905090565b60008060009054906101000a900473ffffffffffffffffffffffffffffffffffffffff1673ffffffffffffffffffffffffffffffffffffffff16610983610ecc565b73ffffffffffffffffffffffffffffffffffffffff1614905090565b6109a7611002565b600182815481106109b457fe5b90600052602060002090600502016040518060a00160405290816000820160009054906101000a900473ffffffffffffffffffffffffffffffffffffffff1673ffffffffffffffffffffffffffffffffffffffff1673ffffffffffffffffffffffffffffffffffffffff1681526020016001820160009054906101000a900473ffffffffffffffffffffffffffffffffffffffff1673ffffffffffffffffffffffffffffffffffffffff1673ffffffffffffffffffffffffffffffffffffffff168152602001600282018054600181600116156101000203166002900480601f016020809104026020016040519081016040528092919081815260200182805460018160011615610100020316600290048015610b125780601f10610ae757610100808354040283529160200191610b12565b820191906000526020600020905b815481529060010190602001808311610af557829003601f168201915b50505050508152602001600382018054600181600116156101000203166002900480601f016020809104026020016040519081016040528092919081815260200182805460018160011615610100020316600290048015610bb45780601f10610b8957610100808354040283529160200191610bb4565b820191906000526020600020905b815481529060010190602001808311610b9757829003601f168201915b505050505081526020016004820154815250509050919050565b610bd66108c4565b610c15576040517f08c379a0000000000000000000000000000000000000000000000000000000008152600401610c0c906116d0565b60405180910390fd5b610c1d611002565b6040518060a001604052803373ffffffffffffffffffffffffffffffffffffffff1681526020018573ffffffffffffffffffffffffffffffffffffffff16815260200184815260200183815260200142815250905060006001829080600181540180825580915050906001820390600052602060002090600502016000909192909190915060008201518160000160006101000a81548173ffffffffffffffffffffffffffffffffffffffff021916908373ffffffffffffffffffffffffffffffffffffffff16021790555060208201518160010160006101000a81548173ffffffffffffffffffffffffffffffffffffffff021916908373ffffffffffffffffffffffffffffffffffffffff1602179055506040820151816002019080519060200190610d4c92919061105d565b506060820151816003019080519060200190610d6992919061105d565b50608082015181600401555050905080600284604051610d8991906115d7565b908152602001604051809103902081905550600460008673ffffffffffffffffffffffffffffffffffffffff1673ffffffffffffffffffffffffffffffffffffffff16815260200190815260200160002060008154809291906001019190505550600560003373ffffffffffffffffffffffffffffffffffffffff1673ffffffffffffffffffffffffffffffffffffffff168152602001908152602001600020600081548092919060010191905055507f33a43a5f40642b7962e152d8df96057d081da4482e7adef69ddf86e2dc9ae7118185604051610e6a929190611752565b60405180910390a15050505050565b610e81610941565b610ec0576040517f08c379a0000000000000000000000000000000000000000000000000000000008152600401610eb790611710565b60405180910390fd5b610ec981610ed4565b50565b600033905090565b600073ffffffffffffffffffffffffffffffffffffffff168173ffffffffffffffffffffffffffffffffffffffff161415610f44576040517f08c379a0000000000000000000000000000000000000000000000000000000008152600401610f3b906116f0565b60405180910390fd5b8073ffffffffffffffffffffffffffffffffffffffff166000809054906101000a900473ffffffffffffffffffffffffffffffffffffffff1673ffffffffffffffffffffffffffffffffffffffff167f8be0079c531659141344cd1fd0a4f28419497f9722a3daafe3b4186f6b6457e060405160405180910390a3806000806101000a81548173ffffffffffffffffffffffffffffffffffffffff021916908373ffffffffffffffffffffffffffffffffffffffff16021790555050565b6040518060a00160405280600073ffffffffffffffffffffffffffffffffffffffff168152602001600073ffffffffffffffffffffffffffffffffffffffff1681526020016060815260200160608152602001600081525090565b828054600181600116156101000203166002900490600052602060002090601f016020900481019282601f1061109e57805160ff19168380011785556110cc565b828001600101855582156110cc579182015b828111156110cb5782518255916020019190600101906110b0565b5b5090506110d991906110dd565b5090565b6110ff91905b808211156110fb5760008160009055506001016110e3565b5090565b90565b60008135905061111181611906565b92915050565b600082601f83011261112857600080fd5b813561113b611136826117af565b611782565b9150808252602083016020830185838301111561115757600080fd5b6111628382846118a9565b50505092915050565b60008135905061117a8161191d565b92915050565b60006020828403121561119257600080fd5b60006111a084828501611102565b91505092915050565b6000806000606084860312156111be57600080fd5b60006111cc86828701611102565b935050602084013567ffffffffffffffff8111156111e957600080fd5b6111f586828701611117565b925050604084013567ffffffffffffffff81111561121257600080fd5b61121e86828701611117565b9150509250925092565b6000806040838503121561123b57600080fd5b600083013567ffffffffffffffff81111561125557600080fd5b61126185828601611117565b925050602061127285828601611102565b9150509250929050565b60006020828403121561128e57600080fd5b600061129c8482850161116b565b91505092915050565b60006112b1838361159e565b60208301905092915050565b6112c681611857565b82525050565b6112d581611857565b82525050565b60006112e6826117eb565b6112f08185611819565b93506112fb836117db565b8060005b8381101561132c57815161131388826112a5565b975061131e8361180c565b9250506001810190506112ff565b5085935050505092915050565b61134281611869565b82525050565b61135961135482611875565b6118eb565b82525050565b600061136a82611801565b611374818561183b565b93506113848185602086016118b8565b61138d816118f5565b840191505092915050565b60006113a382611801565b6113ad818561184c565b93506113bd8185602086016118b8565b80840191505092915050565b60006113d4826117f6565b6113de818561182a565b93506113ee8185602086016118b8565b6113f7816118f5565b840191505092915050565b600061140d826117f6565b611417818561183b565b93506114278185602086016118b8565b611430816118f5565b840191505092915050565b600061144860168361183b565b91507f497373756572206973206e6f7420747275737465642e000000000000000000006000830152602082019050919050565b600061148860268361183b565b91507f4f776e61626c653a206e6577206f776e657220697320746865207a65726f206160008301527f64647265737300000000000000000000000000000000000000000000000000006020830152604082019050919050565b60006114ee60208361183b565b91507f4f776e61626c653a2063616c6c6572206973206e6f7420746865206f776e65726000830152602082019050919050565b600060a08301600083015161153960008601826112bd565b50602083015161154c60208601826112bd565b506040830151848203604086015261156482826113c9565b9150506060830151848203606086015261157e82826113c9565b9150506080830151611593608086018261159e565b508091505092915050565b6115a78161189f565b82525050565b6115b68161189f565b82525050565b60006115c88284611348565b60208201915081905092915050565b60006115e38284611398565b915081905092915050565b600060208201905061160360008301846112cc565b92915050565b600060a08201905061161e60008301886112cc565b61162b60208301876112cc565b818103604083015261163d8186611402565b905081810360608301526116518185611402565b905061166060808301846115ad565b9695505050505050565b6000602082019050818103600083015261168481846112db565b905092915050565b60006020820190506116a16000830184611339565b92915050565b60006040820190506116bc6000830185611339565b6116c960208301846115ad565b9392505050565b600060208201905081810360008301526116e98161143b565b9050919050565b600060208201905081810360008301526117098161147b565b9050919050565b60006020820190508181036000830152611729816114e1565b9050919050565b6000602082019050818103600083015261174a8184611521565b905092915050565b600060408201905061176760008301856115ad565b8181036020830152611779818461135f565b90509392505050565b6000604051905081810181811067ffffffffffffffff821117156117a557600080fd5b8060405250919050565b600067ffffffffffffffff8211156117c657600080fd5b601f19601f8301169050602081019050919050565b6000819050602082019050919050565b600081519050919050565b600081519050919050565b600081519050919050565b6000602082019050919050565b600082825260208201905092915050565b600082825260208201905092915050565b600082825260208201905092915050565b600081905092915050565b60006118628261187f565b9050919050565b60008115159050919050565b6000819050919050565b600073ffffffffffffffffffffffffffffffffffffffff82169050919050565b6000819050919050565b82818337600083830152505050565b60005b838110156118d65780820151818401526020810190506118bb565b838111156118e5576000848401525b50505050565b6000819050919050565b6000601f19601f8301169050919050565b61190f81611857565b811461191a57600080fd5b50565b6119268161189f565b811461193157600080fd5b5056fea365627a7a72315820129f02e4288ea92507b76cde39c7922bce116e44332ceb31eb9fefe10857b3456c6578706572696d656e74616cf564736f6c63430005100040",
  "source": "pragma solidity >=0.5.0 <0.6.0;\npragma experimental ABIEncoderV2;\n\nimport \"openzeppelin-solidity/contracts/ownership/Ownable.sol\";\n\ncontract CertificateStore is Ownable {\n    event CertificateStored(uint _id, string _title);\n\n    struct Certificate {\n        address issuer;\n        address owner;\n        string title;\n        string certificateHash;\n        uint256 issuedAt;\n    }\n\n    // All the issued certificates\n    Certificate[] public certificates;\n    // A way to fetch certificates through its hash\n    mapping(string => uint) internal certificateHashToCertificate;\n    // Trusted issuer is a mapping on order to disable the right to issue certificate to an entity\n    mapping(address => bool) internal trustedIssuer;\n    // Number of owned certificates and issued certificates\n    mapping(address => uint) internal certificateCount;\n    mapping(address => uint) internal issuedCertificateCount;\n\n    /**\n    * @dev Add a new trusted issuer\n    */\n    function addIssuer(address _issuer) public onlyOwner {\n        trustedIssuer[_issuer] = true;\n    }\n\n    /**\n    * @dev Revoke an existing issuer\n    */\n    function revokeIssuer(address _issuer) public onlyOwner {\n        trustedIssuer[_issuer] = false;\n    }\n\n    /**\n    * @dev Returns true if the caller is a trusted issuer\n    */\n    function isTrustedIssuer() public view returns (bool isTrusted) {\n        return trustedIssuer[msg.sender];\n    }\n\n    /**\n    * @dev Throws if called by any account other than a trusted issuer.\n    */\n    modifier onlyTrustedIssuer() {\n        require(isTrustedIssuer(), 'Issuer is not trusted.');\n        _;\n    }\n\n    /**\n    * @dev Issue a new certificate from input data (only trusted issuer)\n    */\n    function issueCertificate(address _owner, string memory _title, string memory _certHash) public onlyTrustedIssuer {\n        Certificate memory certificate = Certificate(msg.sender, _owner, _title, _certHash, now);\n\n        uint id = certificates.push(certificate);\n        certificateHashToCertificate[_certHash] = id;\n\n        certificateCount[_owner]++;\n        issuedCertificateCount[msg.sender]++;\n\n        emit CertificateStored(id, _title);\n    }\n\n    /**\n    * @dev Returns true and the certificate id if the given certificate hash and the pretended owner match\n    */\n    function authenticateHash(string memory _certHash, address _pretendedOwner) public returns (bool authenticated, uint authenticatedCertificateId) {\n        uint certId = certificateHashToCertificate[_certHash];\n\n        // invalid hash\n        if(certId == 0) {\n            return (false, 0);\n        }\n\n        log1(bytes32(uint256(_pretendedOwner)), bytes32(uint256(certificates[certId].owner)));\n        return (_pretendedOwner == certificates[certId].owner, certId);\n    }\n\n    /**\n    * @dev Return certificate matching th given id;\n    */\n    function getCertificateById(uint _certId) public view returns(Certificate memory allCertificates) {\n        return certificates[_certId];\n    }\n\n    /**\n    * @dev Returns certificates owned by the caller\n    */\n    function getOwnedCertificatesId() public view returns (uint[] memory ownedCertificates) {\n        uint[] memory _ownedCertificates = new uint[](certificateCount[msg.sender]);\n        uint current = 0;\n\n        for (uint i = 0; i <= certificates.length && current != _ownedCertificates.length - 1; i++) {\n            if (certificates[i].owner == msg.sender) {\n                _ownedCertificates[current] = i;\n                current++;\n            }\n        }\n\n        return _ownedCertificates;\n    }\n}\n",
  "sourcePath": "/home/guillaume/Ynov/M1_Blockchain/certynov/certynov/contracts/CertificateStore.sol",
  "compiler": {
    "name": "solc",
    "version": "0.5.16+commit.9c3226ce.Emscripten.clang"
  },
  "schemaVersion": "3.0.23",
  "updatedAt": "2020-04-10T13:31:07.215Z",
  "networkType": "ethereum",
  "devdoc": {
    "methods": {
      "addIssuer(address)": {
        "details": "Add a new trusted issuer"
      },
      "authenticateHash(string,address)": {
        "details": "Returns true and the certificate id if the given certificate hash and the pretended owner match"
      },
      "getCertificateById(uint256)": {
        "details": "Return certificate matching th given id;"
      },
      "getOwnedCertificatesId()": {
        "details": "Returns certificates owned by the caller"
      },
      "isOwner()": {
        "details": "Returns true if the caller is the current owner."
      },
      "isTrustedIssuer()": {
        "details": "Returns true if the caller is a trusted issuer"
      },
      "issueCertificate(address,string,string)": {
        "details": "Issue a new certificate from input data (only trusted issuer)"
      },
      "owner()": {
        "details": "Returns the address of the current owner."
      },
      "renounceOwnership()": {
        "details": "Leaves the contract without owner. It will not be possible to call `onlyOwner` functions anymore. Can only be called by the current owner.     * NOTE: Renouncing ownership will leave the contract without an owner, thereby removing any functionality that is only available to the owner."
      },
      "revokeIssuer(address)": {
        "details": "Revoke an existing issuer"
      },
      "transferOwnership(address)": {
        "details": "Transfers ownership of the contract to a new account (`newOwner`). Can only be called by the current owner."
      }
    }
  },
  "userdoc": {
    "methods": {}
  }
}