{
  "contractName": "CertificateStore",
  "abi": [
    {
      "anonymous": false,
      "inputs": [
        {
          "indexed": false,
          "internalType": "uint256",
          "name": "_id",
          "type": "uint256"
        },
        {
          "indexed": false,
          "internalType": "string",
          "name": "_title",
          "type": "string"
        }
      ],
      "name": "CertificateStored",
      "type": "event"
    },
    {
      "anonymous": false,
      "inputs": [
        {
          "indexed": true,
          "internalType": "address",
          "name": "previousOwner",
          "type": "address"
        },
        {
          "indexed": true,
          "internalType": "address",
          "name": "newOwner",
          "type": "address"
        }
      ],
      "name": "OwnershipTransferred",
      "type": "event"
    },
    {
      "anonymous": false,
      "inputs": [
        {
          "indexed": false,
          "internalType": "address",
          "name": "_issuer",
          "type": "address"
        },
        {
          "indexed": false,
          "internalType": "string",
          "name": "_organization",
          "type": "string"
        }
      ],
      "name": "TrustedIssuer",
      "type": "event"
    },
    {
      "anonymous": false,
      "inputs": [
        {
          "indexed": false,
          "internalType": "address",
          "name": "_issuer",
          "type": "address"
        },
        {
          "indexed": false,
          "internalType": "string",
          "name": "_organization",
          "type": "string"
        }
      ],
      "name": "UntrustedIssuer",
      "type": "event"
    },
    {
      "constant": false,
      "inputs": [
        {
          "internalType": "address",
          "name": "_issuer",
          "type": "address"
        },
        {
          "internalType": "string",
          "name": "_organization",
          "type": "string"
        }
      ],
      "name": "addIssuer",
      "outputs": [],
      "payable": false,
      "stateMutability": "nonpayable",
      "type": "function"
    },
    {
      "constant": true,
      "inputs": [
        {
          "internalType": "string",
          "name": "_certHash",
          "type": "string"
        },
        {
          "internalType": "address",
          "name": "_pretendedOwner",
          "type": "address"
        }
      ],
      "name": "authenticateHash",
      "outputs": [
        {
          "internalType": "bool",
          "name": "authenticated",
          "type": "bool"
        },
        {
          "internalType": "uint256",
          "name": "authenticatedCertificateId",
          "type": "uint256"
        }
      ],
      "payable": false,
      "stateMutability": "view",
      "type": "function"
    },
    {
      "constant": true,
      "inputs": [
        {
          "internalType": "uint256",
          "name": "",
          "type": "uint256"
        }
      ],
      "name": "certificates",
      "outputs": [
        {
          "internalType": "address",
          "name": "issuer",
          "type": "address"
        },
        {
          "internalType": "address",
          "name": "owner",
          "type": "address"
        },
        {
          "internalType": "string",
          "name": "title",
          "type": "string"
        },
        {
          "internalType": "string",
          "name": "certificateHash",
          "type": "string"
        },
        {
          "internalType": "uint256",
          "name": "issuedAt",
          "type": "uint256"
        },
        {
          "internalType": "bool",
          "name": "exist",
          "type": "bool"
        }
      ],
      "payable": false,
      "stateMutability": "view",
      "type": "function"
    },
    {
      "constant": true,
      "inputs": [],
      "name": "isOwner",
      "outputs": [
        {
          "internalType": "bool",
          "name": "",
          "type": "bool"
        }
      ],
      "payable": false,
      "stateMutability": "view",
      "type": "function"
    },
    {
      "constant": true,
      "inputs": [],
      "name": "isTrustedIssuer",
      "outputs": [
        {
          "internalType": "bool",
          "name": "isTrusted",
          "type": "bool"
        }
      ],
      "payable": false,
      "stateMutability": "view",
      "type": "function"
    },
    {
      "constant": false,
      "inputs": [
        {
          "internalType": "address",
          "name": "_owner",
          "type": "address"
        },
        {
          "internalType": "string",
          "name": "_title",
          "type": "string"
        },
        {
          "internalType": "string",
          "name": "_certHash",
          "type": "string"
        }
      ],
      "name": "issueCertificate",
      "outputs": [],
      "payable": false,
      "stateMutability": "nonpayable",
      "type": "function"
    },
    {
      "constant": true,
      "inputs": [],
      "name": "owner",
      "outputs": [
        {
          "internalType": "address",
          "name": "",
          "type": "address"
        }
      ],
      "payable": false,
      "stateMutability": "view",
      "type": "function"
    },
    {
      "constant": false,
      "inputs": [],
      "name": "renounceOwnership",
      "outputs": [],
      "payable": false,
      "stateMutability": "nonpayable",
      "type": "function"
    },
    {
      "constant": false,
      "inputs": [
        {
          "internalType": "address",
          "name": "_issuer",
          "type": "address"
        },
        {
          "internalType": "string",
          "name": "_organization",
          "type": "string"
        }
      ],
      "name": "revokeIssuer",
      "outputs": [],
      "payable": false,
      "stateMutability": "nonpayable",
      "type": "function"
    },
    {
      "constant": false,
      "inputs": [
        {
          "internalType": "address",
          "name": "newOwner",
          "type": "address"
        }
      ],
      "name": "transferOwnership",
      "outputs": [],
      "payable": false,
      "stateMutability": "nonpayable",
      "type": "function"
    },
    {
      "constant": true,
      "inputs": [
        {
          "internalType": "uint256",
          "name": "_certId",
          "type": "uint256"
        }
      ],
      "name": "getCertificateById",
      "outputs": [
        {
          "components": [
            {
              "internalType": "address",
              "name": "issuer",
              "type": "address"
            },
            {
              "internalType": "address",
              "name": "owner",
              "type": "address"
            },
            {
              "internalType": "string",
              "name": "title",
              "type": "string"
            },
            {
              "internalType": "string",
              "name": "certificateHash",
              "type": "string"
            },
            {
              "internalType": "uint256",
              "name": "issuedAt",
              "type": "uint256"
            },
            {
              "internalType": "bool",
              "name": "exist",
              "type": "bool"
            }
          ],
          "internalType": "struct CertificateStoreCore.Certificate",
          "name": "allCertificates",
          "type": "tuple"
        }
      ],
      "payable": false,
      "stateMutability": "view",
      "type": "function"
    },
    {
      "constant": true,
      "inputs": [],
      "name": "getOwnedCertificatesId",
      "outputs": [
        {
          "internalType": "uint256[]",
          "name": "ownedCertificates",
          "type": "uint256[]"
        }
      ],
      "payable": false,
      "stateMutability": "view",
      "type": "function"
    },
    {
      "constant": true,
      "inputs": [],
      "name": "getIssuers",
      "outputs": [
        {
          "components": [
            {
              "internalType": "address",
              "name": "issuer",
              "type": "address"
            },
            {
              "internalType": "string",
              "name": "organization",
              "type": "string"
            },
            {
              "internalType": "bool",
              "name": "trusted",
              "type": "bool"
            },
            {
              "internalType": "bool",
              "name": "exist",
              "type": "bool"
            }
          ],
          "internalType": "struct CertificateStoreCore.Issuer[]",
          "name": "",
          "type": "tuple[]"
        }
      ],
      "payable": false,
      "stateMutability": "view",
      "type": "function"
    }
  ],
  "bytecode": "0x60806040526000620000166200023560201b60201c565b9050806000806101000a81548173ffffffffffffffffffffffffffffffffffffffff021916908373ffffffffffffffffffffffffffffffffffffffff1602179055508073ffffffffffffffffffffffffffffffffffffffff16600073ffffffffffffffffffffffffffffffffffffffff167f8be0079c531659141344cd1fd0a4f28419497f9722a3daafe3b4186f6b6457e060405160405180910390a350620000be6200064b565b62000114620000d26200023d60201b60201c565b6040518060400160405280600781526020017f43657274696659000000000000000000000000000000000000000000000000008152506200026660201b60201c565b905060016002600460006200012e6200023d60201b60201c565b73ffffffffffffffffffffffffffffffffffffffff1673ffffffffffffffffffffffffffffffffffffffff16815260200190815260200160002054815481106200017457fe5b906000526020600020906003020160020160006101000a81548160ff0219169083151502179055506200022d8160000151620001b56200023d60201b60201c565b6040518060400160405280601481526020017f4f524947494e414c5f43455254494649434154450000000000000000000000008152506040518060400160405280601481526020017f4f524947494e414c5f4345525449464943415445000000000000000000000000815250620003e560201b60201c565b50506200083c565b600033905090565b60008060009054906101000a900473ffffffffffffffffffffffffffffffffffffffff16905090565b620002706200064b565b6200027a6200064b565b60405180608001604052808573ffffffffffffffffffffffffffffffffffffffff168152602001848152602001600015158152602001600115158152509050600060016002839080600181540180825580915050906001820390600052602060002090600302016000909192909190915060008201518160000160006101000a81548173ffffffffffffffffffffffffffffffffffffffff021916908373ffffffffffffffffffffffffffffffffffffffff1602179055506020820151816001019080519060200190620003509291906200068d565b5060408201518160020160006101000a81548160ff02191690831515021790555060608201518160020160016101000a81548160ff021916908315150217905550505003905080600460008773ffffffffffffffffffffffffffffffffffffffff1673ffffffffffffffffffffffffffffffffffffffff16815260200190815260200160002081905550819250505092915050565b6000620003f162000714565b6040518060c001604052808773ffffffffffffffffffffffffffffffffffffffff1681526020018673ffffffffffffffffffffffffffffffffffffffff1681526020018581526020018481526020014281526020016001151581525090506000600180839080600181540180825580915050906001820390600052602060002090600602016000909192909190915060008201518160000160006101000a81548173ffffffffffffffffffffffffffffffffffffffff021916908373ffffffffffffffffffffffffffffffffffffffff16021790555060208201518160010160006101000a81548173ffffffffffffffffffffffffffffffffffffffff021916908373ffffffffffffffffffffffffffffffffffffffff16021790555060408201518160020190805190602001906200052c9291906200068d565b5060608201518160030190805190602001906200054b9291906200068d565b506080820151816004015560a08201518160050160006101000a81548160ff0219169083151502179055505050039050806003856040516200058e9190620007d7565b908152602001604051809103902081905550600560008773ffffffffffffffffffffffffffffffffffffffff1673ffffffffffffffffffffffffffffffffffffffff16815260200190815260200160002060008154809291906001019190505550600660003373ffffffffffffffffffffffffffffffffffffffff1673ffffffffffffffffffffffffffffffffffffffff168152602001908152602001600020600081548092919060010191905055508092505050949350505050565b6040518060800160405280600073ffffffffffffffffffffffffffffffffffffffff168152602001606081526020016000151581526020016000151581525090565b828054600181600116156101000203166002900490600052602060002090601f016020900481019282601f10620006d057805160ff191683800117855562000701565b8280016001018555821562000701579182015b8281111562000700578251825591602001919060010190620006e3565b5b50905062000710919062000778565b5090565b6040518060c00160405280600073ffffffffffffffffffffffffffffffffffffffff168152602001600073ffffffffffffffffffffffffffffffffffffffff1681526020016060815260200160608152602001600081526020016000151581525090565b6200079d91905b80821115620007995760008160009055506001016200077f565b5090565b90565b6000620007ad82620007f0565b620007b98185620007fb565b9350620007cb81856020860162000806565b80840191505092915050565b6000620007e58284620007a0565b915081905092915050565b600081519050919050565b600081905092915050565b60005b838110156200082657808201518184015260208101905062000809565b8381111562000836576000848401525b50505050565b61254f806200084c6000396000f3fe608060405234801561001057600080fd5b50600436106100cf5760003560e01c80638da5cb5b1161008c5780639d735caf116100665780639d735caf146101f4578063a594da9514610224578063e98ac4d814610242578063f2fde38b1461025e576100cf565b80638da5cb5b1461019c5780638f32d59b146101ba5780638fc0859a146101d8576100cf565b80632b43c5f1146100d45780633aceed30146100f057806364b3300314610121578063663b3e221461013f578063715018a6146101745780638d0624581461017e575b600080fd5b6100ee60048036036100e99190810190611ad2565b61027a565b005b61010a60048036036101059190810190611bce565b6103f5565b6040516101189291906121fb565b60405180910390f35b61012961079d565b60405161013691906121be565b60405180910390f35b61015960048036036101549190810190611c22565b6108df565b60405161016b969594939291906120fd565b60405180910390f35b61017c610aa5565b005b610186610bab565b60405161019391906121e0565b60405180910390f35b6101a4610c1d565b6040516101b191906120e2565b60405180910390f35b6101c2610c46565b6040516101cf91906121e0565b60405180910390f35b6101f260048036036101ed9190810190611ad2565b610ca4565b005b61020e60048036036102099190810190611c22565b610e3a565b60405161021b91906122bb565b60405180910390f35b61022c611084565b604051610239919061219c565b60405180910390f35b61025c60048036036102579190810190611b26565b611258565b005b61027860048036036102739190810190611aa9565b61136b565b005b610282610c46565b6102c1576040517f08c379a00000000000000000000000000000000000000000000000000000000081526004016102b89061229b565b60405180910390fd5b6002600460008473ffffffffffffffffffffffffffffffffffffffff1673ffffffffffffffffffffffffffffffffffffffff168152602001908152602001600020548154811061030d57fe5b906000526020600020906003020160020160019054906101000a900460ff16156103ac5760006002600460008573ffffffffffffffffffffffffffffffffffffffff1673ffffffffffffffffffffffffffffffffffffffff168152602001908152602001600020548154811061037f57fe5b906000526020600020906003020160020160006101000a81548160ff0219169083151502179055506103b8565b6103b682826113be565b505b7f731003ff9638e352f896124100670675e1e4322e7dfc0fe1fb311969e6f94bf782826040516103e992919061216c565b60405180910390a15050565b600080600060038560405161040a91906120cb565b90815260200160405180910390205490506104236118cb565b6001828154811061043057fe5b90600052602060002090600602016040518060c00160405290816000820160009054906101000a900473ffffffffffffffffffffffffffffffffffffffff1673ffffffffffffffffffffffffffffffffffffffff1673ffffffffffffffffffffffffffffffffffffffff1681526020016001820160009054906101000a900473ffffffffffffffffffffffffffffffffffffffff1673ffffffffffffffffffffffffffffffffffffffff1673ffffffffffffffffffffffffffffffffffffffff168152602001600282018054600181600116156101000203166002900480601f01602080910402602001604051908101604052809291908181526020018280546001816001161561010002031660029004801561058e5780601f106105635761010080835404028352916020019161058e565b820191906000526020600020905b81548152906001019060200180831161057157829003601f168201915b50505050508152602001600382018054600181600116156101000203166002900480601f0160208091040260200160405190810160405280929190818152602001828054600181600116156101000203166002900480156106305780601f1061060557610100808354040283529160200191610630565b820191906000526020600020905b81548152906001019060200180831161061357829003601f168201915b50505050508152602001600482015481526020016005820160009054906101000a900460ff1615151515815250509050600115158160a001511515148015610701575073__StringUtils___________________________6346bdca9a8260600151886040518363ffffffff1660e01b81526004016106b0929190612224565b60206040518083038186803b1580156106c857600080fd5b505af41580156106dc573d6000803e3d6000fd5b505050506040513d601f19601f820116820180604052506107009190810190611ba5565b5b801561077657508473ffffffffffffffffffffffffffffffffffffffff166001838154811061072c57fe5b906000526020600020906006020160010160009054906101000a900473ffffffffffffffffffffffffffffffffffffffff1673ffffffffffffffffffffffffffffffffffffffff16145b1561078957600182935093505050610796565b6000808090509350935050505b9250929050565b606080600560003373ffffffffffffffffffffffffffffffffffffffff1673ffffffffffffffffffffffffffffffffffffffff1681526020019081526020016000205460405190808252806020026020018201604052801561080e5781602001602082028038833980820191505090505b509050600080905060008090505b600180549050811080156108305750825182105b156108d6573373ffffffffffffffffffffffffffffffffffffffff166001828154811061085957fe5b906000526020600020906006020160010160009054906101000a900473ffffffffffffffffffffffffffffffffffffffff1673ffffffffffffffffffffffffffffffffffffffff1614156108c957808383815181106108b457fe5b60200260200101818152505081806001019250505b808060010191505061081c565b50819250505090565b600181815481106108ec57fe5b90600052602060002090600602016000915090508060000160009054906101000a900473ffffffffffffffffffffffffffffffffffffffff16908060010160009054906101000a900473ffffffffffffffffffffffffffffffffffffffff1690806002018054600181600116156101000203166002900480601f0160208091040260200160405190810160405280929190818152602001828054600181600116156101000203166002900480156109e45780601f106109b9576101008083540402835291602001916109e4565b820191906000526020600020905b8154815290600101906020018083116109c757829003601f168201915b505050505090806003018054600181600116156101000203166002900480601f016020809104026020016040519081016040528092919081815260200182805460018160011615610100020316600290048015610a825780601f10610a5757610100808354040283529160200191610a82565b820191906000526020600020905b815481529060010190602001808311610a6557829003601f168201915b5050505050908060040154908060050160009054906101000a900460ff16905086565b610aad610c46565b610aec576040517f08c379a0000000000000000000000000000000000000000000000000000000008152600401610ae39061229b565b60405180910390fd5b600073ffffffffffffffffffffffffffffffffffffffff166000809054906101000a900473ffffffffffffffffffffffffffffffffffffffff1673ffffffffffffffffffffffffffffffffffffffff167f8be0079c531659141344cd1fd0a4f28419497f9722a3daafe3b4186f6b6457e060405160405180910390a360008060006101000a81548173ffffffffffffffffffffffffffffffffffffffff021916908373ffffffffffffffffffffffffffffffffffffffff160217905550565b60006002600460003373ffffffffffffffffffffffffffffffffffffffff1673ffffffffffffffffffffffffffffffffffffffff1681526020019081526020016000205481548110610bf957fe5b906000526020600020906003020160020160009054906101000a900460ff16905090565b60008060009054906101000a900473ffffffffffffffffffffffffffffffffffffffff16905090565b60008060009054906101000a900473ffffffffffffffffffffffffffffffffffffffff1673ffffffffffffffffffffffffffffffffffffffff16610c88611537565b73ffffffffffffffffffffffffffffffffffffffff1614905090565b610cac610c46565b610ceb576040517f08c379a0000000000000000000000000000000000000000000000000000000008152600401610ce29061229b565b60405180910390fd5b6002600460008473ffffffffffffffffffffffffffffffffffffffff1673ffffffffffffffffffffffffffffffffffffffff1681526020019081526020016000205481548110610d3757fe5b906000526020600020906003020160020160019054906101000a900460ff1615610dd65760016002600460008573ffffffffffffffffffffffffffffffffffffffff1673ffffffffffffffffffffffffffffffffffffffff1681526020019081526020016000205481548110610da957fe5b906000526020600020906003020160020160006101000a81548160ff021916908315150217905550610dfd565b610dde61192f565b610de883836113be565b90506001816040019015159081151581525050505b7f71f25247d01355f495505e8ea75c6b650f7c2b9a0c1906032ea56f503645e35e8282604051610e2e92919061216c565b60405180910390a15050565b610e426118cb565b60018281548110610e4f57fe5b90600052602060002090600602016040518060c00160405290816000820160009054906101000a900473ffffffffffffffffffffffffffffffffffffffff1673ffffffffffffffffffffffffffffffffffffffff1673ffffffffffffffffffffffffffffffffffffffff1681526020016001820160009054906101000a900473ffffffffffffffffffffffffffffffffffffffff1673ffffffffffffffffffffffffffffffffffffffff1673ffffffffffffffffffffffffffffffffffffffff168152602001600282018054600181600116156101000203166002900480601f016020809104026020016040519081016040528092919081815260200182805460018160011615610100020316600290048015610fad5780601f10610f8257610100808354040283529160200191610fad565b820191906000526020600020905b815481529060010190602001808311610f9057829003601f168201915b50505050508152602001600382018054600181600116156101000203166002900480601f01602080910402602001604051908101604052809291908181526020018280546001816001161561010002031660029004801561104f5780601f106110245761010080835404028352916020019161104f565b820191906000526020600020905b81548152906001019060200180831161103257829003601f168201915b50505050508152602001600482015481526020016005820160009054906101000a900460ff1615151515815250509050919050565b606061108e610c46565b6110cd576040517f08c379a00000000000000000000000000000000000000000000000000000000081526004016110c49061229b565b60405180910390fd5b6002805480602002602001604051908101604052809291908181526020016000905b8282101561124f57838290600052602060002090600302016040518060800160405290816000820160009054906101000a900473ffffffffffffffffffffffffffffffffffffffff1673ffffffffffffffffffffffffffffffffffffffff1673ffffffffffffffffffffffffffffffffffffffff168152602001600182018054600181600116156101000203166002900480601f0160208091040260200160405190810160405280929190818152602001828054600181600116156101000203166002900480156112015780601f106111d657610100808354040283529160200191611201565b820191906000526020600020905b8154815290600101906020018083116111e457829003601f168201915b505050505081526020016002820160009054906101000a900460ff161515151581526020016002820160019054906101000a900460ff161515151581525050815260200190600101906110ef565b50505050905090565b611260610bab565b61129f576040517f08c379a00000000000000000000000000000000000000000000000000000000081526004016112969061225b565b60405180910390fd5b600061132a6002600460003373ffffffffffffffffffffffffffffffffffffffff1673ffffffffffffffffffffffffffffffffffffffff16815260200190815260200160002054815481106112f057fe5b906000526020600020906003020160000160009054906101000a900473ffffffffffffffffffffffffffffffffffffffff1685858561153f565b90507f33a43a5f40642b7962e152d8df96057d081da4482e7adef69ddf86e2dc9ae711818460405161135d9291906122dd565b60405180910390a150505050565b611373610c46565b6113b2576040517f08c379a00000000000000000000000000000000000000000000000000000000081526004016113a99061229b565b60405180910390fd5b6113bb8161179d565b50565b6113c661192f565b6113ce61192f565b60405180608001604052808573ffffffffffffffffffffffffffffffffffffffff168152602001848152602001600015158152602001600115158152509050600060016002839080600181540180825580915050906001820390600052602060002090600302016000909192909190915060008201518160000160006101000a81548173ffffffffffffffffffffffffffffffffffffffff021916908373ffffffffffffffffffffffffffffffffffffffff16021790555060208201518160010190805190602001906114a2929190611971565b5060408201518160020160006101000a81548160ff02191690831515021790555060608201518160020160016101000a81548160ff021916908315150217905550505003905080600460008773ffffffffffffffffffffffffffffffffffffffff1673ffffffffffffffffffffffffffffffffffffffff16815260200190815260200160002081905550819250505092915050565b600033905090565b60006115496118cb565b6040518060c001604052808773ffffffffffffffffffffffffffffffffffffffff1681526020018673ffffffffffffffffffffffffffffffffffffffff1681526020018581526020018481526020014281526020016001151581525090506000600180839080600181540180825580915050906001820390600052602060002090600602016000909192909190915060008201518160000160006101000a81548173ffffffffffffffffffffffffffffffffffffffff021916908373ffffffffffffffffffffffffffffffffffffffff16021790555060208201518160010160006101000a81548173ffffffffffffffffffffffffffffffffffffffff021916908373ffffffffffffffffffffffffffffffffffffffff1602179055506040820151816002019080519060200190611682929190611971565b50606082015181600301908051906020019061169f929190611971565b506080820151816004015560a08201518160050160006101000a81548160ff0219169083151502179055505050039050806003856040516116e091906120cb565b908152602001604051809103902081905550600560008773ffffffffffffffffffffffffffffffffffffffff1673ffffffffffffffffffffffffffffffffffffffff16815260200190815260200160002060008154809291906001019190505550600660003373ffffffffffffffffffffffffffffffffffffffff1673ffffffffffffffffffffffffffffffffffffffff168152602001908152602001600020600081548092919060010191905055508092505050949350505050565b600073ffffffffffffffffffffffffffffffffffffffff168173ffffffffffffffffffffffffffffffffffffffff16141561180d576040517f08c379a00000000000000000000000000000000000000000000000000000000081526004016118049061227b565b60405180910390fd5b8073ffffffffffffffffffffffffffffffffffffffff166000809054906101000a900473ffffffffffffffffffffffffffffffffffffffff1673ffffffffffffffffffffffffffffffffffffffff167f8be0079c531659141344cd1fd0a4f28419497f9722a3daafe3b4186f6b6457e060405160405180910390a3806000806101000a81548173ffffffffffffffffffffffffffffffffffffffff021916908373ffffffffffffffffffffffffffffffffffffffff16021790555050565b6040518060c00160405280600073ffffffffffffffffffffffffffffffffffffffff168152602001600073ffffffffffffffffffffffffffffffffffffffff1681526020016060815260200160608152602001600081526020016000151581525090565b6040518060800160405280600073ffffffffffffffffffffffffffffffffffffffff168152602001606081526020016000151581526020016000151581525090565b828054600181600116156101000203166002900490600052602060002090601f016020900481019282601f106119b257805160ff19168380011785556119e0565b828001600101855582156119e0579182015b828111156119df5782518255916020019190600101906119c4565b5b5090506119ed91906119f1565b5090565b611a1391905b80821115611a0f5760008160009055506001016119f7565b5090565b90565b600081359050611a25816124c7565b92915050565b600081519050611a3a816124de565b92915050565b600082601f830112611a5157600080fd5b8135611a64611a5f8261233a565b61230d565b91508082526020830160208301858383011115611a8057600080fd5b611a8b838284612474565b50505092915050565b600081359050611aa3816124f5565b92915050565b600060208284031215611abb57600080fd5b6000611ac984828501611a16565b91505092915050565b60008060408385031215611ae557600080fd5b6000611af385828601611a16565b925050602083013567ffffffffffffffff811115611b1057600080fd5b611b1c85828601611a40565b9150509250929050565b600080600060608486031215611b3b57600080fd5b6000611b4986828701611a16565b935050602084013567ffffffffffffffff811115611b6657600080fd5b611b7286828701611a40565b925050604084013567ffffffffffffffff811115611b8f57600080fd5b611b9b86828701611a40565b9150509250925092565b600060208284031215611bb757600080fd5b6000611bc584828501611a2b565b91505092915050565b60008060408385031215611be157600080fd5b600083013567ffffffffffffffff811115611bfb57600080fd5b611c0785828601611a40565b9250506020611c1885828601611a16565b9150509250929050565b600060208284031215611c3457600080fd5b6000611c4284828501611a94565b91505092915050565b6000611c57838361204a565b905092915050565b6000611c6b83836120ad565b60208301905092915050565b611c808161242c565b82525050565b611c8f8161242c565b82525050565b6000611ca082612386565b611caa81856123cc565b935083602082028501611cbc85612366565b8060005b85811015611cf85784840389528151611cd98582611c4b565b9450611ce4836123b2565b925060208a01995050600181019050611cc0565b50829750879550505050505092915050565b6000611d1582612391565b611d1f81856123dd565b9350611d2a83612376565b8060005b83811015611d5b578151611d428882611c5f565b9750611d4d836123bf565b925050600181019050611d2e565b5085935050505092915050565b611d718161243e565b82525050565b611d808161243e565b82525050565b6000611d91826123a7565b611d9b81856123ff565b9350611dab818560208601612483565b611db4816124b6565b840191505092915050565b6000611dca826123a7565b611dd48185612410565b9350611de4818560208601612483565b611ded816124b6565b840191505092915050565b6000611e03826123a7565b611e0d8185612421565b9350611e1d818560208601612483565b80840191505092915050565b6000611e348261239c565b611e3e81856123ee565b9350611e4e818560208601612483565b611e57816124b6565b840191505092915050565b6000611e6d8261239c565b611e7781856123ff565b9350611e87818560208601612483565b611e90816124b6565b840191505092915050565b6000611ea68261239c565b611eb08185612410565b9350611ec0818560208601612483565b611ec9816124b6565b840191505092915050565b6000611ee16016836123ff565b91507f497373756572206973206e6f7420747275737465642e000000000000000000006000830152602082019050919050565b6000611f216026836123ff565b91507f4f776e61626c653a206e6577206f776e657220697320746865207a65726f206160008301527f64647265737300000000000000000000000000000000000000000000000000006020830152604082019050919050565b6000611f876020836123ff565b91507f4f776e61626c653a2063616c6c6572206973206e6f7420746865206f776e65726000830152602082019050919050565b600060c083016000830151611fd26000860182611c77565b506020830151611fe56020860182611c77565b5060408301518482036040860152611ffd8282611e29565b915050606083015184820360608601526120178282611e29565b915050608083015161202c60808601826120ad565b5060a083015161203f60a0860182611d68565b508091505092915050565b60006080830160008301516120626000860182611c77565b506020830151848203602086015261207a8282611e29565b915050604083015161208f6040860182611d68565b5060608301516120a26060860182611d68565b508091505092915050565b6120b68161246a565b82525050565b6120c58161246a565b82525050565b60006120d78284611df8565b915081905092915050565b60006020820190506120f76000830184611c86565b92915050565b600060c0820190506121126000830189611c86565b61211f6020830188611c86565b81810360408301526121318187611e62565b905081810360608301526121458186611e62565b905061215460808301856120bc565b61216160a0830184611d77565b979650505050505050565b60006040820190506121816000830185611c86565b81810360208301526121938184611d86565b90509392505050565b600060208201905081810360008301526121b68184611c95565b905092915050565b600060208201905081810360008301526121d88184611d0a565b905092915050565b60006020820190506121f56000830184611d77565b92915050565b60006040820190506122106000830185611d77565b61221d60208301846120bc565b9392505050565b6000604082019050818103600083015261223e8185611e9b565b905081810360208301526122528184611dbf565b90509392505050565b6000602082019050818103600083015261227481611ed4565b9050919050565b6000602082019050818103600083015261229481611f14565b9050919050565b600060208201905081810360008301526122b481611f7a565b9050919050565b600060208201905081810360008301526122d58184611fba565b905092915050565b60006040820190506122f260008301856120bc565b81810360208301526123048184611d86565b90509392505050565b6000604051905081810181811067ffffffffffffffff8211171561233057600080fd5b8060405250919050565b600067ffffffffffffffff82111561235157600080fd5b601f19601f8301169050602081019050919050565b6000819050602082019050919050565b6000819050602082019050919050565b600081519050919050565b600081519050919050565b600081519050919050565b600081519050919050565b6000602082019050919050565b6000602082019050919050565b600082825260208201905092915050565b600082825260208201905092915050565b600082825260208201905092915050565b600082825260208201905092915050565b600082825260208201905092915050565b600081905092915050565b60006124378261244a565b9050919050565b60008115159050919050565b600073ffffffffffffffffffffffffffffffffffffffff82169050919050565b6000819050919050565b82818337600083830152505050565b60005b838110156124a1578082015181840152602081019050612486565b838111156124b0576000848401525b50505050565b6000601f19601f8301169050919050565b6124d08161242c565b81146124db57600080fd5b50565b6124e78161243e565b81146124f257600080fd5b50565b6124fe8161246a565b811461250957600080fd5b5056fea365627a7a7231582054c9688374be1a109a42b22f5f2558dacaaca5961800ca1e59e6b495490482046c6578706572696d656e74616cf564736f6c63430005100040",
  "source": "pragma solidity >=0.5.0 <0.6.0;\npragma experimental ABIEncoderV2;\n\nimport \"./CertificateStoreCore.sol\";\n\ncontract CertificateStore is CertificateStoreCore {\n    /**\n    * @dev Return certificate matching th given id;\n    */\n    function getCertificateById(uint _certId) public view returns(Certificate memory allCertificates) {\n        return certificates[_certId];\n    }\n\n    /**\n    * @dev Returns certificates owned by the caller\n    */\n    function getOwnedCertificatesId() public view returns (uint[] memory ownedCertificates) {\n        uint[] memory _ownedCertificates = new uint[](certificateCount[msg.sender]);\n        uint current = 0;\n\n        for (uint i = 0; i < certificates.length && current < _ownedCertificates.length; i++) {\n            if (certificates[i].owner == msg.sender) {\n                _ownedCertificates[current] = i;\n                current++;\n            }\n        }\n\n        return _ownedCertificates;\n    }\n\n    /**\n    * @dev Returns all issuers\n    */\n    function getIssuers() public view onlyOwner returns (Issuer[] memory) {\n        return issuers;\n    }\n}\n",
  "sourcePath": "/home/guillaume/Ynov/M1_Blockchain/certynov/certynov/contracts/CertificateStore.sol",
  "compiler": {
    "name": "solc",
    "version": "0.5.16+commit.9c3226ce.Emscripten.clang"
  },
  "schemaVersion": "3.0.23",
  "updatedAt": "2020-04-17T15:04:15.856Z",
  "devdoc": {
    "methods": {
      "addIssuer(address,string)": {
        "details": "Add a new trusted issuer"
      },
      "authenticateHash(string,address)": {
        "details": "Returns true and the certificate id if the given certificate hash and the pretended owner match"
      },
      "getCertificateById(uint256)": {
        "details": "Return certificate matching th given id;"
      },
      "getIssuers()": {
        "details": "Returns all issuers"
      },
      "getOwnedCertificatesId()": {
        "details": "Returns certificates owned by the caller"
      },
      "isOwner()": {
        "details": "Returns true if the caller is the current owner."
      },
      "isTrustedIssuer()": {
        "details": "Returns true if the caller is a trusted issuer"
      },
      "issueCertificate(address,string,string)": {
        "details": "Issue a new certificate from input data (only trusted issuer)"
      },
      "owner()": {
        "details": "Returns the address of the current owner."
      },
      "renounceOwnership()": {
        "details": "Leaves the contract without owner. It will not be possible to call `onlyOwner` functions anymore. Can only be called by the current owner.     * NOTE: Renouncing ownership will leave the contract without an owner, thereby removing any functionality that is only available to the owner."
      },
      "revokeIssuer(address,string)": {
        "details": "Revoke an existing issuer"
      },
      "transferOwnership(address)": {
        "details": "Transfers ownership of the contract to a new account (`newOwner`). Can only be called by the current owner."
      }
    }
  },
  "userdoc": {
    "methods": {}
  }
}