{
  "contractName": "StringUtils",
  "abi": [
    {
      "constant": true,
      "inputs": [
        {
          "internalType": "string",
          "name": "_a",
          "type": "string"
        },
        {
          "internalType": "string",
          "name": "_b",
          "type": "string"
        }
      ],
      "name": "compare",
      "outputs": [
        {
          "internalType": "int256",
          "name": "",
          "type": "int256"
        }
      ],
      "payable": false,
      "stateMutability": "pure",
      "type": "function"
    },
    {
      "constant": true,
      "inputs": [
        {
          "internalType": "string",
          "name": "_a",
          "type": "string"
        },
        {
          "internalType": "string",
          "name": "_b",
          "type": "string"
        }
      ],
      "name": "equal",
      "outputs": [
        {
          "internalType": "bool",
          "name": "",
          "type": "bool"
        }
      ],
      "payable": false,
      "stateMutability": "pure",
      "type": "function"
    },
    {
      "constant": true,
      "inputs": [
        {
          "internalType": "string",
          "name": "_haystack",
          "type": "string"
        },
        {
          "internalType": "string",
          "name": "_needle",
          "type": "string"
        }
      ],
      "name": "indexOf",
      "outputs": [
        {
          "internalType": "int256",
          "name": "",
          "type": "int256"
        }
      ],
      "payable": false,
      "stateMutability": "pure",
      "type": "function"
    }
  ],
  "bytecode": "0x6108ae610026600b82828239805160001a60731461001957fe5b30600052607381538281f3fe730000000000000000000000000000000000000000301460806040526004361061004b5760003560e01c80633a96fdd71461005057806346bdca9a146101b65780638a0807b714610320575b600080fd5b6101a06004803603604081101561006657600080fd5b810190808035906020019064010000000081111561008357600080fd5b82018360208201111561009557600080fd5b803590602001918460018302840111640100000000831117156100b757600080fd5b91908080601f016020809104026020016040519081016040528093929190818152602001838380828437600081840152601f19601f8201169050808301925050505050505091929192908035906020019064010000000081111561011a57600080fd5b82018360208201111561012c57600080fd5b8035906020019184600183028401116401000000008311171561014e57600080fd5b91908080601f016020809104026020016040519081016040528093929190818152602001838380828437600081840152601f19601f820116905080830192505050505050509192919290505050610486565b6040518082815260200191505060405180910390f35b610306600480360360408110156101cc57600080fd5b81019080803590602001906401000000008111156101e957600080fd5b8201836020820111156101fb57600080fd5b8035906020019184600183028401116401000000008311171561021d57600080fd5b91908080601f016020809104026020016040519081016040528093929190818152602001838380828437600081840152601f19601f8201169050808301925050505050505091929192908035906020019064010000000081111561028057600080fd5b82018360208201111561029257600080fd5b803590602001918460018302840111640100000000831117156102b457600080fd5b91908080601f016020809104026020016040519081016040528093929190818152602001838380828437600081840152601f19601f820116905080830192505050505050509192919290505050610644565b604051808215151515815260200191505060405180910390f35b6104706004803603604081101561033657600080fd5b810190808035906020019064010000000081111561035357600080fd5b82018360208201111561036557600080fd5b8035906020019184600183028401116401000000008311171561038757600080fd5b91908080601f016020809104026020016040519081016040528093929190818152602001838380828437600081840152601f19601f820116905080830192505050505050509192919290803590602001906401000000008111156103ea57600080fd5b8201836020820111156103fc57600080fd5b8035906020019184600183028401116401000000008311171561041e57600080fd5b91908080601f016020809104026020016040519081016040528093929190818152602001838380828437600081840152601f19601f82011690508083019250505050505050919291929050505061065a565b6040518082815260200191505060405180910390f35b60006060839050606083905060008251905080825110156104a657815190505b60008090505b818110156105ea578281815181106104c057fe5b602001015160f81c60f81b7effffffffffffffffffffffffffffffffffffffffffffffffffffffffffffff19168482815181106104f957fe5b602001015160f81c60f81b7effffffffffffffffffffffffffffffffffffffffffffffffffffffffffffff19161015610558577fffffffffffffffffffffffffffffffffffffffffffffffffffffffffffffffff94505050505061063e565b82818151811061056457fe5b602001015160f81c60f81b7effffffffffffffffffffffffffffffffffffffffffffffffffffffffffffff191684828151811061059d57fe5b602001015160f81c60f81b7effffffffffffffffffffffffffffffffffffffffffffffffffffffffffffff191611156105dd57600194505050505061063e565b80806001019150506104ac565b50815183511015610620577fffffffffffffffffffffffffffffffffffffffffffffffffffffffffffffffff935050505061063e565b815183511115610636576001935050505061063e565b600093505050505b92915050565b6000806106518484610486565b14905092915050565b600060608390506060839050600182511080610677575060018151105b80610683575081518151115b156106b2577fffffffffffffffffffffffffffffffffffffffffffffffffffffffffffffffff92505050610873565b6fffffffffffffffffffffffffffffffff825111156106f5577fffffffffffffffffffffffffffffffffffffffffffffffffffffffffffffffff92505050610873565b600080905060008090505b835181101561084b578260008151811061071657fe5b602001015160f81c60f81b7effffffffffffffffffffffffffffffffffffffffffffffffffffffffffffff191684828151811061074f57fe5b602001015160f81c60f81b7effffffffffffffffffffffffffffffffffffffffffffffffffffffffffffff1916141561083e57600191505b82518210801561079957508351828201105b801561081657508282815181106107ac57fe5b602001015160f81c60f81b7effffffffffffffffffffffffffffffffffffffffffffffffffffffffffffff191684838301815181106107e757fe5b602001015160f81c60f81b7effffffffffffffffffffffffffffffffffffffffffffffffffffffffffffff1916145b15610828578180600101925050610787565b825182141561083d5780945050505050610873565b5b8080600101915050610700565b507fffffffffffffffffffffffffffffffffffffffffffffffffffffffffffffffff93505050505b9291505056fea265627a7a72315820cae8b9692fafd4a2e8c6be89b9aa0d6896bf5e95bd02585a7e8f4bafea99708c64736f6c63430005100032",
  "source": "pragma solidity >=0.5.0 <0.6.0;\n\n/// From https://github.com/ethereum/dapp-bin/blob/master/library/stringUtils.sol\nlibrary StringUtils {\n    /// @dev Does a byte-by-byte lexicographical comparison of two strings.\n    /// @return a negative number if `_a` is smaller, zero if they are equal\n    /// and a positive numbe if `_b` is smaller.\n    function compare(string memory _a, string memory _b) pure public returns (int) {\n        bytes memory a = bytes(_a);\n        bytes memory b = bytes(_b);\n        uint minLength = a.length;\n        if (b.length < minLength) minLength = b.length;\n        //@todo unroll the loop into increments of 32 and do full 32 byte comparisons\n        for (uint i = 0; i < minLength; i ++)\n            if (a[i] < b[i])\n                return -1;\n            else if (a[i] > b[i])\n                return 1;\n        if (a.length < b.length)\n            return -1;\n        else if (a.length > b.length)\n            return 1;\n        else\n            return 0;\n    }\n    /// @dev Compares two strings and returns true iff they are equal.\n    function equal(string memory _a, string memory _b) pure public returns (bool) {\n        return compare(_a, _b) == 0;\n    }\n    /// @dev Finds the index of the first occurrence of _needle in _haystack\n    function indexOf(string memory _haystack, string memory _needle) pure public returns (int)\n    {\n        bytes memory h = bytes(_haystack);\n        bytes memory n = bytes(_needle);\n        if(h.length < 1 || n.length < 1 || (n.length > h.length))\n            return -1;\n        else if(h.length > (2**128 -1)) // since we have to be able to return -1 (if the char isn't found or input error), this function must return an \"int\" type with a max length of (2^128 - 1)\n            return -1;\n        else\n        {\n            uint subindex = 0;\n            for (uint i = 0; i < h.length; i ++)\n            {\n                if (h[i] == n[0]) // found the first char of b\n                {\n                    subindex = 1;\n                    while(subindex < n.length && (i + subindex) < h.length && h[i + subindex] == n[subindex]) // search until the chars don't match or until we reach the end of a or b\n                    {\n                        subindex++;\n                    }\n                    if(subindex == n.length)\n                        return int(i);\n                }\n            }\n            return -1;\n        }\n    }\n}",
  "sourcePath": "/home/guillaume/Ynov/M1_Blockchain/certynov/certynov/contracts/StringUtils.sol",
  "compiler": {
    "name": "solc",
    "version": "0.5.16+commit.9c3226ce.Emscripten.clang"
  },
  "schemaVersion": "3.0.23",
  "updatedAt": "2020-04-17T15:04:15.864Z",
  "devdoc": {
    "methods": {
      "compare(string,string)": {
        "details": "Does a byte-by-byte lexicographical comparison of two strings.",
        "return": "a negative number if `_a` is smaller, zero if they are equal and a positive numbe if `_b` is smaller."
      },
      "equal(string,string)": {
        "details": "Compares two strings and returns true iff they are equal."
      },
      "indexOf(string,string)": {
        "details": "Finds the index of the first occurrence of _needle in _haystack"
      }
    }
  },
  "userdoc": {
    "methods": {},
    "notice": "From https://github.com/ethereum/dapp-bin/blob/master/library/stringUtils.sol"
  }
}